{
  "_format": "hh-sol-artifact-1",
  "contractName": "VariableSupplyERC20Token",
  "sourceName": "contracts/token/VariableSupplyERC20Token.sol",
  "abi": [
    {
      "inputs": [
        {
          "internalType": "string",
          "name": "name_",
          "type": "string"
        },
        {
          "internalType": "string",
          "name": "symbol_",
          "type": "string"
        },
        {
          "internalType": "uint256",
          "name": "initialSupply_",
          "type": "uint256"
        },
        {
          "internalType": "uint256",
          "name": "maxSupply_",
          "type": "uint256"
        }
      ],
      "stateMutability": "nonpayable",
      "type": "constructor"
    },
    {
      "anonymous": false,
      "inputs": [
        {
          "indexed": true,
          "internalType": "address",
          "name": "_admin",
          "type": "address"
        },
        {
          "indexed": false,
          "internalType": "bool",
          "name": "_enabled",
          "type": "bool"
        }
      ],
      "name": "AdminAccessSet",
      "type": "event"
    },
    {
      "anonymous": false,
      "inputs": [
        {
          "indexed": true,
          "internalType": "address",
          "name": "owner",
          "type": "address"
        },
        {
          "indexed": true,
          "internalType": "address",
          "name": "spender",
          "type": "address"
        },
        {
          "indexed": false,
          "internalType": "uint256",
          "name": "value",
          "type": "uint256"
        }
      ],
      "name": "Approval",
      "type": "event"
    },
    {
      "anonymous": false,
      "inputs": [
        {
          "indexed": true,
          "internalType": "address",
          "name": "from",
          "type": "address"
        },
        {
          "indexed": true,
          "internalType": "address",
          "name": "to",
          "type": "address"
        },
        {
          "indexed": false,
          "internalType": "uint256",
          "name": "value",
          "type": "uint256"
        }
      ],
      "name": "Transfer",
      "type": "event"
    },
    {
      "inputs": [
        {
          "internalType": "address",
          "name": "owner",
          "type": "address"
        },
        {
          "internalType": "address",
          "name": "spender",
          "type": "address"
        }
      ],
      "name": "allowance",
      "outputs": [
        {
          "internalType": "uint256",
          "name": "",
          "type": "uint256"
        }
      ],
      "stateMutability": "view",
      "type": "function"
    },
    {
      "inputs": [
        {
          "internalType": "address",
          "name": "spender",
          "type": "address"
        },
        {
          "internalType": "uint256",
          "name": "amount",
          "type": "uint256"
        }
      ],
      "name": "approve",
      "outputs": [
        {
          "internalType": "bool",
          "name": "",
          "type": "bool"
        }
      ],
      "stateMutability": "nonpayable",
      "type": "function"
    },
    {
      "inputs": [
        {
          "internalType": "address",
          "name": "account",
          "type": "address"
        }
      ],
      "name": "balanceOf",
      "outputs": [
        {
          "internalType": "uint256",
          "name": "",
          "type": "uint256"
        }
      ],
      "stateMutability": "view",
      "type": "function"
    },
    {
      "inputs": [],
      "name": "decimals",
      "outputs": [
        {
          "internalType": "uint8",
          "name": "",
          "type": "uint8"
        }
      ],
      "stateMutability": "view",
      "type": "function"
    },
    {
      "inputs": [
        {
          "internalType": "address",
          "name": "spender",
          "type": "address"
        },
        {
          "internalType": "uint256",
          "name": "subtractedValue",
          "type": "uint256"
        }
      ],
      "name": "decreaseAllowance",
      "outputs": [
        {
          "internalType": "bool",
          "name": "",
          "type": "bool"
        }
      ],
      "stateMutability": "nonpayable",
      "type": "function"
    },
    {
      "inputs": [
        {
          "internalType": "address",
          "name": "spender",
          "type": "address"
        },
        {
          "internalType": "uint256",
          "name": "addedValue",
          "type": "uint256"
        }
      ],
      "name": "increaseAllowance",
      "outputs": [
        {
          "internalType": "bool",
          "name": "",
          "type": "bool"
        }
      ],
      "stateMutability": "nonpayable",
      "type": "function"
    },
    {
      "inputs": [
        {
          "internalType": "address",
          "name": "_addressToCheck",
          "type": "address"
        }
      ],
      "name": "isAdmin",
      "outputs": [
        {
          "internalType": "bool",
          "name": "",
          "type": "bool"
        }
      ],
      "stateMutability": "view",
      "type": "function"
    },
    {
      "inputs": [
        {
          "internalType": "address",
          "name": "account",
          "type": "address"
        },
        {
          "internalType": "uint256",
          "name": "amount",
          "type": "uint256"
        }
      ],
      "name": "mint",
      "outputs": [],
      "stateMutability": "nonpayable",
      "type": "function"
    },
    {
      "inputs": [],
      "name": "mintableSupply",
      "outputs": [
        {
          "internalType": "uint256",
          "name": "",
          "type": "uint256"
        }
      ],
      "stateMutability": "view",
      "type": "function"
    },
    {
      "inputs": [],
      "name": "name",
      "outputs": [
        {
          "internalType": "string",
          "name": "",
          "type": "string"
        }
      ],
      "stateMutability": "view",
      "type": "function"
    },
    {
      "inputs": [
        {
          "internalType": "address",
          "name": "admin",
          "type": "address"
        },
        {
          "internalType": "bool",
          "name": "isEnabled",
          "type": "bool"
        }
      ],
      "name": "setAdmin",
      "outputs": [],
      "stateMutability": "nonpayable",
      "type": "function"
    },
    {
      "inputs": [],
      "name": "symbol",
      "outputs": [
        {
          "internalType": "string",
          "name": "",
          "type": "string"
        }
      ],
      "stateMutability": "view",
      "type": "function"
    },
    {
      "inputs": [],
      "name": "totalSupply",
      "outputs": [
        {
          "internalType": "uint256",
          "name": "",
          "type": "uint256"
        }
      ],
      "stateMutability": "view",
      "type": "function"
    },
    {
      "inputs": [
        {
          "internalType": "address",
          "name": "to",
          "type": "address"
        },
        {
          "internalType": "uint256",
          "name": "amount",
          "type": "uint256"
        }
      ],
      "name": "transfer",
      "outputs": [
        {
          "internalType": "bool",
          "name": "",
          "type": "bool"
        }
      ],
      "stateMutability": "nonpayable",
      "type": "function"
    },
    {
      "inputs": [
        {
          "internalType": "address",
          "name": "from",
          "type": "address"
        },
        {
          "internalType": "address",
          "name": "to",
          "type": "address"
        },
        {
          "internalType": "uint256",
          "name": "amount",
          "type": "uint256"
        }
      ],
      "name": "transferFrom",
      "outputs": [
        {
          "internalType": "bool",
          "name": "",
          "type": "bool"
        }
      ],
      "stateMutability": "nonpayable",
      "type": "function"
    }
  ],
  "bytecode": "0x60806040523480156200001157600080fd5b50604051620026e2380380620026e283398181016040528101906200003791906200076b565b8383816003908051906020019062000051929190620004e3565b5080600490805190602001906200006a929190620004e3565b50505060016005600062000083620001c360201b60201c565b73ffffffffffffffffffffffffffffffffffffffff1673ffffffffffffffffffffffffffffffffffffffff16815260200190815260200160002060006101000a81548160ff021916908315150217905550620000e4620001c360201b60201c565b73ffffffffffffffffffffffffffffffffffffffff167fe529461c8529abc0e0fe7c5ee361f74fe22e0b7574df1fc0b7558a282091fb7860016040516200012c919062000838565b60405180910390a26000821180620001445750600081115b62000186576040517f08c379a00000000000000000000000000000000000000000000000000000000081526004016200017d90620008b6565b60405180910390fd5b806006819055506000821115620001b957620001b8620001ab620001c360201b60201c565b83620001cb60201b60201c565b5b5050505062000b87565b600033905090565b60056000620001df620001c360201b60201c565b73ffffffffffffffffffffffffffffffffffffffff1673ffffffffffffffffffffffffffffffffffffffff16815260200190815260200160002060009054906101000a900460ff1662000269576040517f08c379a0000000000000000000000000000000000000000000000000000000008152600401620002609062000928565b60405180910390fd5b600073ffffffffffffffffffffffffffffffffffffffff168273ffffffffffffffffffffffffffffffffffffffff1603620002db576040517f08c379a0000000000000000000000000000000000000000000000000000000008152600401620002d2906200099a565b60405180910390fd5b600060065411156200034b576006548111156200032f576040517f08c379a00000000000000000000000000000000000000000000000000000000081526004016200032690620008b6565b60405180910390fd5b8060066000828254620003439190620009eb565b925050819055505b6200035d82826200036160201b60201c565b5050565b600073ffffffffffffffffffffffffffffffffffffffff168273ffffffffffffffffffffffffffffffffffffffff1603620003d3576040517f08c379a0000000000000000000000000000000000000000000000000000000008152600401620003ca9062000a76565b60405180910390fd5b620003e760008383620004d960201b60201c565b8060026000828254620003fb919062000a98565b92505081905550806000808473ffffffffffffffffffffffffffffffffffffffff1673ffffffffffffffffffffffffffffffffffffffff168152602001908152602001600020600082825462000452919062000a98565b925050819055508173ffffffffffffffffffffffffffffffffffffffff16600073ffffffffffffffffffffffffffffffffffffffff167fddf252ad1be2c89b69c2b068fc378daa952ba7f163c4a11628f55a4df523b3ef83604051620004b9919062000b06565b60405180910390a3620004d560008383620004de60201b60201c565b5050565b505050565b505050565b828054620004f19062000b52565b90600052602060002090601f01602090048101928262000515576000855562000561565b82601f106200053057805160ff191683800117855562000561565b8280016001018555821562000561579182015b828111156200056057825182559160200191906001019062000543565b5b50905062000570919062000574565b5090565b5b808211156200058f57600081600090555060010162000575565b5090565b6000604051905090565b600080fd5b600080fd5b600080fd5b600080fd5b6000601f19601f8301169050919050565b7f4e487b7100000000000000000000000000000000000000000000000000000000600052604160045260246000fd5b620005fc82620005b1565b810181811067ffffffffffffffff821117156200061e576200061d620005c2565b5b80604052505050565b60006200063362000593565b9050620006418282620005f1565b919050565b600067ffffffffffffffff821115620006645762000663620005c2565b5b6200066f82620005b1565b9050602081019050919050565b60005b838110156200069c5780820151818401526020810190506200067f565b83811115620006ac576000848401525b50505050565b6000620006c9620006c38462000646565b62000627565b905082815260208101848484011115620006e857620006e7620005ac565b5b620006f58482856200067c565b509392505050565b600082601f830112620007155762000714620005a7565b5b815162000727848260208601620006b2565b91505092915050565b6000819050919050565b620007458162000730565b81146200075157600080fd5b50565b60008151905062000765816200073a565b92915050565b600080600080608085870312156200078857620007876200059d565b5b600085015167ffffffffffffffff811115620007a957620007a8620005a2565b5b620007b787828801620006fd565b945050602085015167ffffffffffffffff811115620007db57620007da620005a2565b5b620007e987828801620006fd565b9350506040620007fc8782880162000754565b92505060606200080f8782880162000754565b91505092959194509250565b60008115159050919050565b62000832816200081b565b82525050565b60006020820190506200084f600083018462000827565b92915050565b600082825260208201905092915050565b7f494e56414c49445f414d4f554e54000000000000000000000000000000000000600082015250565b60006200089e600e8362000855565b9150620008ab8262000866565b602082019050919050565b60006020820190508181036000830152620008d1816200088f565b9050919050565b7f41444d494e5f4143434553535f52455155495245440000000000000000000000600082015250565b60006200091060158362000855565b91506200091d82620008d8565b602082019050919050565b60006020820190508181036000830152620009438162000901565b9050919050565b7f494e56414c49445f414444524553530000000000000000000000000000000000600082015250565b600062000982600f8362000855565b91506200098f826200094a565b602082019050919050565b60006020820190508181036000830152620009b58162000973565b9050919050565b7f4e487b7100000000000000000000000000000000000000000000000000000000600052601160045260246000fd5b6000620009f88262000730565b915062000a058362000730565b92508282101562000a1b5762000a1a620009bc565b5b828203905092915050565b7f45524332303a206d696e7420746f20746865207a65726f206164647265737300600082015250565b600062000a5e601f8362000855565b915062000a6b8262000a26565b602082019050919050565b6000602082019050818103600083015262000a918162000a4f565b9050919050565b600062000aa58262000730565b915062000ab28362000730565b9250827fffffffffffffffffffffffffffffffffffffffffffffffffffffffffffffffff0382111562000aea5762000ae9620009bc565b5b828201905092915050565b62000b008162000730565b82525050565b600060208201905062000b1d600083018462000af5565b92915050565b7f4e487b7100000000000000000000000000000000000000000000000000000000600052602260045260246000fd5b6000600282049050600182168062000b6b57607f821691505b60208210810362000b815762000b8062000b23565b5b50919050565b611b4b8062000b976000396000f3fe608060405234801561001057600080fd5b50600436106100f55760003560e01c806340c10f1911610097578063a457c2d711610066578063a457c2d71461029a578063a9059cbb146102ca578063cc5c095c146102fa578063dd62ed3e14610318576100f5565b806340c10f19146102145780634b0bddd21461023057806370a082311461024c57806395d89b411461027c576100f5565b806323b872dd116100d357806323b872dd1461016657806324d7806c14610196578063313ce567146101c657806339509351146101e4576100f5565b806306fdde03146100fa578063095ea7b31461011857806318160ddd14610148575b600080fd5b610102610348565b60405161010f91906111b6565b60405180910390f35b610132600480360381019061012d9190611271565b6103da565b60405161013f91906112cc565b60405180910390f35b6101506103fd565b60405161015d91906112f6565b60405180910390f35b610180600480360381019061017b9190611311565b610407565b60405161018d91906112cc565b60405180910390f35b6101b060048036038101906101ab9190611364565b610436565b6040516101bd91906112cc565b60405180910390f35b6101ce61048c565b6040516101db91906113ad565b60405180910390f35b6101fe60048036038101906101f99190611271565b610495565b60405161020b91906112cc565b60405180910390f35b61022e60048036038101906102299190611271565b61053f565b005b61024a600480360381019061024591906113f4565b6106b9565b005b61026660048036038101906102619190611364565b610864565b60405161027391906112f6565b60405180910390f35b6102846108ac565b60405161029191906111b6565b60405180910390f35b6102b460048036038101906102af9190611271565b61093e565b6040516102c191906112cc565b60405180910390f35b6102e460048036038101906102df9190611271565b610a28565b6040516102f191906112cc565b60405180910390f35b610302610a4b565b60405161030f91906112f6565b60405180910390f35b610332600480360381019061032d9190611434565b610a51565b60405161033f91906112f6565b60405180910390f35b606060038054610357906114a3565b80601f0160208091040260200160405190810160405280929190818152602001828054610383906114a3565b80156103d05780601f106103a5576101008083540402835291602001916103d0565b820191906000526020600020905b8154815290600101906020018083116103b357829003601f168201915b5050505050905090565b6000806103e5610ad8565b90506103f2818585610ae0565b600191505092915050565b6000600254905090565b600080610412610ad8565b905061041f858285610ca9565b61042a858585610d35565b60019150509392505050565b6000600560008373ffffffffffffffffffffffffffffffffffffffff1673ffffffffffffffffffffffffffffffffffffffff16815260200190815260200160002060009054906101000a900460ff169050919050565b60006012905090565b6000806104a0610ad8565b9050610534818585600160008673ffffffffffffffffffffffffffffffffffffffff1673ffffffffffffffffffffffffffffffffffffffff16815260200190815260200160002060008973ffffffffffffffffffffffffffffffffffffffff1673ffffffffffffffffffffffffffffffffffffffff1681526020019081526020016000205461052f9190611503565b610ae0565b600191505092915050565b6005600061054b610ad8565b73ffffffffffffffffffffffffffffffffffffffff1673ffffffffffffffffffffffffffffffffffffffff16815260200190815260200160002060009054906101000a900460ff166105d2576040517f08c379a00000000000000000000000000000000000000000000000000000000081526004016105c9906115a5565b60405180910390fd5b600073ffffffffffffffffffffffffffffffffffffffff168273ffffffffffffffffffffffffffffffffffffffff1603610641576040517f08c379a000000000000000000000000000000000000000000000000000000000815260040161063890611611565b60405180910390fd5b600060065411156106ab57600654811115610691576040517f08c379a00000000000000000000000000000000000000000000000000000000081526004016106889061167d565b60405180910390fd5b80600660008282546106a3919061169d565b925050819055505b6106b58282610fb4565b5050565b600560006106c5610ad8565b73ffffffffffffffffffffffffffffffffffffffff1673ffffffffffffffffffffffffffffffffffffffff16815260200190815260200160002060009054906101000a900460ff1661074c576040517f08c379a0000000000000000000000000000000000000000000000000000000008152600401610743906115a5565b60405180910390fd5b600073ffffffffffffffffffffffffffffffffffffffff168273ffffffffffffffffffffffffffffffffffffffff16036107bb576040517f08c379a00000000000000000000000000000000000000000000000000000000081526004016107b290611611565b60405180910390fd5b80600560008473ffffffffffffffffffffffffffffffffffffffff1673ffffffffffffffffffffffffffffffffffffffff16815260200190815260200160002060006101000a81548160ff0219169083151502179055508173ffffffffffffffffffffffffffffffffffffffff167fe529461c8529abc0e0fe7c5ee361f74fe22e0b7574df1fc0b7558a282091fb788260405161085891906112cc565b60405180910390a25050565b60008060008373ffffffffffffffffffffffffffffffffffffffff1673ffffffffffffffffffffffffffffffffffffffff168152602001908152602001600020549050919050565b6060600480546108bb906114a3565b80601f01602080910402602001604051908101604052809291908181526020018280546108e7906114a3565b80156109345780601f1061090957610100808354040283529160200191610934565b820191906000526020600020905b81548152906001019060200180831161091757829003601f168201915b5050505050905090565b600080610949610ad8565b90506000600160008373ffffffffffffffffffffffffffffffffffffffff1673ffffffffffffffffffffffffffffffffffffffff16815260200190815260200160002060008673ffffffffffffffffffffffffffffffffffffffff1673ffffffffffffffffffffffffffffffffffffffff16815260200190815260200160002054905083811015610a0f576040517f08c379a0000000000000000000000000000000000000000000000000000000008152600401610a0690611743565b60405180910390fd5b610a1c8286868403610ae0565b60019250505092915050565b600080610a33610ad8565b9050610a40818585610d35565b600191505092915050565b60065481565b6000600160008473ffffffffffffffffffffffffffffffffffffffff1673ffffffffffffffffffffffffffffffffffffffff16815260200190815260200160002060008373ffffffffffffffffffffffffffffffffffffffff1673ffffffffffffffffffffffffffffffffffffffff16815260200190815260200160002054905092915050565b600033905090565b600073ffffffffffffffffffffffffffffffffffffffff168373ffffffffffffffffffffffffffffffffffffffff1603610b4f576040517f08c379a0000000000000000000000000000000000000000000000000000000008152600401610b46906117d5565b60405180910390fd5b600073ffffffffffffffffffffffffffffffffffffffff168273ffffffffffffffffffffffffffffffffffffffff1603610bbe576040517f08c379a0000000000000000000000000000000000000000000000000000000008152600401610bb590611867565b60405180910390fd5b80600160008573ffffffffffffffffffffffffffffffffffffffff1673ffffffffffffffffffffffffffffffffffffffff16815260200190815260200160002060008473ffffffffffffffffffffffffffffffffffffffff1673ffffffffffffffffffffffffffffffffffffffff168152602001908152602001600020819055508173ffffffffffffffffffffffffffffffffffffffff168373ffffffffffffffffffffffffffffffffffffffff167f8c5be1e5ebec7d5bd14f71427d1e84f3dd0314c0f7b2291e5b200ac8c7c3b92583604051610c9c91906112f6565b60405180910390a3505050565b6000610cb58484610a51565b90507fffffffffffffffffffffffffffffffffffffffffffffffffffffffffffffffff8114610d2f5781811015610d21576040517f08c379a0000000000000000000000000000000000000000000000000000000008152600401610d18906118d3565b60405180910390fd5b610d2e8484848403610ae0565b5b50505050565b600073ffffffffffffffffffffffffffffffffffffffff168373ffffffffffffffffffffffffffffffffffffffff1603610da4576040517f08c379a0000000000000000000000000000000000000000000000000000000008152600401610d9b90611965565b60405180910390fd5b600073ffffffffffffffffffffffffffffffffffffffff168273ffffffffffffffffffffffffffffffffffffffff1603610e13576040517f08c379a0000000000000000000000000000000000000000000000000000000008152600401610e0a906119f7565b60405180910390fd5b610e1e838383611113565b60008060008573ffffffffffffffffffffffffffffffffffffffff1673ffffffffffffffffffffffffffffffffffffffff16815260200190815260200160002054905081811015610ea4576040517f08c379a0000000000000000000000000000000000000000000000000000000008152600401610e9b90611a89565b60405180910390fd5b8181036000808673ffffffffffffffffffffffffffffffffffffffff1673ffffffffffffffffffffffffffffffffffffffff16815260200190815260200160002081905550816000808573ffffffffffffffffffffffffffffffffffffffff1673ffffffffffffffffffffffffffffffffffffffff1681526020019081526020016000206000828254610f379190611503565b925050819055508273ffffffffffffffffffffffffffffffffffffffff168473ffffffffffffffffffffffffffffffffffffffff167fddf252ad1be2c89b69c2b068fc378daa952ba7f163c4a11628f55a4df523b3ef84604051610f9b91906112f6565b60405180910390a3610fae848484611118565b50505050565b600073ffffffffffffffffffffffffffffffffffffffff168273ffffffffffffffffffffffffffffffffffffffff1603611023576040517f08c379a000000000000000000000000000000000000000000000000000000000815260040161101a90611af5565b60405180910390fd5b61102f60008383611113565b80600260008282546110419190611503565b92505081905550806000808473ffffffffffffffffffffffffffffffffffffffff1673ffffffffffffffffffffffffffffffffffffffff16815260200190815260200160002060008282546110969190611503565b925050819055508173ffffffffffffffffffffffffffffffffffffffff16600073ffffffffffffffffffffffffffffffffffffffff167fddf252ad1be2c89b69c2b068fc378daa952ba7f163c4a11628f55a4df523b3ef836040516110fb91906112f6565b60405180910390a361110f60008383611118565b5050565b505050565b505050565b600081519050919050565b600082825260208201905092915050565b60005b8381101561115757808201518184015260208101905061113c565b83811115611166576000848401525b50505050565b6000601f19601f8301169050919050565b60006111888261111d565b6111928185611128565b93506111a2818560208601611139565b6111ab8161116c565b840191505092915050565b600060208201905081810360008301526111d0818461117d565b905092915050565b600080fd5b600073ffffffffffffffffffffffffffffffffffffffff82169050919050565b6000611208826111dd565b9050919050565b611218816111fd565b811461122357600080fd5b50565b6000813590506112358161120f565b92915050565b6000819050919050565b61124e8161123b565b811461125957600080fd5b50565b60008135905061126b81611245565b92915050565b60008060408385031215611288576112876111d8565b5b600061129685828601611226565b92505060206112a78582860161125c565b9150509250929050565b60008115159050919050565b6112c6816112b1565b82525050565b60006020820190506112e160008301846112bd565b92915050565b6112f08161123b565b82525050565b600060208201905061130b60008301846112e7565b92915050565b60008060006060848603121561132a576113296111d8565b5b600061133886828701611226565b935050602061134986828701611226565b925050604061135a8682870161125c565b9150509250925092565b60006020828403121561137a576113796111d8565b5b600061138884828501611226565b91505092915050565b600060ff82169050919050565b6113a781611391565b82525050565b60006020820190506113c2600083018461139e565b92915050565b6113d1816112b1565b81146113dc57600080fd5b50565b6000813590506113ee816113c8565b92915050565b6000806040838503121561140b5761140a6111d8565b5b600061141985828601611226565b925050602061142a858286016113df565b9150509250929050565b6000806040838503121561144b5761144a6111d8565b5b600061145985828601611226565b925050602061146a85828601611226565b9150509250929050565b7f4e487b7100000000000000000000000000000000000000000000000000000000600052602260045260246000fd5b600060028204905060018216806114bb57607f821691505b6020821081036114ce576114cd611474565b5b50919050565b7f4e487b7100000000000000000000000000000000000000000000000000000000600052601160045260246000fd5b600061150e8261123b565b91506115198361123b565b9250827fffffffffffffffffffffffffffffffffffffffffffffffffffffffffffffffff0382111561154e5761154d6114d4565b5b828201905092915050565b7f41444d494e5f4143434553535f52455155495245440000000000000000000000600082015250565b600061158f601583611128565b915061159a82611559565b602082019050919050565b600060208201905081810360008301526115be81611582565b9050919050565b7f494e56414c49445f414444524553530000000000000000000000000000000000600082015250565b60006115fb600f83611128565b9150611606826115c5565b602082019050919050565b6000602082019050818103600083015261162a816115ee565b9050919050565b7f494e56414c49445f414d4f554e54000000000000000000000000000000000000600082015250565b6000611667600e83611128565b915061167282611631565b602082019050919050565b600060208201905081810360008301526116968161165a565b9050919050565b60006116a88261123b565b91506116b38361123b565b9250828210156116c6576116c56114d4565b5b828203905092915050565b7f45524332303a2064656372656173656420616c6c6f77616e63652062656c6f7760008201527f207a65726f000000000000000000000000000000000000000000000000000000602082015250565b600061172d602583611128565b9150611738826116d1565b604082019050919050565b6000602082019050818103600083015261175c81611720565b9050919050565b7f45524332303a20617070726f76652066726f6d20746865207a65726f2061646460008201527f7265737300000000000000000000000000000000000000000000000000000000602082015250565b60006117bf602483611128565b91506117ca82611763565b604082019050919050565b600060208201905081810360008301526117ee816117b2565b9050919050565b7f45524332303a20617070726f766520746f20746865207a65726f20616464726560008201527f7373000000000000000000000000000000000000000000000000000000000000602082015250565b6000611851602283611128565b915061185c826117f5565b604082019050919050565b6000602082019050818103600083015261188081611844565b9050919050565b7f45524332303a20696e73756666696369656e7420616c6c6f77616e6365000000600082015250565b60006118bd601d83611128565b91506118c882611887565b602082019050919050565b600060208201905081810360008301526118ec816118b0565b9050919050565b7f45524332303a207472616e736665722066726f6d20746865207a65726f20616460008201527f6472657373000000000000000000000000000000000000000000000000000000602082015250565b600061194f602583611128565b915061195a826118f3565b604082019050919050565b6000602082019050818103600083015261197e81611942565b9050919050565b7f45524332303a207472616e7366657220746f20746865207a65726f206164647260008201527f6573730000000000000000000000000000000000000000000000000000000000602082015250565b60006119e1602383611128565b91506119ec82611985565b604082019050919050565b60006020820190508181036000830152611a10816119d4565b9050919050565b7f45524332303a207472616e7366657220616d6f756e742065786365656473206260008201527f616c616e63650000000000000000000000000000000000000000000000000000602082015250565b6000611a73602683611128565b9150611a7e82611a17565b604082019050919050565b60006020820190508181036000830152611aa281611a66565b9050919050565b7f45524332303a206d696e7420746f20746865207a65726f206164647265737300600082015250565b6000611adf601f83611128565b9150611aea82611aa9565b602082019050919050565b60006020820190508181036000830152611b0e81611ad2565b905091905056fea26469706673582212207cae263ddcf5b3190c14224678f7e18466499b1b3ac5fae76f4665a7989bdb5364736f6c634300080e0033",
  "linkReferences": {},
  "deployedLinkReferences": {}
}