{
  "_format": "hh-sol-artifact-1",
  "contractName": "VTVLVesting",
  "sourceName": "contracts/VTVLVesting.sol",
  "abi": [
    {
      "inputs": [
        {
          "internalType": "contract IERC20",
          "name": "_tokenAddress",
          "type": "address"
        }
      ],
      "stateMutability": "nonpayable",
      "type": "constructor"
    },
    {
      "anonymous": false,
      "inputs": [
        {
          "indexed": true,
          "internalType": "address",
          "name": "_admin",
          "type": "address"
        },
        {
          "indexed": false,
          "internalType": "bool",
          "name": "_enabled",
          "type": "bool"
        }
      ],
      "name": "AdminAccessSet",
      "type": "event"
    },
    {
      "anonymous": false,
      "inputs": [
        {
          "indexed": true,
          "internalType": "address",
          "name": "_recipient",
          "type": "address"
        },
        {
          "indexed": false,
          "internalType": "uint112",
          "name": "_amountRequested",
          "type": "uint112"
        }
      ],
      "name": "AdminWithdrawn",
      "type": "event"
    },
    {
      "anonymous": false,
      "inputs": [
        {
          "indexed": true,
          "internalType": "address",
          "name": "_recipient",
          "type": "address"
        },
        {
          "components": [
            {
              "internalType": "uint40",
              "name": "startTimestamp",
              "type": "uint40"
            },
            {
              "internalType": "uint40",
              "name": "endTimestamp",
              "type": "uint40"
            },
            {
              "internalType": "uint40",
              "name": "cliffReleaseTimestamp",
              "type": "uint40"
            },
            {
              "internalType": "uint40",
              "name": "releaseIntervalSecs",
              "type": "uint40"
            },
            {
              "internalType": "uint112",
              "name": "linearVestAmount",
              "type": "uint112"
            },
            {
              "internalType": "uint112",
              "name": "cliffAmount",
              "type": "uint112"
            },
            {
              "internalType": "uint112",
              "name": "amountWithdrawn",
              "type": "uint112"
            },
            {
              "internalType": "bool",
              "name": "isActive",
              "type": "bool"
            }
          ],
          "indexed": false,
          "internalType": "struct VTVLVesting.Claim",
          "name": "_claim",
          "type": "tuple"
        }
      ],
      "name": "ClaimCreated",
      "type": "event"
    },
    {
      "anonymous": false,
      "inputs": [
        {
          "indexed": true,
          "internalType": "address",
          "name": "_recipient",
          "type": "address"
        },
        {
          "indexed": false,
          "internalType": "uint112",
          "name": "_numTokensWithheld",
          "type": "uint112"
        },
        {
          "indexed": false,
          "internalType": "uint256",
          "name": "revocationTimestamp",
          "type": "uint256"
        },
        {
          "components": [
            {
              "internalType": "uint40",
              "name": "startTimestamp",
              "type": "uint40"
            },
            {
              "internalType": "uint40",
              "name": "endTimestamp",
              "type": "uint40"
            },
            {
              "internalType": "uint40",
              "name": "cliffReleaseTimestamp",
              "type": "uint40"
            },
            {
              "internalType": "uint40",
              "name": "releaseIntervalSecs",
              "type": "uint40"
            },
            {
              "internalType": "uint112",
              "name": "linearVestAmount",
              "type": "uint112"
            },
            {
              "internalType": "uint112",
              "name": "cliffAmount",
              "type": "uint112"
            },
            {
              "internalType": "uint112",
              "name": "amountWithdrawn",
              "type": "uint112"
            },
            {
              "internalType": "bool",
              "name": "isActive",
              "type": "bool"
            }
          ],
          "indexed": false,
          "internalType": "struct VTVLVesting.Claim",
          "name": "_claim",
          "type": "tuple"
        }
      ],
      "name": "ClaimRevoked",
      "type": "event"
    },
    {
      "anonymous": false,
      "inputs": [
        {
          "indexed": true,
          "internalType": "address",
          "name": "_recipient",
          "type": "address"
        },
        {
          "indexed": false,
          "internalType": "uint112",
          "name": "_withdrawalAmount",
          "type": "uint112"
        }
      ],
      "name": "Claimed",
      "type": "event"
    },
    {
      "inputs": [],
      "name": "allVestingRecipients",
      "outputs": [
        {
          "internalType": "address[]",
          "name": "",
          "type": "address[]"
        }
      ],
      "stateMutability": "view",
      "type": "function"
    },
    {
      "inputs": [
        {
          "internalType": "address",
          "name": "_recipient",
          "type": "address"
        }
      ],
      "name": "claimableAmount",
      "outputs": [
        {
          "internalType": "uint112",
          "name": "",
          "type": "uint112"
        }
      ],
      "stateMutability": "view",
      "type": "function"
    },
    {
      "inputs": [
        {
          "internalType": "address",
          "name": "_recipient",
          "type": "address"
        },
        {
          "internalType": "uint40",
          "name": "_startTimestamp",
          "type": "uint40"
        },
        {
          "internalType": "uint40",
          "name": "_endTimestamp",
          "type": "uint40"
        },
        {
          "internalType": "uint40",
          "name": "_cliffReleaseTimestamp",
          "type": "uint40"
        },
        {
          "internalType": "uint40",
          "name": "_releaseIntervalSecs",
          "type": "uint40"
        },
        {
          "internalType": "uint112",
          "name": "_linearVestAmount",
          "type": "uint112"
        },
        {
          "internalType": "uint112",
          "name": "_cliffAmount",
          "type": "uint112"
        }
      ],
      "name": "createClaim",
      "outputs": [],
      "stateMutability": "nonpayable",
      "type": "function"
    },
    {
      "inputs": [
        {
          "internalType": "address[]",
          "name": "_recipients",
          "type": "address[]"
        },
        {
          "internalType": "uint40[]",
          "name": "_startTimestamps",
          "type": "uint40[]"
        },
        {
          "internalType": "uint40[]",
          "name": "_endTimestamps",
          "type": "uint40[]"
        },
        {
          "internalType": "uint40[]",
          "name": "_cliffReleaseTimestamps",
          "type": "uint40[]"
        },
        {
          "internalType": "uint40[]",
          "name": "_releaseIntervalsSecs",
          "type": "uint40[]"
        },
        {
          "internalType": "uint112[]",
          "name": "_linearVestAmounts",
          "type": "uint112[]"
        },
        {
          "internalType": "uint112[]",
          "name": "_cliffAmounts",
          "type": "uint112[]"
        }
      ],
      "name": "createClaimsBatch",
      "outputs": [],
      "stateMutability": "nonpayable",
      "type": "function"
    },
    {
      "inputs": [
        {
          "internalType": "address",
          "name": "_recipient",
          "type": "address"
        }
      ],
      "name": "finalVestedAmount",
      "outputs": [
        {
          "internalType": "uint112",
          "name": "",
          "type": "uint112"
        }
      ],
      "stateMutability": "view",
      "type": "function"
    },
    {
      "inputs": [
        {
          "internalType": "address",
          "name": "_recipient",
          "type": "address"
        }
      ],
      "name": "getClaim",
      "outputs": [
        {
          "components": [
            {
              "internalType": "uint40",
              "name": "startTimestamp",
              "type": "uint40"
            },
            {
              "internalType": "uint40",
              "name": "endTimestamp",
              "type": "uint40"
            },
            {
              "internalType": "uint40",
              "name": "cliffReleaseTimestamp",
              "type": "uint40"
            },
            {
              "internalType": "uint40",
              "name": "releaseIntervalSecs",
              "type": "uint40"
            },
            {
              "internalType": "uint112",
              "name": "linearVestAmount",
              "type": "uint112"
            },
            {
              "internalType": "uint112",
              "name": "cliffAmount",
              "type": "uint112"
            },
            {
              "internalType": "uint112",
              "name": "amountWithdrawn",
              "type": "uint112"
            },
            {
              "internalType": "bool",
              "name": "isActive",
              "type": "bool"
            }
          ],
          "internalType": "struct VTVLVesting.Claim",
          "name": "",
          "type": "tuple"
        }
      ],
      "stateMutability": "view",
      "type": "function"
    },
    {
      "inputs": [
        {
          "internalType": "address",
          "name": "_addressToCheck",
          "type": "address"
        }
      ],
      "name": "isAdmin",
      "outputs": [
        {
          "internalType": "bool",
          "name": "",
          "type": "bool"
        }
      ],
      "stateMutability": "view",
      "type": "function"
    },
    {
      "inputs": [],
      "name": "numTokensReservedForVesting",
      "outputs": [
        {
          "internalType": "uint112",
          "name": "",
          "type": "uint112"
        }
      ],
      "stateMutability": "view",
      "type": "function"
    },
    {
      "inputs": [],
      "name": "numVestingRecipients",
      "outputs": [
        {
          "internalType": "uint256",
          "name": "",
          "type": "uint256"
        }
      ],
      "stateMutability": "view",
      "type": "function"
    },
    {
      "inputs": [
        {
          "internalType": "address",
          "name": "_recipient",
          "type": "address"
        }
      ],
      "name": "revokeClaim",
      "outputs": [],
      "stateMutability": "nonpayable",
      "type": "function"
    },
    {
      "inputs": [
        {
          "internalType": "address",
          "name": "admin",
          "type": "address"
        },
        {
          "internalType": "bool",
          "name": "isEnabled",
          "type": "bool"
        }
      ],
      "name": "setAdmin",
      "outputs": [],
      "stateMutability": "nonpayable",
      "type": "function"
    },
    {
      "inputs": [],
      "name": "tokenAddress",
      "outputs": [
        {
          "internalType": "contract IERC20",
          "name": "",
          "type": "address"
        }
      ],
      "stateMutability": "view",
      "type": "function"
    },
    {
      "inputs": [
        {
          "internalType": "address",
          "name": "_recipient",
          "type": "address"
        },
        {
          "internalType": "uint40",
          "name": "_referenceTs",
          "type": "uint40"
        }
      ],
      "name": "vestedAmount",
      "outputs": [
        {
          "internalType": "uint112",
          "name": "",
          "type": "uint112"
        }
      ],
      "stateMutability": "view",
      "type": "function"
    },
    {
      "inputs": [],
      "name": "withdraw",
      "outputs": [],
      "stateMutability": "nonpayable",
      "type": "function"
    },
    {
      "inputs": [
        {
          "internalType": "uint112",
          "name": "_amountRequested",
          "type": "uint112"
        }
      ],
      "name": "withdrawAdmin",
      "outputs": [],
      "stateMutability": "nonpayable",
      "type": "function"
    },
    {
      "inputs": [
        {
          "internalType": "contract IERC20",
          "name": "_otherTokenAddress",
          "type": "address"
        }
      ],
      "name": "withdrawOtherToken",
      "outputs": [],
      "stateMutability": "nonpayable",
      "type": "function"
    }
  ],
  "bytecode": "0x60a06040526000600160006101000a8154816dffffffffffffffffffffffffffff02191690836dffffffffffffffffffffffffffff1602179055503480156200004757600080fd5b50604051620045e1380380620045e183398181016040528101906200006d919062000266565b600160008062000082620001e060201b60201c565b73ffffffffffffffffffffffffffffffffffffffff1673ffffffffffffffffffffffffffffffffffffffff16815260200190815260200160002060006101000a81548160ff021916908315150217905550620000e3620001e060201b60201c565b73ffffffffffffffffffffffffffffffffffffffff167fe529461c8529abc0e0fe7c5ee361f74fe22e0b7574df1fc0b7558a282091fb7860016040516200012b9190620002b5565b60405180910390a2600073ffffffffffffffffffffffffffffffffffffffff168173ffffffffffffffffffffffffffffffffffffffff1603620001a5576040517f08c379a00000000000000000000000000000000000000000000000000000000081526004016200019c9062000333565b60405180910390fd5b8073ffffffffffffffffffffffffffffffffffffffff1660808173ffffffffffffffffffffffffffffffffffffffff16815250505062000355565b600033905090565b600080fd5b600073ffffffffffffffffffffffffffffffffffffffff82169050919050565b60006200021a82620001ed565b9050919050565b60006200022e826200020d565b9050919050565b620002408162000221565b81146200024c57600080fd5b50565b600081519050620002608162000235565b92915050565b6000602082840312156200027f576200027e620001e8565b5b60006200028f848285016200024f565b91505092915050565b60008115159050919050565b620002af8162000298565b82525050565b6000602082019050620002cc6000830184620002a4565b92915050565b600082825260208201905092915050565b7f494e56414c49445f414444524553530000000000000000000000000000000000600082015250565b60006200031b600f83620002d2565b91506200032882620002e3565b602082019050919050565b600060208201905081810360008301526200034e816200030c565b9050919050565b60805161424d62000394600039600081816109e9015281816113550152818161163f0152818161175401528181611885015261221b015261424d6000f3fe608060405234801561001057600080fd5b50600436106101005760003560e01c80637197dec311610097578063ae9741aa11610066578063ae9741aa1461029b578063b3a026b1146102b7578063e50373f9146102d3578063ed83a4b2146102ef57610100565b80637197dec314610213578063852e72e914610231578063898850491461024d5780639d76ea581461027d57610100565b80633ccfd60b116100d35780633ccfd60b1461018d5780634a0e701e146101975780634b0bddd2146101c75780634cd3723a146101e357610100565b80630216ee4114610105578063137c68fa14610121578063241c5b1f1461013f57806324d7806c1461015d575b600080fd5b61011f600480360381019061011a9190612949565b61031f565b005b61012961067e565b604051610136919061299f565b60405180910390f35b61014761069e565b60405161015491906129d3565b60405180910390f35b61017760048036038101906101729190612949565b6106ab565b6040516101849190612a09565b60405180910390f35b610195610700565b005b6101b160048036038101906101ac9190612a61565b610a89565b6040516101be919061299f565b60405180910390f35b6101e160048036038101906101dc9190612acd565b610c77565b005b6101fd60048036038101906101f89190612949565b610e20565b60405161020a9190612bdc565b60405180910390f35b61021b611005565b6040516102289190612cb6565b60405180910390f35b61024b60048036038101906102469190612d04565b611093565b005b61026760048036038101906102629190612949565b61113d565b604051610274919061299f565b60405180910390f35b610285611353565b6040516102929190612e05565b60405180910390f35b6102b560048036038101906102b091906130ff565b611377565b005b6102d160048036038101906102cc9190613265565b61157c565b005b6102ed60048036038101906102e891906132d0565b6117f1565b005b61030960048036038101906103049190612949565b611a08565b604051610316919061299f565b60405180910390f35b60008061032a611c0a565b73ffffffffffffffffffffffffffffffffffffffff1673ffffffffffffffffffffffffffffffffffffffff16815260200190815260200160002060009054906101000a900460ff166103b1576040517f08c379a00000000000000000000000000000000000000000000000000000000081526004016103a89061335a565b60405180910390fd5b806000600260008373ffffffffffffffffffffffffffffffffffffffff1673ffffffffffffffffffffffffffffffffffffffff168152602001908152602001600020905060008160000160009054906101000a900464ffffffffff1664ffffffffff1611610454576040517f08c379a000000000000000000000000000000000000000000000000000000000815260040161044b906133c6565b60405180910390fd5b6001151581600201600e9054906101000a900460ff161515146104ac576040517f08c379a00000000000000000000000000000000000000000000000000000000081526004016104a3906133c6565b60405180910390fd5b6000600260008573ffffffffffffffffffffffffffffffffffffffff1673ffffffffffffffffffffffffffffffffffffffff168152602001908152602001600020905060006104fa85611a08565b9050806dffffffffffffffffffffffffffff168260020160009054906101000a90046dffffffffffffffffffffffffffff166dffffffffffffffffffffffffffff161061057c576040517f08c379a000000000000000000000000000000000000000000000000000000000815260040161057390613432565b60405180910390fd5b60008260020160009054906101000a90046dffffffffffffffffffffffffffff16826105a89190613481565b9050600083600201600e6101000a81548160ff02191690831515021790555080600160008282829054906101000a90046dffffffffffffffffffffffffffff166105f29190613481565b92506101000a8154816dffffffffffffffffffffffffffff02191690836dffffffffffffffffffffffffffff1602179055508573ffffffffffffffffffffffffffffffffffffffff167f33dd3909387f8e5a36be260ddd69080def445805af1761f8bdf809f81658be5782428660405161066e939291906136ee565b60405180910390a2505050505050565b600160009054906101000a90046dffffffffffffffffffffffffffff1681565b6000600380549050905090565b60008060008373ffffffffffffffffffffffffffffffffffffffff1673ffffffffffffffffffffffffffffffffffffffff16815260200190815260200160002060009054906101000a900460ff169050919050565b610708611c0a565b6000600260008373ffffffffffffffffffffffffffffffffffffffff1673ffffffffffffffffffffffffffffffffffffffff168152602001908152602001600020905060008160000160009054906101000a900464ffffffffff1664ffffffffff16116107aa576040517f08c379a00000000000000000000000000000000000000000000000000000000081526004016107a1906133c6565b60405180910390fd5b6001151581600201600e9054906101000a900460ff16151514610802576040517f08c379a00000000000000000000000000000000000000000000000000000000081526004016107f9906133c6565b60405180910390fd5b600060026000610810611c0a565b73ffffffffffffffffffffffffffffffffffffffff1673ffffffffffffffffffffffffffffffffffffffff1681526020019081526020016000209050600061085f610859611c0a565b42610a89565b90508160020160009054906101000a90046dffffffffffffffffffffffffffff166dffffffffffffffffffffffffffff16816dffffffffffffffffffffffffffff16116108e1576040517f08c379a00000000000000000000000000000000000000000000000000000000081526004016108d890613772565b60405180910390fd5b60008260020160009054906101000a90046dffffffffffffffffffffffffffff168261090d9190613481565b9050808360020160008282829054906101000a90046dffffffffffffffffffffffffffff1661093c9190613792565b92506101000a8154816dffffffffffffffffffffffffffff02191690836dffffffffffffffffffffffffffff16021790555080600160008282829054906101000a90046dffffffffffffffffffffffffffff166109999190613481565b92506101000a8154816dffffffffffffffffffffffffffff02191690836dffffffffffffffffffffffffffff160217905550610a2d6109d6611c0a565b826dffffffffffffffffffffffffffff167f000000000000000000000000000000000000000000000000000000000000000073ffffffffffffffffffffffffffffffffffffffff16611c129092919063ffffffff16565b610a35611c0a565b73ffffffffffffffffffffffffffffffffffffffff167f27febd2ce374435f33b4d2a794a201df2f20a352431a123b1bb385fe6a0e073082604051610a7a919061299f565b60405180910390a25050505050565b600080600260008573ffffffffffffffffffffffffffffffffffffffff1673ffffffffffffffffffffffffffffffffffffffff1681526020019081526020016000209050610c6e81604051806101000160405290816000820160009054906101000a900464ffffffffff1664ffffffffff1664ffffffffff1681526020016000820160059054906101000a900464ffffffffff1664ffffffffff1664ffffffffff16815260200160008201600a9054906101000a900464ffffffffff1664ffffffffff1664ffffffffff16815260200160008201600f9054906101000a900464ffffffffff1664ffffffffff1664ffffffffff1681526020016001820160009054906101000a90046dffffffffffffffffffffffffffff166dffffffffffffffffffffffffffff166dffffffffffffffffffffffffffff16815260200160018201600e9054906101000a90046dffffffffffffffffffffffffffff166dffffffffffffffffffffffffffff166dffffffffffffffffffffffffffff1681526020016002820160009054906101000a90046dffffffffffffffffffffffffffff166dffffffffffffffffffffffffffff166dffffffffffffffffffffffffffff16815260200160028201600e9054906101000a900460ff16151515158152505084611c98565b91505092915050565b600080610c82611c0a565b73ffffffffffffffffffffffffffffffffffffffff1673ffffffffffffffffffffffffffffffffffffffff16815260200190815260200160002060009054906101000a900460ff16610d09576040517f08c379a0000000000000000000000000000000000000000000000000000000008152600401610d009061335a565b60405180910390fd5b600073ffffffffffffffffffffffffffffffffffffffff168273ffffffffffffffffffffffffffffffffffffffff1603610d78576040517f08c379a0000000000000000000000000000000000000000000000000000000008152600401610d6f90613822565b60405180910390fd5b806000808473ffffffffffffffffffffffffffffffffffffffff1673ffffffffffffffffffffffffffffffffffffffff16815260200190815260200160002060006101000a81548160ff0219169083151502179055508173ffffffffffffffffffffffffffffffffffffffff167fe529461c8529abc0e0fe7c5ee361f74fe22e0b7574df1fc0b7558a282091fb7882604051610e149190612a09565b60405180910390a25050565b610e28612844565b600260008373ffffffffffffffffffffffffffffffffffffffff1673ffffffffffffffffffffffffffffffffffffffff168152602001908152602001600020604051806101000160405290816000820160009054906101000a900464ffffffffff1664ffffffffff1664ffffffffff1681526020016000820160059054906101000a900464ffffffffff1664ffffffffff1664ffffffffff16815260200160008201600a9054906101000a900464ffffffffff1664ffffffffff1664ffffffffff16815260200160008201600f9054906101000a900464ffffffffff1664ffffffffff1664ffffffffff1681526020016001820160009054906101000a90046dffffffffffffffffffffffffffff166dffffffffffffffffffffffffffff166dffffffffffffffffffffffffffff16815260200160018201600e9054906101000a90046dffffffffffffffffffffffffffff166dffffffffffffffffffffffffffff166dffffffffffffffffffffffffffff1681526020016002820160009054906101000a90046dffffffffffffffffffffffffffff166dffffffffffffffffffffffffffff166dffffffffffffffffffffffffffff16815260200160028201600e9054906101000a900460ff1615151515815250509050919050565b6060600380548060200260200160405190810160405280929190818152602001828054801561108957602002820191906000526020600020905b8160009054906101000a900473ffffffffffffffffffffffffffffffffffffffff1673ffffffffffffffffffffffffffffffffffffffff168152602001906001019080831161103f575b5050505050905090565b60008061109e611c0a565b73ffffffffffffffffffffffffffffffffffffffff1673ffffffffffffffffffffffffffffffffffffffff16815260200190815260200160002060009054906101000a900460ff16611125576040517f08c379a000000000000000000000000000000000000000000000000000000000815260040161111c9061335a565b60405180910390fd5b61113487878787878787611de1565b50505050505050565b600080600260008473ffffffffffffffffffffffffffffffffffffffff1673ffffffffffffffffffffffffffffffffffffffff16815260200190815260200160002090508060020160009054906101000a90046dffffffffffffffffffffffffffff1661134182604051806101000160405290816000820160009054906101000a900464ffffffffff1664ffffffffff1664ffffffffff1681526020016000820160059054906101000a900464ffffffffff1664ffffffffff1664ffffffffff16815260200160008201600a9054906101000a900464ffffffffff1664ffffffffff1664ffffffffff16815260200160008201600f9054906101000a900464ffffffffff1664ffffffffff1664ffffffffff1681526020016001820160009054906101000a90046dffffffffffffffffffffffffffff166dffffffffffffffffffffffffffff166dffffffffffffffffffffffffffff16815260200160018201600e9054906101000a90046dffffffffffffffffffffffffffff166dffffffffffffffffffffffffffff166dffffffffffffffffffffffffffff1681526020016002820160009054906101000a90046dffffffffffffffffffffffffffff166dffffffffffffffffffffffffffff166dffffffffffffffffffffffffffff16815260200160028201600e9054906101000a900460ff16151515158152505042611c98565b61134b9190613481565b915050919050565b7f000000000000000000000000000000000000000000000000000000000000000081565b600080611382611c0a565b73ffffffffffffffffffffffffffffffffffffffff1673ffffffffffffffffffffffffffffffffffffffff16815260200190815260200160002060009054906101000a900460ff16611409576040517f08c379a00000000000000000000000000000000000000000000000000000000081526004016114009061335a565b60405180910390fd5b60008751905080875114801561141f5750808651145b801561142b5750808551145b80156114375750808451145b80156114435750808351145b801561144f5750808251145b61148e576040517f08c379a00000000000000000000000000000000000000000000000000000000081526004016114859061388e565b60405180910390fd5b60005b818110156115715761155e8982815181106114af576114ae6138ae565b5b60200260200101518983815181106114ca576114c96138ae565b5b60200260200101518984815181106114e5576114e46138ae565b5b6020026020010151898581518110611500576114ff6138ae565b5b602002602001015189868151811061151b5761151a6138ae565b5b6020026020010151898781518110611536576115356138ae565b5b6020026020010151898881518110611551576115506138ae565b5b6020026020010151611de1565b8080611569906138dd565b915050611491565b505050505050505050565b600080611587611c0a565b73ffffffffffffffffffffffffffffffffffffffff1673ffffffffffffffffffffffffffffffffffffffff16815260200190815260200160002060009054906101000a900460ff1661160e576040517f08c379a00000000000000000000000000000000000000000000000000000000081526004016116059061335a565b60405180910390fd5b6000600160009054906101000a90046dffffffffffffffffffffffffffff166dffffffffffffffffffffffffffff167f000000000000000000000000000000000000000000000000000000000000000073ffffffffffffffffffffffffffffffffffffffff166370a08231306040518263ffffffff1660e01b81526004016116969190613934565b602060405180830381865afa1580156116b3573d6000803e3d6000fd5b505050506040513d601f19601f820116820180604052508101906116d7919061397b565b6116e191906139a8565b9050816dffffffffffffffffffffffffffff16811015611736576040517f08c379a000000000000000000000000000000000000000000000000000000000815260040161172d90613a28565b60405180910390fd5b611798611741611c0a565b836dffffffffffffffffffffffffffff167f000000000000000000000000000000000000000000000000000000000000000073ffffffffffffffffffffffffffffffffffffffff16611c129092919063ffffffff16565b6117a0611c0a565b73ffffffffffffffffffffffffffffffffffffffff167ff0b3e02cc573c93409e1425c1f06bd1b3f25701c587835b3af2d2bb6f7589429836040516117e5919061299f565b60405180910390a25050565b6000806117fc611c0a565b73ffffffffffffffffffffffffffffffffffffffff1673ffffffffffffffffffffffffffffffffffffffff16815260200190815260200160002060009054906101000a900460ff16611883576040517f08c379a000000000000000000000000000000000000000000000000000000000815260040161187a9061335a565b60405180910390fd5b7f000000000000000000000000000000000000000000000000000000000000000073ffffffffffffffffffffffffffffffffffffffff168173ffffffffffffffffffffffffffffffffffffffff1603611911576040517f08c379a000000000000000000000000000000000000000000000000000000000815260040161190890613a94565b60405180910390fd5b60008173ffffffffffffffffffffffffffffffffffffffff166370a08231306040518263ffffffff1660e01b815260040161194c9190613934565b602060405180830381865afa158015611969573d6000803e3d6000fd5b505050506040513d601f19601f8201168201806040525081019061198d919061397b565b9050600081116119d2576040517f08c379a00000000000000000000000000000000000000000000000000000000081526004016119c990613a28565b60405180910390fd5b611a046119dd611c0a565b828473ffffffffffffffffffffffffffffffffffffffff16611c129092919063ffffffff16565b5050565b600080600260008473ffffffffffffffffffffffffffffffffffffffff1673ffffffffffffffffffffffffffffffffffffffff1681526020019081526020016000209050611c0281604051806101000160405290816000820160009054906101000a900464ffffffffff1664ffffffffff1664ffffffffff1681526020016000820160059054906101000a900464ffffffffff1664ffffffffff1664ffffffffff16815260200160008201600a9054906101000a900464ffffffffff1664ffffffffff1664ffffffffff16815260200160008201600f9054906101000a900464ffffffffff1664ffffffffff1664ffffffffff1681526020016001820160009054906101000a90046dffffffffffffffffffffffffffff166dffffffffffffffffffffffffffff166dffffffffffffffffffffffffffff16815260200160018201600e9054906101000a90046dffffffffffffffffffffffffffff166dffffffffffffffffffffffffffff166dffffffffffffffffffffffffffff1681526020016002820160009054906101000a90046dffffffffffffffffffffffffffff166dffffffffffffffffffffffffffff166dffffffffffffffffffffffffffff16815260200160028201600e9054906101000a900460ff1615151515815250508260000160059054906101000a900464ffffffffff16611c98565b915050919050565b600033905090565b611c938363a9059cbb60e01b8484604051602401611c31929190613ab4565b604051602081830303815290604052907bffffffffffffffffffffffffffffffffffffffffffffffffffffffff19166020820180517bffffffffffffffffffffffffffffffffffffffffffffffffffffffff83818316178352505050506125c7565b505050565b600080600090508360e0015115611da157836020015164ffffffffff168364ffffffffff161115611ccb57836020015192505b836040015164ffffffffff168364ffffffffff1610611cf7578360a0015181611cf49190613792565b90505b836000015164ffffffffff168364ffffffffff161115611da0576000846000015184611d239190613add565b905060008560600151866060015183611d3c9190613b40565b611d469190613b71565b9050600086600001518760200151611d5e9190613add565b905060008164ffffffffff168364ffffffffff168960800151611d819190613bb0565b611d8b9190613bf8565b90508085611d999190613792565b9450505050505b5b8360c001516dffffffffffffffffffffffffffff16816dffffffffffffffffffffffffffff1611611dd6578360c00151611dd8565b805b91505092915050565b866000600260008373ffffffffffffffffffffffffffffffffffffffff1673ffffffffffffffffffffffffffffffffffffffff168152602001908152602001600020905060008160000160009054906101000a900464ffffffffff1664ffffffffff1614611e84576040517f08c379a0000000000000000000000000000000000000000000000000000000008152600401611e7b90613c75565b60405180910390fd5b600073ffffffffffffffffffffffffffffffffffffffff168973ffffffffffffffffffffffffffffffffffffffff1603611ef3576040517f08c379a0000000000000000000000000000000000000000000000000000000008152600401611eea90613822565b60405180910390fd5b60008385611f019190613792565b6dffffffffffffffffffffffffffff1611611f51576040517f08c379a0000000000000000000000000000000000000000000000000000000008152600401611f4890613ce1565b60405180910390fd5b60008864ffffffffff1611611f9b576040517f08c379a0000000000000000000000000000000000000000000000000000000008152600401611f9290613d4d565b60405180910390fd5b8664ffffffffff168864ffffffffff1610611feb576040517f08c379a0000000000000000000000000000000000000000000000000000000008152600401611fe290613db9565b60405180910390fd5b60008564ffffffffff1611612035576040517f08c379a000000000000000000000000000000000000000000000000000000000815260040161202c90613e25565b60405180910390fd5b60008589896120449190613add565b61204e9190613e45565b64ffffffffff1614612095576040517f08c379a000000000000000000000000000000000000000000000000000000000815260040161208c90613ec2565b60405180910390fd5b60008664ffffffffff161180156120bc57506000836dffffffffffffffffffffffffffff16115b80156120d657508764ffffffffff168664ffffffffff1611155b80612104575060008664ffffffffff1614801561210357506000836dffffffffffffffffffffffffffff16145b5b612143576040517f08c379a000000000000000000000000000000000000000000000000000000000815260040161213a90613f2e565b60405180910390fd5b60006040518061010001604052808a64ffffffffff1681526020018964ffffffffff1681526020018864ffffffffff1681526020018764ffffffffff168152602001866dffffffffffffffffffffffffffff168152602001856dffffffffffffffffffffffffffff16815260200160006dffffffffffffffffffffffffffff168152602001600115158152509050600085856121df9190613792565b905080600160009054906101000a90046dffffffffffffffffffffffffffff166122099190613792565b6dffffffffffffffffffffffffffff167f000000000000000000000000000000000000000000000000000000000000000073ffffffffffffffffffffffffffffffffffffffff166370a08231306040518263ffffffff1660e01b81526004016122729190613934565b602060405180830381865afa15801561228f573d6000803e3d6000fd5b505050506040513d601f19601f820116820180604052508101906122b3919061397b565b10156122f4576040517f08c379a00000000000000000000000000000000000000000000000000000000081526004016122eb90613a28565b60405180910390fd5b81600260008d73ffffffffffffffffffffffffffffffffffffffff1673ffffffffffffffffffffffffffffffffffffffff16815260200190815260200160002060008201518160000160006101000a81548164ffffffffff021916908364ffffffffff16021790555060208201518160000160056101000a81548164ffffffffff021916908364ffffffffff160217905550604082015181600001600a6101000a81548164ffffffffff021916908364ffffffffff160217905550606082015181600001600f6101000a81548164ffffffffff021916908364ffffffffff16021790555060808201518160010160006101000a8154816dffffffffffffffffffffffffffff02191690836dffffffffffffffffffffffffffff16021790555060a082015181600101600e6101000a8154816dffffffffffffffffffffffffffff02191690836dffffffffffffffffffffffffffff16021790555060c08201518160020160006101000a8154816dffffffffffffffffffffffffffff02191690836dffffffffffffffffffffffffffff16021790555060e082015181600201600e6101000a81548160ff02191690831515021790555090505080600160008282829054906101000a90046dffffffffffffffffffffffffffff166124d79190613792565b92506101000a8154816dffffffffffffffffffffffffffff02191690836dffffffffffffffffffffffffffff16021790555060038b9080600181540180825580915050600190039060005260206000200160009091909190916101000a81548173ffffffffffffffffffffffffffffffffffffffff021916908373ffffffffffffffffffffffffffffffffffffffff1602179055508a73ffffffffffffffffffffffffffffffffffffffff167f4e79c332b2ee19f0319021953d9dff3b084e37b4ccff045cef74fc22572f4730836040516125b29190612bdc565b60405180910390a25050505050505050505050565b6000612629826040518060400160405280602081526020017f5361666545524332303a206c6f772d6c6576656c2063616c6c206661696c65648152508573ffffffffffffffffffffffffffffffffffffffff1661268e9092919063ffffffff16565b905060008151111561268957808060200190518101906126499190613f63565b612688576040517f08c379a000000000000000000000000000000000000000000000000000000000815260040161267f90614002565b60405180910390fd5b5b505050565b606061269d84846000856126a6565b90509392505050565b6060824710156126eb576040517f08c379a00000000000000000000000000000000000000000000000000000000081526004016126e290614094565b60405180910390fd5b6126f4856127ba565b612733576040517f08c379a000000000000000000000000000000000000000000000000000000000815260040161272a90614100565b60405180910390fd5b6000808673ffffffffffffffffffffffffffffffffffffffff16858760405161275c919061419a565b60006040518083038185875af1925050503d8060008114612799576040519150601f19603f3d011682016040523d82523d6000602084013e61279e565b606091505b50915091506127ae8282866127dd565b92505050949350505050565b6000808273ffffffffffffffffffffffffffffffffffffffff163b119050919050565b606083156127ed5782905061283d565b6000835111156128005782518084602001fd5b816040517f08c379a000000000000000000000000000000000000000000000000000000000815260040161283491906141f5565b60405180910390fd5b9392505050565b604051806101000160405280600064ffffffffff168152602001600064ffffffffff168152602001600064ffffffffff168152602001600064ffffffffff16815260200160006dffffffffffffffffffffffffffff16815260200160006dffffffffffffffffffffffffffff16815260200160006dffffffffffffffffffffffffffff1681526020016000151581525090565b6000604051905090565b600080fd5b600080fd5b600073ffffffffffffffffffffffffffffffffffffffff82169050919050565b6000612916826128eb565b9050919050565b6129268161290b565b811461293157600080fd5b50565b6000813590506129438161291d565b92915050565b60006020828403121561295f5761295e6128e1565b5b600061296d84828501612934565b91505092915050565b60006dffffffffffffffffffffffffffff82169050919050565b61299981612976565b82525050565b60006020820190506129b46000830184612990565b92915050565b6000819050919050565b6129cd816129ba565b82525050565b60006020820190506129e860008301846129c4565b92915050565b60008115159050919050565b612a03816129ee565b82525050565b6000602082019050612a1e60008301846129fa565b92915050565b600064ffffffffff82169050919050565b612a3e81612a24565b8114612a4957600080fd5b50565b600081359050612a5b81612a35565b92915050565b60008060408385031215612a7857612a776128e1565b5b6000612a8685828601612934565b9250506020612a9785828601612a4c565b9150509250929050565b612aaa816129ee565b8114612ab557600080fd5b50565b600081359050612ac781612aa1565b92915050565b60008060408385031215612ae457612ae36128e1565b5b6000612af285828601612934565b9250506020612b0385828601612ab8565b9150509250929050565b612b1681612a24565b82525050565b612b2581612976565b82525050565b612b34816129ee565b82525050565b61010082016000820151612b516000850182612b0d565b506020820151612b646020850182612b0d565b506040820151612b776040850182612b0d565b506060820151612b8a6060850182612b0d565b506080820151612b9d6080850182612b1c565b5060a0820151612bb060a0850182612b1c565b5060c0820151612bc360c0850182612b1c565b5060e0820151612bd660e0850182612b2b565b50505050565b600061010082019050612bf26000830184612b3a565b92915050565b600081519050919050565b600082825260208201905092915050565b6000819050602082019050919050565b612c2d8161290b565b82525050565b6000612c3f8383612c24565b60208301905092915050565b6000602082019050919050565b6000612c6382612bf8565b612c6d8185612c03565b9350612c7883612c14565b8060005b83811015612ca9578151612c908882612c33565b9750612c9b83612c4b565b925050600181019050612c7c565b5085935050505092915050565b60006020820190508181036000830152612cd08184612c58565b905092915050565b612ce181612976565b8114612cec57600080fd5b50565b600081359050612cfe81612cd8565b92915050565b600080600080600080600060e0888a031215612d2357612d226128e1565b5b6000612d318a828b01612934565b9750506020612d428a828b01612a4c565b9650506040612d538a828b01612a4c565b9550506060612d648a828b01612a4c565b9450506080612d758a828b01612a4c565b93505060a0612d868a828b01612cef565b92505060c0612d978a828b01612cef565b91505092959891949750929550565b6000819050919050565b6000612dcb612dc6612dc1846128eb565b612da6565b6128eb565b9050919050565b6000612ddd82612db0565b9050919050565b6000612def82612dd2565b9050919050565b612dff81612de4565b82525050565b6000602082019050612e1a6000830184612df6565b92915050565b600080fd5b6000601f19601f8301169050919050565b7f4e487b7100000000000000000000000000000000000000000000000000000000600052604160045260246000fd5b612e6e82612e25565b810181811067ffffffffffffffff82111715612e8d57612e8c612e36565b5b80604052505050565b6000612ea06128d7565b9050612eac8282612e65565b919050565b600067ffffffffffffffff821115612ecc57612ecb612e36565b5b602082029050602081019050919050565b600080fd5b6000612ef5612ef084612eb1565b612e96565b90508083825260208201905060208402830185811115612f1857612f17612edd565b5b835b81811015612f415780612f2d8882612934565b845260208401935050602081019050612f1a565b5050509392505050565b600082601f830112612f6057612f5f612e20565b5b8135612f70848260208601612ee2565b91505092915050565b600067ffffffffffffffff821115612f9457612f93612e36565b5b602082029050602081019050919050565b6000612fb8612fb384612f79565b612e96565b90508083825260208201905060208402830185811115612fdb57612fda612edd565b5b835b818110156130045780612ff08882612a4c565b845260208401935050602081019050612fdd565b5050509392505050565b600082601f83011261302357613022612e20565b5b8135613033848260208601612fa5565b91505092915050565b600067ffffffffffffffff82111561305757613056612e36565b5b602082029050602081019050919050565b600061307b6130768461303c565b612e96565b9050808382526020820190506020840283018581111561309e5761309d612edd565b5b835b818110156130c757806130b38882612cef565b8452602084019350506020810190506130a0565b5050509392505050565b600082601f8301126130e6576130e5612e20565b5b81356130f6848260208601613068565b91505092915050565b600080600080600080600060e0888a03121561311e5761311d6128e1565b5b600088013567ffffffffffffffff81111561313c5761313b6128e6565b5b6131488a828b01612f4b565b975050602088013567ffffffffffffffff811115613169576131686128e6565b5b6131758a828b0161300e565b965050604088013567ffffffffffffffff811115613196576131956128e6565b5b6131a28a828b0161300e565b955050606088013567ffffffffffffffff8111156131c3576131c26128e6565b5b6131cf8a828b0161300e565b945050608088013567ffffffffffffffff8111156131f0576131ef6128e6565b5b6131fc8a828b0161300e565b93505060a088013567ffffffffffffffff81111561321d5761321c6128e6565b5b6132298a828b016130d1565b92505060c088013567ffffffffffffffff81111561324a576132496128e6565b5b6132568a828b016130d1565b91505092959891949750929550565b60006020828403121561327b5761327a6128e1565b5b600061328984828501612cef565b91505092915050565b600061329d8261290b565b9050919050565b6132ad81613292565b81146132b857600080fd5b50565b6000813590506132ca816132a4565b92915050565b6000602082840312156132e6576132e56128e1565b5b60006132f4848285016132bb565b91505092915050565b600082825260208201905092915050565b7f41444d494e5f4143434553535f52455155495245440000000000000000000000600082015250565b60006133446015836132fd565b915061334f8261330e565b602082019050919050565b6000602082019050818103600083015261337381613337565b9050919050565b7f4e4f5f4143544956455f434c41494d0000000000000000000000000000000000600082015250565b60006133b0600f836132fd565b91506133bb8261337a565b602082019050919050565b600060208201905081810360008301526133df816133a3565b9050919050565b7f4e4f5f554e5645535445445f414d4f554e540000000000000000000000000000600082015250565b600061341c6012836132fd565b9150613427826133e6565b602082019050919050565b6000602082019050818103600083015261344b8161340f565b9050919050565b7f4e487b7100000000000000000000000000000000000000000000000000000000600052601160045260246000fd5b600061348c82612976565b915061349783612976565b9250828210156134aa576134a9613452565b5b828203905092915050565b60006134d06134cb6134c684612a24565b612da6565b6129ba565b9050919050565b6134e0816134b5565b82525050565b60008160001c9050919050565b600064ffffffffff82169050919050565b6000613517613512836134e6565b6134f3565b9050919050565b60008160281c9050919050565b600061353e6135398361351e565b6134f3565b9050919050565b60008160501c9050919050565b600061356561356083613545565b6134f3565b9050919050565b60008160781c9050919050565b600061358c6135878361356c565b6134f3565b9050919050565b60006dffffffffffffffffffffffffffff82169050919050565b60006135c06135bb836134e6565b613593565b9050919050565b60008160701c9050919050565b60006135e76135e2836135c7565b613593565b9050919050565b600060ff82169050919050565b600061360e613609836135c7565b6135ee565b9050919050565b6101008201600080830154905061362b81613504565b6136386000860182612b0d565b506136428161352b565b61364f6020860182612b0d565b5061365981613552565b6136666040860182612b0d565b5061367081613579565b61367d6060860182612b0d565b506001830154905061368e816135ad565b61369b6080860182612b1c565b506136a5816135d4565b6136b260a0860182612b1c565b50600283015490506136c3816135ad565b6136d060c0860182612b1c565b506136da816135fb565b6136e760e0860182612b2b565b5050505050565b6000610140820190506137046000830186612990565b61371160208301856134d7565b61371e6040830184613615565b949350505050565b7f4e4f5448494e475f544f5f574954484452415700000000000000000000000000600082015250565b600061375c6013836132fd565b915061376782613726565b602082019050919050565b6000602082019050818103600083015261378b8161374f565b9050919050565b600061379d82612976565b91506137a883612976565b9250826dffffffffffffffffffffffffffff038211156137cb576137ca613452565b5b828201905092915050565b7f494e56414c49445f414444524553530000000000000000000000000000000000600082015250565b600061380c600f836132fd565b9150613817826137d6565b602082019050919050565b6000602082019050818103600083015261383b816137ff565b9050919050565b7f41525241595f4c454e4754485f4d49534d415443480000000000000000000000600082015250565b60006138786015836132fd565b915061388382613842565b602082019050919050565b600060208201905081810360008301526138a78161386b565b9050919050565b7f4e487b7100000000000000000000000000000000000000000000000000000000600052603260045260246000fd5b60006138e8826129ba565b91507fffffffffffffffffffffffffffffffffffffffffffffffffffffffffffffffff820361391a57613919613452565b5b600182019050919050565b61392e8161290b565b82525050565b60006020820190506139496000830184613925565b92915050565b613958816129ba565b811461396357600080fd5b50565b6000815190506139758161394f565b92915050565b600060208284031215613991576139906128e1565b5b600061399f84828501613966565b91505092915050565b60006139b3826129ba565b91506139be836129ba565b9250828210156139d1576139d0613452565b5b828203905092915050565b7f494e53554646494349454e545f42414c414e4345000000000000000000000000600082015250565b6000613a126014836132fd565b9150613a1d826139dc565b602082019050919050565b60006020820190508181036000830152613a4181613a05565b9050919050565b7f494e56414c49445f544f4b454e00000000000000000000000000000000000000600082015250565b6000613a7e600d836132fd565b9150613a8982613a48565b602082019050919050565b60006020820190508181036000830152613aad81613a71565b9050919050565b6000604082019050613ac96000830185613925565b613ad660208301846129c4565b9392505050565b6000613ae882612a24565b9150613af383612a24565b925082821015613b0657613b05613452565b5b828203905092915050565b7f4e487b7100000000000000000000000000000000000000000000000000000000600052601260045260246000fd5b6000613b4b82612a24565b9150613b5683612a24565b925082613b6657613b65613b11565b5b828204905092915050565b6000613b7c82612a24565b9150613b8783612a24565b92508164ffffffffff0483118215151615613ba557613ba4613452565b5b828202905092915050565b6000613bbb82612976565b9150613bc683612976565b9250816dffffffffffffffffffffffffffff0483118215151615613bed57613bec613452565b5b828202905092915050565b6000613c0382612976565b9150613c0e83612976565b925082613c1e57613c1d613b11565b5b828204905092915050565b7f434c41494d5f414c52454144595f455849535453000000000000000000000000600082015250565b6000613c5f6014836132fd565b9150613c6a82613c29565b602082019050919050565b60006020820190508181036000830152613c8e81613c52565b9050919050565b7f494e56414c49445f5645535445445f414d4f554e540000000000000000000000600082015250565b6000613ccb6015836132fd565b9150613cd682613c95565b602082019050919050565b60006020820190508181036000830152613cfa81613cbe565b9050919050565b7f494e56414c49445f53544152545f54494d455354414d50000000000000000000600082015250565b6000613d376017836132fd565b9150613d4282613d01565b602082019050919050565b60006020820190508181036000830152613d6681613d2a565b9050919050565b7f494e56414c49445f454e445f54494d455354414d500000000000000000000000600082015250565b6000613da36015836132fd565b9150613dae82613d6d565b602082019050919050565b60006020820190508181036000830152613dd281613d96565b9050919050565b7f494e56414c49445f52454c454153455f494e54455256414c0000000000000000600082015250565b6000613e0f6018836132fd565b9150613e1a82613dd9565b602082019050919050565b60006020820190508181036000830152613e3e81613e02565b9050919050565b6000613e5082612a24565b9150613e5b83612a24565b925082613e6b57613e6a613b11565b5b828206905092915050565b7f494e56414c49445f494e54455256414c5f4c454e475448000000000000000000600082015250565b6000613eac6017836132fd565b9150613eb782613e76565b602082019050919050565b60006020820190508181036000830152613edb81613e9f565b9050919050565b7f494e56414c49445f434c49464600000000000000000000000000000000000000600082015250565b6000613f18600d836132fd565b9150613f2382613ee2565b602082019050919050565b60006020820190508181036000830152613f4781613f0b565b9050919050565b600081519050613f5d81612aa1565b92915050565b600060208284031215613f7957613f786128e1565b5b6000613f8784828501613f4e565b91505092915050565b7f5361666545524332303a204552433230206f7065726174696f6e20646964206e60008201527f6f74207375636365656400000000000000000000000000000000000000000000602082015250565b6000613fec602a836132fd565b9150613ff782613f90565b604082019050919050565b6000602082019050818103600083015261401b81613fdf565b9050919050565b7f416464726573733a20696e73756666696369656e742062616c616e636520666f60008201527f722063616c6c0000000000000000000000000000000000000000000000000000602082015250565b600061407e6026836132fd565b915061408982614022565b604082019050919050565b600060208201905081810360008301526140ad81614071565b9050919050565b7f416464726573733a2063616c6c20746f206e6f6e2d636f6e7472616374000000600082015250565b60006140ea601d836132fd565b91506140f5826140b4565b602082019050919050565b60006020820190508181036000830152614119816140dd565b9050919050565b600081519050919050565b600081905092915050565b60005b83811015614154578082015181840152602081019050614139565b83811115614163576000848401525b50505050565b600061417482614120565b61417e818561412b565b935061418e818560208601614136565b80840191505092915050565b60006141a68284614169565b915081905092915050565b600081519050919050565b60006141c7826141b1565b6141d181856132fd565b93506141e1818560208601614136565b6141ea81612e25565b840191505092915050565b6000602082019050818103600083015261420f81846141bc565b90509291505056fea2646970667358221220195d288fc07e46083193f3b15d871968cc3c65b44678a4b7ac53783c33aa671f64736f6c634300080e0033",
  "linkReferences": {},
  "deployedLinkReferences": {}
}