{
  "contracts/VTVLVesting.sol": {
    "VTVLVesting": {
      "abi": [
        {
          "inputs": [
            {
              "internalType": "contract IERC20",
              "name": "_tokenAddress",
              "type": "address"
            }
          ],
          "stateMutability": "nonpayable",
          "type": "constructor"
        },
        {
          "anonymous": false,
          "inputs": [
            {
              "indexed": true,
              "internalType": "address",
              "name": "_admin",
              "type": "address"
            },
            {
              "indexed": false,
              "internalType": "bool",
              "name": "_enabled",
              "type": "bool"
            }
          ],
          "name": "AdminAccessSet",
          "type": "event"
        },
        {
          "anonymous": false,
          "inputs": [
            {
              "indexed": true,
              "internalType": "address",
              "name": "_recipient",
              "type": "address"
            },
            {
              "indexed": false,
              "internalType": "uint112",
              "name": "_amountRequested",
              "type": "uint112"
            }
          ],
          "name": "AdminWithdrawn",
          "type": "event"
        },
        {
          "anonymous": false,
          "inputs": [
            {
              "indexed": true,
              "internalType": "address",
              "name": "_recipient",
              "type": "address"
            },
            {
              "components": [
                {
                  "internalType": "uint40",
                  "name": "startTimestamp",
                  "type": "uint40"
                },
                {
                  "internalType": "uint40",
                  "name": "endTimestamp",
                  "type": "uint40"
                },
                {
                  "internalType": "uint40",
                  "name": "cliffReleaseTimestamp",
                  "type": "uint40"
                },
                {
                  "internalType": "uint40",
                  "name": "releaseIntervalSecs",
                  "type": "uint40"
                },
                {
                  "internalType": "uint112",
                  "name": "linearVestAmount",
                  "type": "uint112"
                },
                {
                  "internalType": "uint112",
                  "name": "cliffAmount",
                  "type": "uint112"
                },
                {
                  "internalType": "uint112",
                  "name": "amountWithdrawn",
                  "type": "uint112"
                },
                {
                  "internalType": "bool",
                  "name": "isActive",
                  "type": "bool"
                }
              ],
              "indexed": false,
              "internalType": "struct VTVLVesting.Claim",
              "name": "_claim",
              "type": "tuple"
            }
          ],
          "name": "ClaimCreated",
          "type": "event"
        },
        {
          "anonymous": false,
          "inputs": [
            {
              "indexed": true,
              "internalType": "address",
              "name": "_recipient",
              "type": "address"
            },
            {
              "indexed": false,
              "internalType": "uint112",
              "name": "_numTokensWithheld",
              "type": "uint112"
            },
            {
              "indexed": false,
              "internalType": "uint256",
              "name": "revocationTimestamp",
              "type": "uint256"
            },
            {
              "components": [
                {
                  "internalType": "uint40",
                  "name": "startTimestamp",
                  "type": "uint40"
                },
                {
                  "internalType": "uint40",
                  "name": "endTimestamp",
                  "type": "uint40"
                },
                {
                  "internalType": "uint40",
                  "name": "cliffReleaseTimestamp",
                  "type": "uint40"
                },
                {
                  "internalType": "uint40",
                  "name": "releaseIntervalSecs",
                  "type": "uint40"
                },
                {
                  "internalType": "uint112",
                  "name": "linearVestAmount",
                  "type": "uint112"
                },
                {
                  "internalType": "uint112",
                  "name": "cliffAmount",
                  "type": "uint112"
                },
                {
                  "internalType": "uint112",
                  "name": "amountWithdrawn",
                  "type": "uint112"
                },
                {
                  "internalType": "bool",
                  "name": "isActive",
                  "type": "bool"
                }
              ],
              "indexed": false,
              "internalType": "struct VTVLVesting.Claim",
              "name": "_claim",
              "type": "tuple"
            }
          ],
          "name": "ClaimRevoked",
          "type": "event"
        },
        {
          "anonymous": false,
          "inputs": [
            {
              "indexed": true,
              "internalType": "address",
              "name": "_recipient",
              "type": "address"
            },
            {
              "indexed": false,
              "internalType": "uint112",
              "name": "_withdrawalAmount",
              "type": "uint112"
            }
          ],
          "name": "Claimed",
          "type": "event"
        },
        {
          "inputs": [],
          "name": "allVestingRecipients",
          "outputs": [
            {
              "internalType": "address[]",
              "name": "",
              "type": "address[]"
            }
          ],
          "stateMutability": "view",
          "type": "function"
        },
        {
          "inputs": [
            {
              "internalType": "address",
              "name": "_recipient",
              "type": "address"
            }
          ],
          "name": "claimableAmount",
          "outputs": [
            {
              "internalType": "uint112",
              "name": "",
              "type": "uint112"
            }
          ],
          "stateMutability": "view",
          "type": "function"
        },
        {
          "inputs": [
            {
              "internalType": "address",
              "name": "_recipient",
              "type": "address"
            },
            {
              "internalType": "uint40",
              "name": "_startTimestamp",
              "type": "uint40"
            },
            {
              "internalType": "uint40",
              "name": "_endTimestamp",
              "type": "uint40"
            },
            {
              "internalType": "uint40",
              "name": "_cliffReleaseTimestamp",
              "type": "uint40"
            },
            {
              "internalType": "uint40",
              "name": "_releaseIntervalSecs",
              "type": "uint40"
            },
            {
              "internalType": "uint112",
              "name": "_linearVestAmount",
              "type": "uint112"
            },
            {
              "internalType": "uint112",
              "name": "_cliffAmount",
              "type": "uint112"
            }
          ],
          "name": "createClaim",
          "outputs": [],
          "stateMutability": "nonpayable",
          "type": "function"
        },
        {
          "inputs": [
            {
              "internalType": "address[]",
              "name": "_recipients",
              "type": "address[]"
            },
            {
              "internalType": "uint40[]",
              "name": "_startTimestamps",
              "type": "uint40[]"
            },
            {
              "internalType": "uint40[]",
              "name": "_endTimestamps",
              "type": "uint40[]"
            },
            {
              "internalType": "uint40[]",
              "name": "_cliffReleaseTimestamps",
              "type": "uint40[]"
            },
            {
              "internalType": "uint40[]",
              "name": "_releaseIntervalsSecs",
              "type": "uint40[]"
            },
            {
              "internalType": "uint112[]",
              "name": "_linearVestAmounts",
              "type": "uint112[]"
            },
            {
              "internalType": "uint112[]",
              "name": "_cliffAmounts",
              "type": "uint112[]"
            }
          ],
          "name": "createClaimsBatch",
          "outputs": [],
          "stateMutability": "nonpayable",
          "type": "function"
        },
        {
          "inputs": [
            {
              "internalType": "address",
              "name": "_recipient",
              "type": "address"
            }
          ],
          "name": "finalVestedAmount",
          "outputs": [
            {
              "internalType": "uint112",
              "name": "",
              "type": "uint112"
            }
          ],
          "stateMutability": "view",
          "type": "function"
        },
        {
          "inputs": [
            {
              "internalType": "address",
              "name": "_recipient",
              "type": "address"
            }
          ],
          "name": "getClaim",
          "outputs": [
            {
              "components": [
                {
                  "internalType": "uint40",
                  "name": "startTimestamp",
                  "type": "uint40"
                },
                {
                  "internalType": "uint40",
                  "name": "endTimestamp",
                  "type": "uint40"
                },
                {
                  "internalType": "uint40",
                  "name": "cliffReleaseTimestamp",
                  "type": "uint40"
                },
                {
                  "internalType": "uint40",
                  "name": "releaseIntervalSecs",
                  "type": "uint40"
                },
                {
                  "internalType": "uint112",
                  "name": "linearVestAmount",
                  "type": "uint112"
                },
                {
                  "internalType": "uint112",
                  "name": "cliffAmount",
                  "type": "uint112"
                },
                {
                  "internalType": "uint112",
                  "name": "amountWithdrawn",
                  "type": "uint112"
                },
                {
                  "internalType": "bool",
                  "name": "isActive",
                  "type": "bool"
                }
              ],
              "internalType": "struct VTVLVesting.Claim",
              "name": "",
              "type": "tuple"
            }
          ],
          "stateMutability": "view",
          "type": "function"
        },
        {
          "inputs": [
            {
              "internalType": "address",
              "name": "_addressToCheck",
              "type": "address"
            }
          ],
          "name": "isAdmin",
          "outputs": [
            {
              "internalType": "bool",
              "name": "",
              "type": "bool"
            }
          ],
          "stateMutability": "view",
          "type": "function"
        },
        {
          "inputs": [],
          "name": "numTokensReservedForVesting",
          "outputs": [
            {
              "internalType": "uint112",
              "name": "",
              "type": "uint112"
            }
          ],
          "stateMutability": "view",
          "type": "function"
        },
        {
          "inputs": [],
          "name": "numVestingRecipients",
          "outputs": [
            {
              "internalType": "uint256",
              "name": "",
              "type": "uint256"
            }
          ],
          "stateMutability": "view",
          "type": "function"
        },
        {
          "inputs": [
            {
              "internalType": "address",
              "name": "_recipient",
              "type": "address"
            }
          ],
          "name": "revokeClaim",
          "outputs": [],
          "stateMutability": "nonpayable",
          "type": "function"
        },
        {
          "inputs": [
            {
              "internalType": "address",
              "name": "admin",
              "type": "address"
            },
            {
              "internalType": "bool",
              "name": "isEnabled",
              "type": "bool"
            }
          ],
          "name": "setAdmin",
          "outputs": [],
          "stateMutability": "nonpayable",
          "type": "function"
        },
        {
          "inputs": [],
          "name": "tokenAddress",
          "outputs": [
            {
              "internalType": "contract IERC20",
              "name": "",
              "type": "address"
            }
          ],
          "stateMutability": "view",
          "type": "function"
        },
        {
          "inputs": [
            {
              "internalType": "address",
              "name": "_recipient",
              "type": "address"
            },
            {
              "internalType": "uint40",
              "name": "_referenceTs",
              "type": "uint40"
            }
          ],
          "name": "vestedAmount",
          "outputs": [
            {
              "internalType": "uint112",
              "name": "",
              "type": "uint112"
            }
          ],
          "stateMutability": "view",
          "type": "function"
        },
        {
          "inputs": [],
          "name": "withdraw",
          "outputs": [],
          "stateMutability": "nonpayable",
          "type": "function"
        },
        {
          "inputs": [
            {
              "internalType": "uint112",
              "name": "_amountRequested",
              "type": "uint112"
            }
          ],
          "name": "withdrawAdmin",
          "outputs": [],
          "stateMutability": "nonpayable",
          "type": "function"
        },
        {
          "inputs": [
            {
              "internalType": "contract IERC20",
              "name": "_otherTokenAddress",
              "type": "address"
            }
          ],
          "name": "withdrawOtherToken",
          "outputs": [],
          "stateMutability": "nonpayable",
          "type": "function"
        }
      ],
      "devdoc": {
        "kind": "dev",
        "methods": {
          "claimableAmount(address)": {
            "params": {
              "_recipient": "- The address for whom we're calculating"
            }
          },
          "constructor": {
            "details": "The owner can set the contract in question when creating the contract."
          },
          "createClaim(address,uint40,uint40,uint40,uint40,uint112,uint112)": {
            "details": "This'll simply check the input parameters, and create the structure verbatim based on passed in parameters.",
            "params": {
              "_cliffAmount": "- The amount released at _cliffReleaseTimestamp. Can be 0 if _cliffReleaseTimestamp is also 0.",
              "_cliffReleaseTimestamp": "- The timestamp when the cliff is released (must be <= _startTimestamp, or 0 if no vesting)",
              "_endTimestamp": "- The timestamp when the linear vesting ends",
              "_linearVestAmount": "- The total amount to be linearly vested between _startTimestamp and _endTimestamp",
              "_recipient": "- The address of the recipient of the schedule",
              "_releaseIntervalSecs": "- The release interval for the linear vesting. If this is, for example, 60, that means that the linearly vested amount gets released every 60 seconds.",
              "_startTimestamp": "- The timestamp when the linear vesting starts"
            }
          },
          "finalVestedAmount(address)": {
            "details": "This fn is somewhat superfluous, should probably be removed.",
            "params": {
              "_recipient": "- The address for whom we're calculating"
            }
          },
          "getClaim(address)": {
            "details": "Could be using public claims var, but this is cleaner in terms of naming. (getClaim(address) as opposed to claims(address)). ",
            "params": {
              "_recipient": "- the address for which we fetch the claim."
            }
          },
          "revokeClaim(address)": {
            "details": "The requirement is that a claim exists and that it's active."
          },
          "setAdmin(address,bool)": {
            "params": {
              "admin": "- Address of the new admin (or the one to be removed)",
              "isEnabled": "- Enable/Disable Admin Access"
            }
          },
          "vestedAmount(address,uint40)": {
            "details": "Simply call the _baseVestedAmount for the claim in question",
            "params": {
              "_recipient": "- The address for whom we're calculating",
              "_referenceTs": "- The timestamp at which we want to calculate the vested amount."
            }
          },
          "withdraw()": {
            "details": "hasActiveClaim throws off anyone without a claim."
          },
          "withdrawAdmin(uint112)": {
            "params": {
              "_amountRequested": "- the amount that we want to withdraw"
            }
          },
          "withdrawOtherToken(address)": {
            "details": "This contract controls/vests token at \"tokenAddress\". However, someone might send a different token.  To make sure these don't get accidentally trapped, give admin the ability to withdraw them (to their own address). Note that the token to be withdrawn can't be the one at \"tokenAddress\".",
            "params": {
              "_otherTokenAddress": "- the token which we want to withdraw"
            }
          }
        },
        "stateVariables": {
          "numTokensReservedForVesting": {
            "details": "Our balance of the token must always be greater than this amount. Otherwise we risk some users not getting their shares. This gets reduced as the users are paid out or when their schedules are revoked (as it is not reserved any more). In other words, this represents the amount the contract is scheduled to pay out at some point if the  owner were to never interact with the contract."
          }
        },
        "version": 1
      },
      "evm": {
        "bytecode": {
          "linkReferences": {},
          "object": "60a06040526000600160006101000a8154816dffffffffffffffffffffffffffff02191690836dffffffffffffffffffffffffffff1602179055503480156200004757600080fd5b50604051620045e1380380620045e183398181016040528101906200006d919062000266565b600160008062000082620001e060201b60201c565b73ffffffffffffffffffffffffffffffffffffffff1673ffffffffffffffffffffffffffffffffffffffff16815260200190815260200160002060006101000a81548160ff021916908315150217905550620000e3620001e060201b60201c565b73ffffffffffffffffffffffffffffffffffffffff167fe529461c8529abc0e0fe7c5ee361f74fe22e0b7574df1fc0b7558a282091fb7860016040516200012b9190620002b5565b60405180910390a2600073ffffffffffffffffffffffffffffffffffffffff168173ffffffffffffffffffffffffffffffffffffffff1603620001a5576040517f08c379a00000000000000000000000000000000000000000000000000000000081526004016200019c9062000333565b60405180910390fd5b8073ffffffffffffffffffffffffffffffffffffffff1660808173ffffffffffffffffffffffffffffffffffffffff16815250505062000355565b600033905090565b600080fd5b600073ffffffffffffffffffffffffffffffffffffffff82169050919050565b60006200021a82620001ed565b9050919050565b60006200022e826200020d565b9050919050565b620002408162000221565b81146200024c57600080fd5b50565b600081519050620002608162000235565b92915050565b6000602082840312156200027f576200027e620001e8565b5b60006200028f848285016200024f565b91505092915050565b60008115159050919050565b620002af8162000298565b82525050565b6000602082019050620002cc6000830184620002a4565b92915050565b600082825260208201905092915050565b7f494e56414c49445f414444524553530000000000000000000000000000000000600082015250565b60006200031b600f83620002d2565b91506200032882620002e3565b602082019050919050565b600060208201905081810360008301526200034e816200030c565b9050919050565b60805161424d62000394600039600081816109e9015281816113550152818161163f0152818161175401528181611885015261221b015261424d6000f3fe608060405234801561001057600080fd5b50600436106101005760003560e01c80637197dec311610097578063ae9741aa11610066578063ae9741aa1461029b578063b3a026b1146102b7578063e50373f9146102d3578063ed83a4b2146102ef57610100565b80637197dec314610213578063852e72e914610231578063898850491461024d5780639d76ea581461027d57610100565b80633ccfd60b116100d35780633ccfd60b1461018d5780634a0e701e146101975780634b0bddd2146101c75780634cd3723a146101e357610100565b80630216ee4114610105578063137c68fa14610121578063241c5b1f1461013f57806324d7806c1461015d575b600080fd5b61011f600480360381019061011a9190612949565b61031f565b005b61012961067e565b604051610136919061299f565b60405180910390f35b61014761069e565b60405161015491906129d3565b60405180910390f35b61017760048036038101906101729190612949565b6106ab565b6040516101849190612a09565b60405180910390f35b610195610700565b005b6101b160048036038101906101ac9190612a61565b610a89565b6040516101be919061299f565b60405180910390f35b6101e160048036038101906101dc9190612acd565b610c77565b005b6101fd60048036038101906101f89190612949565b610e20565b60405161020a9190612bdc565b60405180910390f35b61021b611005565b6040516102289190612cb6565b60405180910390f35b61024b60048036038101906102469190612d04565b611093565b005b61026760048036038101906102629190612949565b61113d565b604051610274919061299f565b60405180910390f35b610285611353565b6040516102929190612e05565b60405180910390f35b6102b560048036038101906102b091906130ff565b611377565b005b6102d160048036038101906102cc9190613265565b61157c565b005b6102ed60048036038101906102e891906132d0565b6117f1565b005b61030960048036038101906103049190612949565b611a08565b604051610316919061299f565b60405180910390f35b60008061032a611c0a565b73ffffffffffffffffffffffffffffffffffffffff1673ffffffffffffffffffffffffffffffffffffffff16815260200190815260200160002060009054906101000a900460ff166103b1576040517f08c379a00000000000000000000000000000000000000000000000000000000081526004016103a89061335a565b60405180910390fd5b806000600260008373ffffffffffffffffffffffffffffffffffffffff1673ffffffffffffffffffffffffffffffffffffffff168152602001908152602001600020905060008160000160009054906101000a900464ffffffffff1664ffffffffff1611610454576040517f08c379a000000000000000000000000000000000000000000000000000000000815260040161044b906133c6565b60405180910390fd5b6001151581600201600e9054906101000a900460ff161515146104ac576040517f08c379a00000000000000000000000000000000000000000000000000000000081526004016104a3906133c6565b60405180910390fd5b6000600260008573ffffffffffffffffffffffffffffffffffffffff1673ffffffffffffffffffffffffffffffffffffffff168152602001908152602001600020905060006104fa85611a08565b9050806dffffffffffffffffffffffffffff168260020160009054906101000a90046dffffffffffffffffffffffffffff166dffffffffffffffffffffffffffff161061057c576040517f08c379a000000000000000000000000000000000000000000000000000000000815260040161057390613432565b60405180910390fd5b60008260020160009054906101000a90046dffffffffffffffffffffffffffff16826105a89190613481565b9050600083600201600e6101000a81548160ff02191690831515021790555080600160008282829054906101000a90046dffffffffffffffffffffffffffff166105f29190613481565b92506101000a8154816dffffffffffffffffffffffffffff02191690836dffffffffffffffffffffffffffff1602179055508573ffffffffffffffffffffffffffffffffffffffff167f33dd3909387f8e5a36be260ddd69080def445805af1761f8bdf809f81658be5782428660405161066e939291906136ee565b60405180910390a2505050505050565b600160009054906101000a90046dffffffffffffffffffffffffffff1681565b6000600380549050905090565b60008060008373ffffffffffffffffffffffffffffffffffffffff1673ffffffffffffffffffffffffffffffffffffffff16815260200190815260200160002060009054906101000a900460ff169050919050565b610708611c0a565b6000600260008373ffffffffffffffffffffffffffffffffffffffff1673ffffffffffffffffffffffffffffffffffffffff168152602001908152602001600020905060008160000160009054906101000a900464ffffffffff1664ffffffffff16116107aa576040517f08c379a00000000000000000000000000000000000000000000000000000000081526004016107a1906133c6565b60405180910390fd5b6001151581600201600e9054906101000a900460ff16151514610802576040517f08c379a00000000000000000000000000000000000000000000000000000000081526004016107f9906133c6565b60405180910390fd5b600060026000610810611c0a565b73ffffffffffffffffffffffffffffffffffffffff1673ffffffffffffffffffffffffffffffffffffffff1681526020019081526020016000209050600061085f610859611c0a565b42610a89565b90508160020160009054906101000a90046dffffffffffffffffffffffffffff166dffffffffffffffffffffffffffff16816dffffffffffffffffffffffffffff16116108e1576040517f08c379a00000000000000000000000000000000000000000000000000000000081526004016108d890613772565b60405180910390fd5b60008260020160009054906101000a90046dffffffffffffffffffffffffffff168261090d9190613481565b9050808360020160008282829054906101000a90046dffffffffffffffffffffffffffff1661093c9190613792565b92506101000a8154816dffffffffffffffffffffffffffff02191690836dffffffffffffffffffffffffffff16021790555080600160008282829054906101000a90046dffffffffffffffffffffffffffff166109999190613481565b92506101000a8154816dffffffffffffffffffffffffffff02191690836dffffffffffffffffffffffffffff160217905550610a2d6109d6611c0a565b826dffffffffffffffffffffffffffff167f000000000000000000000000000000000000000000000000000000000000000073ffffffffffffffffffffffffffffffffffffffff16611c129092919063ffffffff16565b610a35611c0a565b73ffffffffffffffffffffffffffffffffffffffff167f27febd2ce374435f33b4d2a794a201df2f20a352431a123b1bb385fe6a0e073082604051610a7a919061299f565b60405180910390a25050505050565b600080600260008573ffffffffffffffffffffffffffffffffffffffff1673ffffffffffffffffffffffffffffffffffffffff1681526020019081526020016000209050610c6e81604051806101000160405290816000820160009054906101000a900464ffffffffff1664ffffffffff1664ffffffffff1681526020016000820160059054906101000a900464ffffffffff1664ffffffffff1664ffffffffff16815260200160008201600a9054906101000a900464ffffffffff1664ffffffffff1664ffffffffff16815260200160008201600f9054906101000a900464ffffffffff1664ffffffffff1664ffffffffff1681526020016001820160009054906101000a90046dffffffffffffffffffffffffffff166dffffffffffffffffffffffffffff166dffffffffffffffffffffffffffff16815260200160018201600e9054906101000a90046dffffffffffffffffffffffffffff166dffffffffffffffffffffffffffff166dffffffffffffffffffffffffffff1681526020016002820160009054906101000a90046dffffffffffffffffffffffffffff166dffffffffffffffffffffffffffff166dffffffffffffffffffffffffffff16815260200160028201600e9054906101000a900460ff16151515158152505084611c98565b91505092915050565b600080610c82611c0a565b73ffffffffffffffffffffffffffffffffffffffff1673ffffffffffffffffffffffffffffffffffffffff16815260200190815260200160002060009054906101000a900460ff16610d09576040517f08c379a0000000000000000000000000000000000000000000000000000000008152600401610d009061335a565b60405180910390fd5b600073ffffffffffffffffffffffffffffffffffffffff168273ffffffffffffffffffffffffffffffffffffffff1603610d78576040517f08c379a0000000000000000000000000000000000000000000000000000000008152600401610d6f90613822565b60405180910390fd5b806000808473ffffffffffffffffffffffffffffffffffffffff1673ffffffffffffffffffffffffffffffffffffffff16815260200190815260200160002060006101000a81548160ff0219169083151502179055508173ffffffffffffffffffffffffffffffffffffffff167fe529461c8529abc0e0fe7c5ee361f74fe22e0b7574df1fc0b7558a282091fb7882604051610e149190612a09565b60405180910390a25050565b610e28612844565b600260008373ffffffffffffffffffffffffffffffffffffffff1673ffffffffffffffffffffffffffffffffffffffff168152602001908152602001600020604051806101000160405290816000820160009054906101000a900464ffffffffff1664ffffffffff1664ffffffffff1681526020016000820160059054906101000a900464ffffffffff1664ffffffffff1664ffffffffff16815260200160008201600a9054906101000a900464ffffffffff1664ffffffffff1664ffffffffff16815260200160008201600f9054906101000a900464ffffffffff1664ffffffffff1664ffffffffff1681526020016001820160009054906101000a90046dffffffffffffffffffffffffffff166dffffffffffffffffffffffffffff166dffffffffffffffffffffffffffff16815260200160018201600e9054906101000a90046dffffffffffffffffffffffffffff166dffffffffffffffffffffffffffff166dffffffffffffffffffffffffffff1681526020016002820160009054906101000a90046dffffffffffffffffffffffffffff166dffffffffffffffffffffffffffff166dffffffffffffffffffffffffffff16815260200160028201600e9054906101000a900460ff1615151515815250509050919050565b6060600380548060200260200160405190810160405280929190818152602001828054801561108957602002820191906000526020600020905b8160009054906101000a900473ffffffffffffffffffffffffffffffffffffffff1673ffffffffffffffffffffffffffffffffffffffff168152602001906001019080831161103f575b5050505050905090565b60008061109e611c0a565b73ffffffffffffffffffffffffffffffffffffffff1673ffffffffffffffffffffffffffffffffffffffff16815260200190815260200160002060009054906101000a900460ff16611125576040517f08c379a000000000000000000000000000000000000000000000000000000000815260040161111c9061335a565b60405180910390fd5b61113487878787878787611de1565b50505050505050565b600080600260008473ffffffffffffffffffffffffffffffffffffffff1673ffffffffffffffffffffffffffffffffffffffff16815260200190815260200160002090508060020160009054906101000a90046dffffffffffffffffffffffffffff1661134182604051806101000160405290816000820160009054906101000a900464ffffffffff1664ffffffffff1664ffffffffff1681526020016000820160059054906101000a900464ffffffffff1664ffffffffff1664ffffffffff16815260200160008201600a9054906101000a900464ffffffffff1664ffffffffff1664ffffffffff16815260200160008201600f9054906101000a900464ffffffffff1664ffffffffff1664ffffffffff1681526020016001820160009054906101000a90046dffffffffffffffffffffffffffff166dffffffffffffffffffffffffffff166dffffffffffffffffffffffffffff16815260200160018201600e9054906101000a90046dffffffffffffffffffffffffffff166dffffffffffffffffffffffffffff166dffffffffffffffffffffffffffff1681526020016002820160009054906101000a90046dffffffffffffffffffffffffffff166dffffffffffffffffffffffffffff166dffffffffffffffffffffffffffff16815260200160028201600e9054906101000a900460ff16151515158152505042611c98565b61134b9190613481565b915050919050565b7f000000000000000000000000000000000000000000000000000000000000000081565b600080611382611c0a565b73ffffffffffffffffffffffffffffffffffffffff1673ffffffffffffffffffffffffffffffffffffffff16815260200190815260200160002060009054906101000a900460ff16611409576040517f08c379a00000000000000000000000000000000000000000000000000000000081526004016114009061335a565b60405180910390fd5b60008751905080875114801561141f5750808651145b801561142b5750808551145b80156114375750808451145b80156114435750808351145b801561144f5750808251145b61148e576040517f08c379a00000000000000000000000000000000000000000000000000000000081526004016114859061388e565b60405180910390fd5b60005b818110156115715761155e8982815181106114af576114ae6138ae565b5b60200260200101518983815181106114ca576114c96138ae565b5b60200260200101518984815181106114e5576114e46138ae565b5b6020026020010151898581518110611500576114ff6138ae565b5b602002602001015189868151811061151b5761151a6138ae565b5b6020026020010151898781518110611536576115356138ae565b5b6020026020010151898881518110611551576115506138ae565b5b6020026020010151611de1565b8080611569906138dd565b915050611491565b505050505050505050565b600080611587611c0a565b73ffffffffffffffffffffffffffffffffffffffff1673ffffffffffffffffffffffffffffffffffffffff16815260200190815260200160002060009054906101000a900460ff1661160e576040517f08c379a00000000000000000000000000000000000000000000000000000000081526004016116059061335a565b60405180910390fd5b6000600160009054906101000a90046dffffffffffffffffffffffffffff166dffffffffffffffffffffffffffff167f000000000000000000000000000000000000000000000000000000000000000073ffffffffffffffffffffffffffffffffffffffff166370a08231306040518263ffffffff1660e01b81526004016116969190613934565b602060405180830381865afa1580156116b3573d6000803e3d6000fd5b505050506040513d601f19601f820116820180604052508101906116d7919061397b565b6116e191906139a8565b9050816dffffffffffffffffffffffffffff16811015611736576040517f08c379a000000000000000000000000000000000000000000000000000000000815260040161172d90613a28565b60405180910390fd5b611798611741611c0a565b836dffffffffffffffffffffffffffff167f000000000000000000000000000000000000000000000000000000000000000073ffffffffffffffffffffffffffffffffffffffff16611c129092919063ffffffff16565b6117a0611c0a565b73ffffffffffffffffffffffffffffffffffffffff167ff0b3e02cc573c93409e1425c1f06bd1b3f25701c587835b3af2d2bb6f7589429836040516117e5919061299f565b60405180910390a25050565b6000806117fc611c0a565b73ffffffffffffffffffffffffffffffffffffffff1673ffffffffffffffffffffffffffffffffffffffff16815260200190815260200160002060009054906101000a900460ff16611883576040517f08c379a000000000000000000000000000000000000000000000000000000000815260040161187a9061335a565b60405180910390fd5b7f000000000000000000000000000000000000000000000000000000000000000073ffffffffffffffffffffffffffffffffffffffff168173ffffffffffffffffffffffffffffffffffffffff1603611911576040517f08c379a000000000000000000000000000000000000000000000000000000000815260040161190890613a94565b60405180910390fd5b60008173ffffffffffffffffffffffffffffffffffffffff166370a08231306040518263ffffffff1660e01b815260040161194c9190613934565b602060405180830381865afa158015611969573d6000803e3d6000fd5b505050506040513d601f19601f8201168201806040525081019061198d919061397b565b9050600081116119d2576040517f08c379a00000000000000000000000000000000000000000000000000000000081526004016119c990613a28565b60405180910390fd5b611a046119dd611c0a565b828473ffffffffffffffffffffffffffffffffffffffff16611c129092919063ffffffff16565b5050565b600080600260008473ffffffffffffffffffffffffffffffffffffffff1673ffffffffffffffffffffffffffffffffffffffff1681526020019081526020016000209050611c0281604051806101000160405290816000820160009054906101000a900464ffffffffff1664ffffffffff1664ffffffffff1681526020016000820160059054906101000a900464ffffffffff1664ffffffffff1664ffffffffff16815260200160008201600a9054906101000a900464ffffffffff1664ffffffffff1664ffffffffff16815260200160008201600f9054906101000a900464ffffffffff1664ffffffffff1664ffffffffff1681526020016001820160009054906101000a90046dffffffffffffffffffffffffffff166dffffffffffffffffffffffffffff166dffffffffffffffffffffffffffff16815260200160018201600e9054906101000a90046dffffffffffffffffffffffffffff166dffffffffffffffffffffffffffff166dffffffffffffffffffffffffffff1681526020016002820160009054906101000a90046dffffffffffffffffffffffffffff166dffffffffffffffffffffffffffff166dffffffffffffffffffffffffffff16815260200160028201600e9054906101000a900460ff1615151515815250508260000160059054906101000a900464ffffffffff16611c98565b915050919050565b600033905090565b611c938363a9059cbb60e01b8484604051602401611c31929190613ab4565b604051602081830303815290604052907bffffffffffffffffffffffffffffffffffffffffffffffffffffffff19166020820180517bffffffffffffffffffffffffffffffffffffffffffffffffffffffff83818316178352505050506125c7565b505050565b600080600090508360e0015115611da157836020015164ffffffffff168364ffffffffff161115611ccb57836020015192505b836040015164ffffffffff168364ffffffffff1610611cf7578360a0015181611cf49190613792565b90505b836000015164ffffffffff168364ffffffffff161115611da0576000846000015184611d239190613add565b905060008560600151866060015183611d3c9190613b40565b611d469190613b71565b9050600086600001518760200151611d5e9190613add565b905060008164ffffffffff168364ffffffffff168960800151611d819190613bb0565b611d8b9190613bf8565b90508085611d999190613792565b9450505050505b5b8360c001516dffffffffffffffffffffffffffff16816dffffffffffffffffffffffffffff1611611dd6578360c00151611dd8565b805b91505092915050565b866000600260008373ffffffffffffffffffffffffffffffffffffffff1673ffffffffffffffffffffffffffffffffffffffff168152602001908152602001600020905060008160000160009054906101000a900464ffffffffff1664ffffffffff1614611e84576040517f08c379a0000000000000000000000000000000000000000000000000000000008152600401611e7b90613c75565b60405180910390fd5b600073ffffffffffffffffffffffffffffffffffffffff168973ffffffffffffffffffffffffffffffffffffffff1603611ef3576040517f08c379a0000000000000000000000000000000000000000000000000000000008152600401611eea90613822565b60405180910390fd5b60008385611f019190613792565b6dffffffffffffffffffffffffffff1611611f51576040517f08c379a0000000000000000000000000000000000000000000000000000000008152600401611f4890613ce1565b60405180910390fd5b60008864ffffffffff1611611f9b576040517f08c379a0000000000000000000000000000000000000000000000000000000008152600401611f9290613d4d565b60405180910390fd5b8664ffffffffff168864ffffffffff1610611feb576040517f08c379a0000000000000000000000000000000000000000000000000000000008152600401611fe290613db9565b60405180910390fd5b60008564ffffffffff1611612035576040517f08c379a000000000000000000000000000000000000000000000000000000000815260040161202c90613e25565b60405180910390fd5b60008589896120449190613add565b61204e9190613e45565b64ffffffffff1614612095576040517f08c379a000000000000000000000000000000000000000000000000000000000815260040161208c90613ec2565b60405180910390fd5b60008664ffffffffff161180156120bc57506000836dffffffffffffffffffffffffffff16115b80156120d657508764ffffffffff168664ffffffffff1611155b80612104575060008664ffffffffff1614801561210357506000836dffffffffffffffffffffffffffff16145b5b612143576040517f08c379a000000000000000000000000000000000000000000000000000000000815260040161213a90613f2e565b60405180910390fd5b60006040518061010001604052808a64ffffffffff1681526020018964ffffffffff1681526020018864ffffffffff1681526020018764ffffffffff168152602001866dffffffffffffffffffffffffffff168152602001856dffffffffffffffffffffffffffff16815260200160006dffffffffffffffffffffffffffff168152602001600115158152509050600085856121df9190613792565b905080600160009054906101000a90046dffffffffffffffffffffffffffff166122099190613792565b6dffffffffffffffffffffffffffff167f000000000000000000000000000000000000000000000000000000000000000073ffffffffffffffffffffffffffffffffffffffff166370a08231306040518263ffffffff1660e01b81526004016122729190613934565b602060405180830381865afa15801561228f573d6000803e3d6000fd5b505050506040513d601f19601f820116820180604052508101906122b3919061397b565b10156122f4576040517f08c379a00000000000000000000000000000000000000000000000000000000081526004016122eb90613a28565b60405180910390fd5b81600260008d73ffffffffffffffffffffffffffffffffffffffff1673ffffffffffffffffffffffffffffffffffffffff16815260200190815260200160002060008201518160000160006101000a81548164ffffffffff021916908364ffffffffff16021790555060208201518160000160056101000a81548164ffffffffff021916908364ffffffffff160217905550604082015181600001600a6101000a81548164ffffffffff021916908364ffffffffff160217905550606082015181600001600f6101000a81548164ffffffffff021916908364ffffffffff16021790555060808201518160010160006101000a8154816dffffffffffffffffffffffffffff02191690836dffffffffffffffffffffffffffff16021790555060a082015181600101600e6101000a8154816dffffffffffffffffffffffffffff02191690836dffffffffffffffffffffffffffff16021790555060c08201518160020160006101000a8154816dffffffffffffffffffffffffffff02191690836dffffffffffffffffffffffffffff16021790555060e082015181600201600e6101000a81548160ff02191690831515021790555090505080600160008282829054906101000a90046dffffffffffffffffffffffffffff166124d79190613792565b92506101000a8154816dffffffffffffffffffffffffffff02191690836dffffffffffffffffffffffffffff16021790555060038b9080600181540180825580915050600190039060005260206000200160009091909190916101000a81548173ffffffffffffffffffffffffffffffffffffffff021916908373ffffffffffffffffffffffffffffffffffffffff1602179055508a73ffffffffffffffffffffffffffffffffffffffff167f4e79c332b2ee19f0319021953d9dff3b084e37b4ccff045cef74fc22572f4730836040516125b29190612bdc565b60405180910390a25050505050505050505050565b6000612629826040518060400160405280602081526020017f5361666545524332303a206c6f772d6c6576656c2063616c6c206661696c65648152508573ffffffffffffffffffffffffffffffffffffffff1661268e9092919063ffffffff16565b905060008151111561268957808060200190518101906126499190613f63565b612688576040517f08c379a000000000000000000000000000000000000000000000000000000000815260040161267f90614002565b60405180910390fd5b5b505050565b606061269d84846000856126a6565b90509392505050565b6060824710156126eb576040517f08c379a00000000000000000000000000000000000000000000000000000000081526004016126e290614094565b60405180910390fd5b6126f4856127ba565b612733576040517f08c379a000000000000000000000000000000000000000000000000000000000815260040161272a90614100565b60405180910390fd5b6000808673ffffffffffffffffffffffffffffffffffffffff16858760405161275c919061419a565b60006040518083038185875af1925050503d8060008114612799576040519150601f19603f3d011682016040523d82523d6000602084013e61279e565b606091505b50915091506127ae8282866127dd565b92505050949350505050565b6000808273ffffffffffffffffffffffffffffffffffffffff163b119050919050565b606083156127ed5782905061283d565b6000835111156128005782518084602001fd5b816040517f08c379a000000000000000000000000000000000000000000000000000000000815260040161283491906141f5565b60405180910390fd5b9392505050565b604051806101000160405280600064ffffffffff168152602001600064ffffffffff168152602001600064ffffffffff168152602001600064ffffffffff16815260200160006dffffffffffffffffffffffffffff16815260200160006dffffffffffffffffffffffffffff16815260200160006dffffffffffffffffffffffffffff1681526020016000151581525090565b6000604051905090565b600080fd5b600080fd5b600073ffffffffffffffffffffffffffffffffffffffff82169050919050565b6000612916826128eb565b9050919050565b6129268161290b565b811461293157600080fd5b50565b6000813590506129438161291d565b92915050565b60006020828403121561295f5761295e6128e1565b5b600061296d84828501612934565b91505092915050565b60006dffffffffffffffffffffffffffff82169050919050565b61299981612976565b82525050565b60006020820190506129b46000830184612990565b92915050565b6000819050919050565b6129cd816129ba565b82525050565b60006020820190506129e860008301846129c4565b92915050565b60008115159050919050565b612a03816129ee565b82525050565b6000602082019050612a1e60008301846129fa565b92915050565b600064ffffffffff82169050919050565b612a3e81612a24565b8114612a4957600080fd5b50565b600081359050612a5b81612a35565b92915050565b60008060408385031215612a7857612a776128e1565b5b6000612a8685828601612934565b9250506020612a9785828601612a4c565b9150509250929050565b612aaa816129ee565b8114612ab557600080fd5b50565b600081359050612ac781612aa1565b92915050565b60008060408385031215612ae457612ae36128e1565b5b6000612af285828601612934565b9250506020612b0385828601612ab8565b9150509250929050565b612b1681612a24565b82525050565b612b2581612976565b82525050565b612b34816129ee565b82525050565b61010082016000820151612b516000850182612b0d565b506020820151612b646020850182612b0d565b506040820151612b776040850182612b0d565b506060820151612b8a6060850182612b0d565b506080820151612b9d6080850182612b1c565b5060a0820151612bb060a0850182612b1c565b5060c0820151612bc360c0850182612b1c565b5060e0820151612bd660e0850182612b2b565b50505050565b600061010082019050612bf26000830184612b3a565b92915050565b600081519050919050565b600082825260208201905092915050565b6000819050602082019050919050565b612c2d8161290b565b82525050565b6000612c3f8383612c24565b60208301905092915050565b6000602082019050919050565b6000612c6382612bf8565b612c6d8185612c03565b9350612c7883612c14565b8060005b83811015612ca9578151612c908882612c33565b9750612c9b83612c4b565b925050600181019050612c7c565b5085935050505092915050565b60006020820190508181036000830152612cd08184612c58565b905092915050565b612ce181612976565b8114612cec57600080fd5b50565b600081359050612cfe81612cd8565b92915050565b600080600080600080600060e0888a031215612d2357612d226128e1565b5b6000612d318a828b01612934565b9750506020612d428a828b01612a4c565b9650506040612d538a828b01612a4c565b9550506060612d648a828b01612a4c565b9450506080612d758a828b01612a4c565b93505060a0612d868a828b01612cef565b92505060c0612d978a828b01612cef565b91505092959891949750929550565b6000819050919050565b6000612dcb612dc6612dc1846128eb565b612da6565b6128eb565b9050919050565b6000612ddd82612db0565b9050919050565b6000612def82612dd2565b9050919050565b612dff81612de4565b82525050565b6000602082019050612e1a6000830184612df6565b92915050565b600080fd5b6000601f19601f8301169050919050565b7f4e487b7100000000000000000000000000000000000000000000000000000000600052604160045260246000fd5b612e6e82612e25565b810181811067ffffffffffffffff82111715612e8d57612e8c612e36565b5b80604052505050565b6000612ea06128d7565b9050612eac8282612e65565b919050565b600067ffffffffffffffff821115612ecc57612ecb612e36565b5b602082029050602081019050919050565b600080fd5b6000612ef5612ef084612eb1565b612e96565b90508083825260208201905060208402830185811115612f1857612f17612edd565b5b835b81811015612f415780612f2d8882612934565b845260208401935050602081019050612f1a565b5050509392505050565b600082601f830112612f6057612f5f612e20565b5b8135612f70848260208601612ee2565b91505092915050565b600067ffffffffffffffff821115612f9457612f93612e36565b5b602082029050602081019050919050565b6000612fb8612fb384612f79565b612e96565b90508083825260208201905060208402830185811115612fdb57612fda612edd565b5b835b818110156130045780612ff08882612a4c565b845260208401935050602081019050612fdd565b5050509392505050565b600082601f83011261302357613022612e20565b5b8135613033848260208601612fa5565b91505092915050565b600067ffffffffffffffff82111561305757613056612e36565b5b602082029050602081019050919050565b600061307b6130768461303c565b612e96565b9050808382526020820190506020840283018581111561309e5761309d612edd565b5b835b818110156130c757806130b38882612cef565b8452602084019350506020810190506130a0565b5050509392505050565b600082601f8301126130e6576130e5612e20565b5b81356130f6848260208601613068565b91505092915050565b600080600080600080600060e0888a03121561311e5761311d6128e1565b5b600088013567ffffffffffffffff81111561313c5761313b6128e6565b5b6131488a828b01612f4b565b975050602088013567ffffffffffffffff811115613169576131686128e6565b5b6131758a828b0161300e565b965050604088013567ffffffffffffffff811115613196576131956128e6565b5b6131a28a828b0161300e565b955050606088013567ffffffffffffffff8111156131c3576131c26128e6565b5b6131cf8a828b0161300e565b945050608088013567ffffffffffffffff8111156131f0576131ef6128e6565b5b6131fc8a828b0161300e565b93505060a088013567ffffffffffffffff81111561321d5761321c6128e6565b5b6132298a828b016130d1565b92505060c088013567ffffffffffffffff81111561324a576132496128e6565b5b6132568a828b016130d1565b91505092959891949750929550565b60006020828403121561327b5761327a6128e1565b5b600061328984828501612cef565b91505092915050565b600061329d8261290b565b9050919050565b6132ad81613292565b81146132b857600080fd5b50565b6000813590506132ca816132a4565b92915050565b6000602082840312156132e6576132e56128e1565b5b60006132f4848285016132bb565b91505092915050565b600082825260208201905092915050565b7f41444d494e5f4143434553535f52455155495245440000000000000000000000600082015250565b60006133446015836132fd565b915061334f8261330e565b602082019050919050565b6000602082019050818103600083015261337381613337565b9050919050565b7f4e4f5f4143544956455f434c41494d0000000000000000000000000000000000600082015250565b60006133b0600f836132fd565b91506133bb8261337a565b602082019050919050565b600060208201905081810360008301526133df816133a3565b9050919050565b7f4e4f5f554e5645535445445f414d4f554e540000000000000000000000000000600082015250565b600061341c6012836132fd565b9150613427826133e6565b602082019050919050565b6000602082019050818103600083015261344b8161340f565b9050919050565b7f4e487b7100000000000000000000000000000000000000000000000000000000600052601160045260246000fd5b600061348c82612976565b915061349783612976565b9250828210156134aa576134a9613452565b5b828203905092915050565b60006134d06134cb6134c684612a24565b612da6565b6129ba565b9050919050565b6134e0816134b5565b82525050565b60008160001c9050919050565b600064ffffffffff82169050919050565b6000613517613512836134e6565b6134f3565b9050919050565b60008160281c9050919050565b600061353e6135398361351e565b6134f3565b9050919050565b60008160501c9050919050565b600061356561356083613545565b6134f3565b9050919050565b60008160781c9050919050565b600061358c6135878361356c565b6134f3565b9050919050565b60006dffffffffffffffffffffffffffff82169050919050565b60006135c06135bb836134e6565b613593565b9050919050565b60008160701c9050919050565b60006135e76135e2836135c7565b613593565b9050919050565b600060ff82169050919050565b600061360e613609836135c7565b6135ee565b9050919050565b6101008201600080830154905061362b81613504565b6136386000860182612b0d565b506136428161352b565b61364f6020860182612b0d565b5061365981613552565b6136666040860182612b0d565b5061367081613579565b61367d6060860182612b0d565b506001830154905061368e816135ad565b61369b6080860182612b1c565b506136a5816135d4565b6136b260a0860182612b1c565b50600283015490506136c3816135ad565b6136d060c0860182612b1c565b506136da816135fb565b6136e760e0860182612b2b565b5050505050565b6000610140820190506137046000830186612990565b61371160208301856134d7565b61371e6040830184613615565b949350505050565b7f4e4f5448494e475f544f5f574954484452415700000000000000000000000000600082015250565b600061375c6013836132fd565b915061376782613726565b602082019050919050565b6000602082019050818103600083015261378b8161374f565b9050919050565b600061379d82612976565b91506137a883612976565b9250826dffffffffffffffffffffffffffff038211156137cb576137ca613452565b5b828201905092915050565b7f494e56414c49445f414444524553530000000000000000000000000000000000600082015250565b600061380c600f836132fd565b9150613817826137d6565b602082019050919050565b6000602082019050818103600083015261383b816137ff565b9050919050565b7f41525241595f4c454e4754485f4d49534d415443480000000000000000000000600082015250565b60006138786015836132fd565b915061388382613842565b602082019050919050565b600060208201905081810360008301526138a78161386b565b9050919050565b7f4e487b7100000000000000000000000000000000000000000000000000000000600052603260045260246000fd5b60006138e8826129ba565b91507fffffffffffffffffffffffffffffffffffffffffffffffffffffffffffffffff820361391a57613919613452565b5b600182019050919050565b61392e8161290b565b82525050565b60006020820190506139496000830184613925565b92915050565b613958816129ba565b811461396357600080fd5b50565b6000815190506139758161394f565b92915050565b600060208284031215613991576139906128e1565b5b600061399f84828501613966565b91505092915050565b60006139b3826129ba565b91506139be836129ba565b9250828210156139d1576139d0613452565b5b828203905092915050565b7f494e53554646494349454e545f42414c414e4345000000000000000000000000600082015250565b6000613a126014836132fd565b9150613a1d826139dc565b602082019050919050565b60006020820190508181036000830152613a4181613a05565b9050919050565b7f494e56414c49445f544f4b454e00000000000000000000000000000000000000600082015250565b6000613a7e600d836132fd565b9150613a8982613a48565b602082019050919050565b60006020820190508181036000830152613aad81613a71565b9050919050565b6000604082019050613ac96000830185613925565b613ad660208301846129c4565b9392505050565b6000613ae882612a24565b9150613af383612a24565b925082821015613b0657613b05613452565b5b828203905092915050565b7f4e487b7100000000000000000000000000000000000000000000000000000000600052601260045260246000fd5b6000613b4b82612a24565b9150613b5683612a24565b925082613b6657613b65613b11565b5b828204905092915050565b6000613b7c82612a24565b9150613b8783612a24565b92508164ffffffffff0483118215151615613ba557613ba4613452565b5b828202905092915050565b6000613bbb82612976565b9150613bc683612976565b9250816dffffffffffffffffffffffffffff0483118215151615613bed57613bec613452565b5b828202905092915050565b6000613c0382612976565b9150613c0e83612976565b925082613c1e57613c1d613b11565b5b828204905092915050565b7f434c41494d5f414c52454144595f455849535453000000000000000000000000600082015250565b6000613c5f6014836132fd565b9150613c6a82613c29565b602082019050919050565b60006020820190508181036000830152613c8e81613c52565b9050919050565b7f494e56414c49445f5645535445445f414d4f554e540000000000000000000000600082015250565b6000613ccb6015836132fd565b9150613cd682613c95565b602082019050919050565b60006020820190508181036000830152613cfa81613cbe565b9050919050565b7f494e56414c49445f53544152545f54494d455354414d50000000000000000000600082015250565b6000613d376017836132fd565b9150613d4282613d01565b602082019050919050565b60006020820190508181036000830152613d6681613d2a565b9050919050565b7f494e56414c49445f454e445f54494d455354414d500000000000000000000000600082015250565b6000613da36015836132fd565b9150613dae82613d6d565b602082019050919050565b60006020820190508181036000830152613dd281613d96565b9050919050565b7f494e56414c49445f52454c454153455f494e54455256414c0000000000000000600082015250565b6000613e0f6018836132fd565b9150613e1a82613dd9565b602082019050919050565b60006020820190508181036000830152613e3e81613e02565b9050919050565b6000613e5082612a24565b9150613e5b83612a24565b925082613e6b57613e6a613b11565b5b828206905092915050565b7f494e56414c49445f494e54455256414c5f4c454e475448000000000000000000600082015250565b6000613eac6017836132fd565b9150613eb782613e76565b602082019050919050565b60006020820190508181036000830152613edb81613e9f565b9050919050565b7f494e56414c49445f434c49464600000000000000000000000000000000000000600082015250565b6000613f18600d836132fd565b9150613f2382613ee2565b602082019050919050565b60006020820190508181036000830152613f4781613f0b565b9050919050565b600081519050613f5d81612aa1565b92915050565b600060208284031215613f7957613f786128e1565b5b6000613f8784828501613f4e565b91505092915050565b7f5361666545524332303a204552433230206f7065726174696f6e20646964206e60008201527f6f74207375636365656400000000000000000000000000000000000000000000602082015250565b6000613fec602a836132fd565b9150613ff782613f90565b604082019050919050565b6000602082019050818103600083015261401b81613fdf565b9050919050565b7f416464726573733a20696e73756666696369656e742062616c616e636520666f60008201527f722063616c6c0000000000000000000000000000000000000000000000000000602082015250565b600061407e6026836132fd565b915061408982614022565b604082019050919050565b600060208201905081810360008301526140ad81614071565b9050919050565b7f416464726573733a2063616c6c20746f206e6f6e2d636f6e7472616374000000600082015250565b60006140ea601d836132fd565b91506140f5826140b4565b602082019050919050565b60006020820190508181036000830152614119816140dd565b9050919050565b600081519050919050565b600081905092915050565b60005b83811015614154578082015181840152602081019050614139565b83811115614163576000848401525b50505050565b600061417482614120565b61417e818561412b565b935061418e818560208601614136565b80840191505092915050565b60006141a68284614169565b915081905092915050565b600081519050919050565b60006141c7826141b1565b6141d181856132fd565b93506141e1818560208601614136565b6141ea81612e25565b840191505092915050565b6000602082019050818103600083015261420f81846141bc565b90509291505056fea2646970667358221220195d288fc07e46083193f3b15d871968cc3c65b44678a4b7ac53783c33aa671f64736f6c634300080e0033",
          "opcodes": "PUSH1 0xA0 PUSH1 0x40 MSTORE PUSH1 0x0 PUSH1 0x1 PUSH1 0x0 PUSH2 0x100 EXP DUP2 SLOAD DUP2 PUSH14 0xFFFFFFFFFFFFFFFFFFFFFFFFFFFF MUL NOT AND SWAP1 DUP4 PUSH14 0xFFFFFFFFFFFFFFFFFFFFFFFFFFFF AND MUL OR SWAP1 SSTORE POP CALLVALUE DUP1 ISZERO PUSH3 0x47 JUMPI PUSH1 0x0 DUP1 REVERT JUMPDEST POP PUSH1 0x40 MLOAD PUSH3 0x45E1 CODESIZE SUB DUP1 PUSH3 0x45E1 DUP4 CODECOPY DUP2 DUP2 ADD PUSH1 0x40 MSTORE DUP2 ADD SWAP1 PUSH3 0x6D SWAP2 SWAP1 PUSH3 0x266 JUMP JUMPDEST PUSH1 0x1 PUSH1 0x0 DUP1 PUSH3 0x82 PUSH3 0x1E0 PUSH1 0x20 SHL PUSH1 0x20 SHR JUMP JUMPDEST PUSH20 0xFFFFFFFFFFFFFFFFFFFFFFFFFFFFFFFFFFFFFFFF AND PUSH20 0xFFFFFFFFFFFFFFFFFFFFFFFFFFFFFFFFFFFFFFFF AND DUP2 MSTORE PUSH1 0x20 ADD SWAP1 DUP2 MSTORE PUSH1 0x20 ADD PUSH1 0x0 KECCAK256 PUSH1 0x0 PUSH2 0x100 EXP DUP2 SLOAD DUP2 PUSH1 0xFF MUL NOT AND SWAP1 DUP4 ISZERO ISZERO MUL OR SWAP1 SSTORE POP PUSH3 0xE3 PUSH3 0x1E0 PUSH1 0x20 SHL PUSH1 0x20 SHR JUMP JUMPDEST PUSH20 0xFFFFFFFFFFFFFFFFFFFFFFFFFFFFFFFFFFFFFFFF AND PUSH32 0xE529461C8529ABC0E0FE7C5EE361F74FE22E0B7574DF1FC0B7558A282091FB78 PUSH1 0x1 PUSH1 0x40 MLOAD PUSH3 0x12B SWAP2 SWAP1 PUSH3 0x2B5 JUMP JUMPDEST PUSH1 0x40 MLOAD DUP1 SWAP2 SUB SWAP1 LOG2 PUSH1 0x0 PUSH20 0xFFFFFFFFFFFFFFFFFFFFFFFFFFFFFFFFFFFFFFFF AND DUP2 PUSH20 0xFFFFFFFFFFFFFFFFFFFFFFFFFFFFFFFFFFFFFFFF AND SUB PUSH3 0x1A5 JUMPI PUSH1 0x40 MLOAD PUSH32 0x8C379A000000000000000000000000000000000000000000000000000000000 DUP2 MSTORE PUSH1 0x4 ADD PUSH3 0x19C SWAP1 PUSH3 0x333 JUMP JUMPDEST PUSH1 0x40 MLOAD DUP1 SWAP2 SUB SWAP1 REVERT JUMPDEST DUP1 PUSH20 0xFFFFFFFFFFFFFFFFFFFFFFFFFFFFFFFFFFFFFFFF AND PUSH1 0x80 DUP2 PUSH20 0xFFFFFFFFFFFFFFFFFFFFFFFFFFFFFFFFFFFFFFFF AND DUP2 MSTORE POP POP POP PUSH3 0x355 JUMP JUMPDEST PUSH1 0x0 CALLER SWAP1 POP SWAP1 JUMP JUMPDEST PUSH1 0x0 DUP1 REVERT JUMPDEST PUSH1 0x0 PUSH20 0xFFFFFFFFFFFFFFFFFFFFFFFFFFFFFFFFFFFFFFFF DUP3 AND SWAP1 POP SWAP2 SWAP1 POP JUMP JUMPDEST PUSH1 0x0 PUSH3 0x21A DUP3 PUSH3 0x1ED JUMP JUMPDEST SWAP1 POP SWAP2 SWAP1 POP JUMP JUMPDEST PUSH1 0x0 PUSH3 0x22E DUP3 PUSH3 0x20D JUMP JUMPDEST SWAP1 POP SWAP2 SWAP1 POP JUMP JUMPDEST PUSH3 0x240 DUP2 PUSH3 0x221 JUMP JUMPDEST DUP2 EQ PUSH3 0x24C JUMPI PUSH1 0x0 DUP1 REVERT JUMPDEST POP JUMP JUMPDEST PUSH1 0x0 DUP2 MLOAD SWAP1 POP PUSH3 0x260 DUP2 PUSH3 0x235 JUMP JUMPDEST SWAP3 SWAP2 POP POP JUMP JUMPDEST PUSH1 0x0 PUSH1 0x20 DUP3 DUP5 SUB SLT ISZERO PUSH3 0x27F JUMPI PUSH3 0x27E PUSH3 0x1E8 JUMP JUMPDEST JUMPDEST PUSH1 0x0 PUSH3 0x28F DUP5 DUP3 DUP6 ADD PUSH3 0x24F JUMP JUMPDEST SWAP2 POP POP SWAP3 SWAP2 POP POP JUMP JUMPDEST PUSH1 0x0 DUP2 ISZERO ISZERO SWAP1 POP SWAP2 SWAP1 POP JUMP JUMPDEST PUSH3 0x2AF DUP2 PUSH3 0x298 JUMP JUMPDEST DUP3 MSTORE POP POP JUMP JUMPDEST PUSH1 0x0 PUSH1 0x20 DUP3 ADD SWAP1 POP PUSH3 0x2CC PUSH1 0x0 DUP4 ADD DUP5 PUSH3 0x2A4 JUMP JUMPDEST SWAP3 SWAP2 POP POP JUMP JUMPDEST PUSH1 0x0 DUP3 DUP3 MSTORE PUSH1 0x20 DUP3 ADD SWAP1 POP SWAP3 SWAP2 POP POP JUMP JUMPDEST PUSH32 0x494E56414C49445F414444524553530000000000000000000000000000000000 PUSH1 0x0 DUP3 ADD MSTORE POP JUMP JUMPDEST PUSH1 0x0 PUSH3 0x31B PUSH1 0xF DUP4 PUSH3 0x2D2 JUMP JUMPDEST SWAP2 POP PUSH3 0x328 DUP3 PUSH3 0x2E3 JUMP JUMPDEST PUSH1 0x20 DUP3 ADD SWAP1 POP SWAP2 SWAP1 POP JUMP JUMPDEST PUSH1 0x0 PUSH1 0x20 DUP3 ADD SWAP1 POP DUP2 DUP2 SUB PUSH1 0x0 DUP4 ADD MSTORE PUSH3 0x34E DUP2 PUSH3 0x30C JUMP JUMPDEST SWAP1 POP SWAP2 SWAP1 POP JUMP JUMPDEST PUSH1 0x80 MLOAD PUSH2 0x424D PUSH3 0x394 PUSH1 0x0 CODECOPY PUSH1 0x0 DUP2 DUP2 PUSH2 0x9E9 ADD MSTORE DUP2 DUP2 PUSH2 0x1355 ADD MSTORE DUP2 DUP2 PUSH2 0x163F ADD MSTORE DUP2 DUP2 PUSH2 0x1754 ADD MSTORE DUP2 DUP2 PUSH2 0x1885 ADD MSTORE PUSH2 0x221B ADD MSTORE PUSH2 0x424D PUSH1 0x0 RETURN INVALID PUSH1 0x80 PUSH1 0x40 MSTORE CALLVALUE DUP1 ISZERO PUSH2 0x10 JUMPI PUSH1 0x0 DUP1 REVERT JUMPDEST POP PUSH1 0x4 CALLDATASIZE LT PUSH2 0x100 JUMPI PUSH1 0x0 CALLDATALOAD PUSH1 0xE0 SHR DUP1 PUSH4 0x7197DEC3 GT PUSH2 0x97 JUMPI DUP1 PUSH4 0xAE9741AA GT PUSH2 0x66 JUMPI DUP1 PUSH4 0xAE9741AA EQ PUSH2 0x29B JUMPI DUP1 PUSH4 0xB3A026B1 EQ PUSH2 0x2B7 JUMPI DUP1 PUSH4 0xE50373F9 EQ PUSH2 0x2D3 JUMPI DUP1 PUSH4 0xED83A4B2 EQ PUSH2 0x2EF JUMPI PUSH2 0x100 JUMP JUMPDEST DUP1 PUSH4 0x7197DEC3 EQ PUSH2 0x213 JUMPI DUP1 PUSH4 0x852E72E9 EQ PUSH2 0x231 JUMPI DUP1 PUSH4 0x89885049 EQ PUSH2 0x24D JUMPI DUP1 PUSH4 0x9D76EA58 EQ PUSH2 0x27D JUMPI PUSH2 0x100 JUMP JUMPDEST DUP1 PUSH4 0x3CCFD60B GT PUSH2 0xD3 JUMPI DUP1 PUSH4 0x3CCFD60B EQ PUSH2 0x18D JUMPI DUP1 PUSH4 0x4A0E701E EQ PUSH2 0x197 JUMPI DUP1 PUSH4 0x4B0BDDD2 EQ PUSH2 0x1C7 JUMPI DUP1 PUSH4 0x4CD3723A EQ PUSH2 0x1E3 JUMPI PUSH2 0x100 JUMP JUMPDEST DUP1 PUSH4 0x216EE41 EQ PUSH2 0x105 JUMPI DUP1 PUSH4 0x137C68FA EQ PUSH2 0x121 JUMPI DUP1 PUSH4 0x241C5B1F EQ PUSH2 0x13F JUMPI DUP1 PUSH4 0x24D7806C EQ PUSH2 0x15D JUMPI JUMPDEST PUSH1 0x0 DUP1 REVERT JUMPDEST PUSH2 0x11F PUSH1 0x4 DUP1 CALLDATASIZE SUB DUP2 ADD SWAP1 PUSH2 0x11A SWAP2 SWAP1 PUSH2 0x2949 JUMP JUMPDEST PUSH2 0x31F JUMP JUMPDEST STOP JUMPDEST PUSH2 0x129 PUSH2 0x67E JUMP JUMPDEST PUSH1 0x40 MLOAD PUSH2 0x136 SWAP2 SWAP1 PUSH2 0x299F JUMP JUMPDEST PUSH1 0x40 MLOAD DUP1 SWAP2 SUB SWAP1 RETURN JUMPDEST PUSH2 0x147 PUSH2 0x69E JUMP JUMPDEST PUSH1 0x40 MLOAD PUSH2 0x154 SWAP2 SWAP1 PUSH2 0x29D3 JUMP JUMPDEST PUSH1 0x40 MLOAD DUP1 SWAP2 SUB SWAP1 RETURN JUMPDEST PUSH2 0x177 PUSH1 0x4 DUP1 CALLDATASIZE SUB DUP2 ADD SWAP1 PUSH2 0x172 SWAP2 SWAP1 PUSH2 0x2949 JUMP JUMPDEST PUSH2 0x6AB JUMP JUMPDEST PUSH1 0x40 MLOAD PUSH2 0x184 SWAP2 SWAP1 PUSH2 0x2A09 JUMP JUMPDEST PUSH1 0x40 MLOAD DUP1 SWAP2 SUB SWAP1 RETURN JUMPDEST PUSH2 0x195 PUSH2 0x700 JUMP JUMPDEST STOP JUMPDEST PUSH2 0x1B1 PUSH1 0x4 DUP1 CALLDATASIZE SUB DUP2 ADD SWAP1 PUSH2 0x1AC SWAP2 SWAP1 PUSH2 0x2A61 JUMP JUMPDEST PUSH2 0xA89 JUMP JUMPDEST PUSH1 0x40 MLOAD PUSH2 0x1BE SWAP2 SWAP1 PUSH2 0x299F JUMP JUMPDEST PUSH1 0x40 MLOAD DUP1 SWAP2 SUB SWAP1 RETURN JUMPDEST PUSH2 0x1E1 PUSH1 0x4 DUP1 CALLDATASIZE SUB DUP2 ADD SWAP1 PUSH2 0x1DC SWAP2 SWAP1 PUSH2 0x2ACD JUMP JUMPDEST PUSH2 0xC77 JUMP JUMPDEST STOP JUMPDEST PUSH2 0x1FD PUSH1 0x4 DUP1 CALLDATASIZE SUB DUP2 ADD SWAP1 PUSH2 0x1F8 SWAP2 SWAP1 PUSH2 0x2949 JUMP JUMPDEST PUSH2 0xE20 JUMP JUMPDEST PUSH1 0x40 MLOAD PUSH2 0x20A SWAP2 SWAP1 PUSH2 0x2BDC JUMP JUMPDEST PUSH1 0x40 MLOAD DUP1 SWAP2 SUB SWAP1 RETURN JUMPDEST PUSH2 0x21B PUSH2 0x1005 JUMP JUMPDEST PUSH1 0x40 MLOAD PUSH2 0x228 SWAP2 SWAP1 PUSH2 0x2CB6 JUMP JUMPDEST PUSH1 0x40 MLOAD DUP1 SWAP2 SUB SWAP1 RETURN JUMPDEST PUSH2 0x24B PUSH1 0x4 DUP1 CALLDATASIZE SUB DUP2 ADD SWAP1 PUSH2 0x246 SWAP2 SWAP1 PUSH2 0x2D04 JUMP JUMPDEST PUSH2 0x1093 JUMP JUMPDEST STOP JUMPDEST PUSH2 0x267 PUSH1 0x4 DUP1 CALLDATASIZE SUB DUP2 ADD SWAP1 PUSH2 0x262 SWAP2 SWAP1 PUSH2 0x2949 JUMP JUMPDEST PUSH2 0x113D JUMP JUMPDEST PUSH1 0x40 MLOAD PUSH2 0x274 SWAP2 SWAP1 PUSH2 0x299F JUMP JUMPDEST PUSH1 0x40 MLOAD DUP1 SWAP2 SUB SWAP1 RETURN JUMPDEST PUSH2 0x285 PUSH2 0x1353 JUMP JUMPDEST PUSH1 0x40 MLOAD PUSH2 0x292 SWAP2 SWAP1 PUSH2 0x2E05 JUMP JUMPDEST PUSH1 0x40 MLOAD DUP1 SWAP2 SUB SWAP1 RETURN JUMPDEST PUSH2 0x2B5 PUSH1 0x4 DUP1 CALLDATASIZE SUB DUP2 ADD SWAP1 PUSH2 0x2B0 SWAP2 SWAP1 PUSH2 0x30FF JUMP JUMPDEST PUSH2 0x1377 JUMP JUMPDEST STOP JUMPDEST PUSH2 0x2D1 PUSH1 0x4 DUP1 CALLDATASIZE SUB DUP2 ADD SWAP1 PUSH2 0x2CC SWAP2 SWAP1 PUSH2 0x3265 JUMP JUMPDEST PUSH2 0x157C JUMP JUMPDEST STOP JUMPDEST PUSH2 0x2ED PUSH1 0x4 DUP1 CALLDATASIZE SUB DUP2 ADD SWAP1 PUSH2 0x2E8 SWAP2 SWAP1 PUSH2 0x32D0 JUMP JUMPDEST PUSH2 0x17F1 JUMP JUMPDEST STOP JUMPDEST PUSH2 0x309 PUSH1 0x4 DUP1 CALLDATASIZE SUB DUP2 ADD SWAP1 PUSH2 0x304 SWAP2 SWAP1 PUSH2 0x2949 JUMP JUMPDEST PUSH2 0x1A08 JUMP JUMPDEST PUSH1 0x40 MLOAD PUSH2 0x316 SWAP2 SWAP1 PUSH2 0x299F JUMP JUMPDEST PUSH1 0x40 MLOAD DUP1 SWAP2 SUB SWAP1 RETURN JUMPDEST PUSH1 0x0 DUP1 PUSH2 0x32A PUSH2 0x1C0A JUMP JUMPDEST PUSH20 0xFFFFFFFFFFFFFFFFFFFFFFFFFFFFFFFFFFFFFFFF AND PUSH20 0xFFFFFFFFFFFFFFFFFFFFFFFFFFFFFFFFFFFFFFFF AND DUP2 MSTORE PUSH1 0x20 ADD SWAP1 DUP2 MSTORE PUSH1 0x20 ADD PUSH1 0x0 KECCAK256 PUSH1 0x0 SWAP1 SLOAD SWAP1 PUSH2 0x100 EXP SWAP1 DIV PUSH1 0xFF AND PUSH2 0x3B1 JUMPI PUSH1 0x40 MLOAD PUSH32 0x8C379A000000000000000000000000000000000000000000000000000000000 DUP2 MSTORE PUSH1 0x4 ADD PUSH2 0x3A8 SWAP1 PUSH2 0x335A JUMP JUMPDEST PUSH1 0x40 MLOAD DUP1 SWAP2 SUB SWAP1 REVERT JUMPDEST DUP1 PUSH1 0x0 PUSH1 0x2 PUSH1 0x0 DUP4 PUSH20 0xFFFFFFFFFFFFFFFFFFFFFFFFFFFFFFFFFFFFFFFF AND PUSH20 0xFFFFFFFFFFFFFFFFFFFFFFFFFFFFFFFFFFFFFFFF AND DUP2 MSTORE PUSH1 0x20 ADD SWAP1 DUP2 MSTORE PUSH1 0x20 ADD PUSH1 0x0 KECCAK256 SWAP1 POP PUSH1 0x0 DUP2 PUSH1 0x0 ADD PUSH1 0x0 SWAP1 SLOAD SWAP1 PUSH2 0x100 EXP SWAP1 DIV PUSH5 0xFFFFFFFFFF AND PUSH5 0xFFFFFFFFFF AND GT PUSH2 0x454 JUMPI PUSH1 0x40 MLOAD PUSH32 0x8C379A000000000000000000000000000000000000000000000000000000000 DUP2 MSTORE PUSH1 0x4 ADD PUSH2 0x44B SWAP1 PUSH2 0x33C6 JUMP JUMPDEST PUSH1 0x40 MLOAD DUP1 SWAP2 SUB SWAP1 REVERT JUMPDEST PUSH1 0x1 ISZERO ISZERO DUP2 PUSH1 0x2 ADD PUSH1 0xE SWAP1 SLOAD SWAP1 PUSH2 0x100 EXP SWAP1 DIV PUSH1 0xFF AND ISZERO ISZERO EQ PUSH2 0x4AC JUMPI PUSH1 0x40 MLOAD PUSH32 0x8C379A000000000000000000000000000000000000000000000000000000000 DUP2 MSTORE PUSH1 0x4 ADD PUSH2 0x4A3 SWAP1 PUSH2 0x33C6 JUMP JUMPDEST PUSH1 0x40 MLOAD DUP1 SWAP2 SUB SWAP1 REVERT JUMPDEST PUSH1 0x0 PUSH1 0x2 PUSH1 0x0 DUP6 PUSH20 0xFFFFFFFFFFFFFFFFFFFFFFFFFFFFFFFFFFFFFFFF AND PUSH20 0xFFFFFFFFFFFFFFFFFFFFFFFFFFFFFFFFFFFFFFFF AND DUP2 MSTORE PUSH1 0x20 ADD SWAP1 DUP2 MSTORE PUSH1 0x20 ADD PUSH1 0x0 KECCAK256 SWAP1 POP PUSH1 0x0 PUSH2 0x4FA DUP6 PUSH2 0x1A08 JUMP JUMPDEST SWAP1 POP DUP1 PUSH14 0xFFFFFFFFFFFFFFFFFFFFFFFFFFFF AND DUP3 PUSH1 0x2 ADD PUSH1 0x0 SWAP1 SLOAD SWAP1 PUSH2 0x100 EXP SWAP1 DIV PUSH14 0xFFFFFFFFFFFFFFFFFFFFFFFFFFFF AND PUSH14 0xFFFFFFFFFFFFFFFFFFFFFFFFFFFF AND LT PUSH2 0x57C JUMPI PUSH1 0x40 MLOAD PUSH32 0x8C379A000000000000000000000000000000000000000000000000000000000 DUP2 MSTORE PUSH1 0x4 ADD PUSH2 0x573 SWAP1 PUSH2 0x3432 JUMP JUMPDEST PUSH1 0x40 MLOAD DUP1 SWAP2 SUB SWAP1 REVERT JUMPDEST PUSH1 0x0 DUP3 PUSH1 0x2 ADD PUSH1 0x0 SWAP1 SLOAD SWAP1 PUSH2 0x100 EXP SWAP1 DIV PUSH14 0xFFFFFFFFFFFFFFFFFFFFFFFFFFFF AND DUP3 PUSH2 0x5A8 SWAP2 SWAP1 PUSH2 0x3481 JUMP JUMPDEST SWAP1 POP PUSH1 0x0 DUP4 PUSH1 0x2 ADD PUSH1 0xE PUSH2 0x100 EXP DUP2 SLOAD DUP2 PUSH1 0xFF MUL NOT AND SWAP1 DUP4 ISZERO ISZERO MUL OR SWAP1 SSTORE POP DUP1 PUSH1 0x1 PUSH1 0x0 DUP3 DUP3 DUP3 SWAP1 SLOAD SWAP1 PUSH2 0x100 EXP SWAP1 DIV PUSH14 0xFFFFFFFFFFFFFFFFFFFFFFFFFFFF AND PUSH2 0x5F2 SWAP2 SWAP1 PUSH2 0x3481 JUMP JUMPDEST SWAP3 POP PUSH2 0x100 EXP DUP2 SLOAD DUP2 PUSH14 0xFFFFFFFFFFFFFFFFFFFFFFFFFFFF MUL NOT AND SWAP1 DUP4 PUSH14 0xFFFFFFFFFFFFFFFFFFFFFFFFFFFF AND MUL OR SWAP1 SSTORE POP DUP6 PUSH20 0xFFFFFFFFFFFFFFFFFFFFFFFFFFFFFFFFFFFFFFFF AND PUSH32 0x33DD3909387F8E5A36BE260DDD69080DEF445805AF1761F8BDF809F81658BE57 DUP3 TIMESTAMP DUP7 PUSH1 0x40 MLOAD PUSH2 0x66E SWAP4 SWAP3 SWAP2 SWAP1 PUSH2 0x36EE JUMP JUMPDEST PUSH1 0x40 MLOAD DUP1 SWAP2 SUB SWAP1 LOG2 POP POP POP POP POP POP JUMP JUMPDEST PUSH1 0x1 PUSH1 0x0 SWAP1 SLOAD SWAP1 PUSH2 0x100 EXP SWAP1 DIV PUSH14 0xFFFFFFFFFFFFFFFFFFFFFFFFFFFF AND DUP2 JUMP JUMPDEST PUSH1 0x0 PUSH1 0x3 DUP1 SLOAD SWAP1 POP SWAP1 POP SWAP1 JUMP JUMPDEST PUSH1 0x0 DUP1 PUSH1 0x0 DUP4 PUSH20 0xFFFFFFFFFFFFFFFFFFFFFFFFFFFFFFFFFFFFFFFF AND PUSH20 0xFFFFFFFFFFFFFFFFFFFFFFFFFFFFFFFFFFFFFFFF AND DUP2 MSTORE PUSH1 0x20 ADD SWAP1 DUP2 MSTORE PUSH1 0x20 ADD PUSH1 0x0 KECCAK256 PUSH1 0x0 SWAP1 SLOAD SWAP1 PUSH2 0x100 EXP SWAP1 DIV PUSH1 0xFF AND SWAP1 POP SWAP2 SWAP1 POP JUMP JUMPDEST PUSH2 0x708 PUSH2 0x1C0A JUMP JUMPDEST PUSH1 0x0 PUSH1 0x2 PUSH1 0x0 DUP4 PUSH20 0xFFFFFFFFFFFFFFFFFFFFFFFFFFFFFFFFFFFFFFFF AND PUSH20 0xFFFFFFFFFFFFFFFFFFFFFFFFFFFFFFFFFFFFFFFF AND DUP2 MSTORE PUSH1 0x20 ADD SWAP1 DUP2 MSTORE PUSH1 0x20 ADD PUSH1 0x0 KECCAK256 SWAP1 POP PUSH1 0x0 DUP2 PUSH1 0x0 ADD PUSH1 0x0 SWAP1 SLOAD SWAP1 PUSH2 0x100 EXP SWAP1 DIV PUSH5 0xFFFFFFFFFF AND PUSH5 0xFFFFFFFFFF AND GT PUSH2 0x7AA JUMPI PUSH1 0x40 MLOAD PUSH32 0x8C379A000000000000000000000000000000000000000000000000000000000 DUP2 MSTORE PUSH1 0x4 ADD PUSH2 0x7A1 SWAP1 PUSH2 0x33C6 JUMP JUMPDEST PUSH1 0x40 MLOAD DUP1 SWAP2 SUB SWAP1 REVERT JUMPDEST PUSH1 0x1 ISZERO ISZERO DUP2 PUSH1 0x2 ADD PUSH1 0xE SWAP1 SLOAD SWAP1 PUSH2 0x100 EXP SWAP1 DIV PUSH1 0xFF AND ISZERO ISZERO EQ PUSH2 0x802 JUMPI PUSH1 0x40 MLOAD PUSH32 0x8C379A000000000000000000000000000000000000000000000000000000000 DUP2 MSTORE PUSH1 0x4 ADD PUSH2 0x7F9 SWAP1 PUSH2 0x33C6 JUMP JUMPDEST PUSH1 0x40 MLOAD DUP1 SWAP2 SUB SWAP1 REVERT JUMPDEST PUSH1 0x0 PUSH1 0x2 PUSH1 0x0 PUSH2 0x810 PUSH2 0x1C0A JUMP JUMPDEST PUSH20 0xFFFFFFFFFFFFFFFFFFFFFFFFFFFFFFFFFFFFFFFF AND PUSH20 0xFFFFFFFFFFFFFFFFFFFFFFFFFFFFFFFFFFFFFFFF AND DUP2 MSTORE PUSH1 0x20 ADD SWAP1 DUP2 MSTORE PUSH1 0x20 ADD PUSH1 0x0 KECCAK256 SWAP1 POP PUSH1 0x0 PUSH2 0x85F PUSH2 0x859 PUSH2 0x1C0A JUMP JUMPDEST TIMESTAMP PUSH2 0xA89 JUMP JUMPDEST SWAP1 POP DUP2 PUSH1 0x2 ADD PUSH1 0x0 SWAP1 SLOAD SWAP1 PUSH2 0x100 EXP SWAP1 DIV PUSH14 0xFFFFFFFFFFFFFFFFFFFFFFFFFFFF AND PUSH14 0xFFFFFFFFFFFFFFFFFFFFFFFFFFFF AND DUP2 PUSH14 0xFFFFFFFFFFFFFFFFFFFFFFFFFFFF AND GT PUSH2 0x8E1 JUMPI PUSH1 0x40 MLOAD PUSH32 0x8C379A000000000000000000000000000000000000000000000000000000000 DUP2 MSTORE PUSH1 0x4 ADD PUSH2 0x8D8 SWAP1 PUSH2 0x3772 JUMP JUMPDEST PUSH1 0x40 MLOAD DUP1 SWAP2 SUB SWAP1 REVERT JUMPDEST PUSH1 0x0 DUP3 PUSH1 0x2 ADD PUSH1 0x0 SWAP1 SLOAD SWAP1 PUSH2 0x100 EXP SWAP1 DIV PUSH14 0xFFFFFFFFFFFFFFFFFFFFFFFFFFFF AND DUP3 PUSH2 0x90D SWAP2 SWAP1 PUSH2 0x3481 JUMP JUMPDEST SWAP1 POP DUP1 DUP4 PUSH1 0x2 ADD PUSH1 0x0 DUP3 DUP3 DUP3 SWAP1 SLOAD SWAP1 PUSH2 0x100 EXP SWAP1 DIV PUSH14 0xFFFFFFFFFFFFFFFFFFFFFFFFFFFF AND PUSH2 0x93C SWAP2 SWAP1 PUSH2 0x3792 JUMP JUMPDEST SWAP3 POP PUSH2 0x100 EXP DUP2 SLOAD DUP2 PUSH14 0xFFFFFFFFFFFFFFFFFFFFFFFFFFFF MUL NOT AND SWAP1 DUP4 PUSH14 0xFFFFFFFFFFFFFFFFFFFFFFFFFFFF AND MUL OR SWAP1 SSTORE POP DUP1 PUSH1 0x1 PUSH1 0x0 DUP3 DUP3 DUP3 SWAP1 SLOAD SWAP1 PUSH2 0x100 EXP SWAP1 DIV PUSH14 0xFFFFFFFFFFFFFFFFFFFFFFFFFFFF AND PUSH2 0x999 SWAP2 SWAP1 PUSH2 0x3481 JUMP JUMPDEST SWAP3 POP PUSH2 0x100 EXP DUP2 SLOAD DUP2 PUSH14 0xFFFFFFFFFFFFFFFFFFFFFFFFFFFF MUL NOT AND SWAP1 DUP4 PUSH14 0xFFFFFFFFFFFFFFFFFFFFFFFFFFFF AND MUL OR SWAP1 SSTORE POP PUSH2 0xA2D PUSH2 0x9D6 PUSH2 0x1C0A JUMP JUMPDEST DUP3 PUSH14 0xFFFFFFFFFFFFFFFFFFFFFFFFFFFF AND PUSH32 0x0 PUSH20 0xFFFFFFFFFFFFFFFFFFFFFFFFFFFFFFFFFFFFFFFF AND PUSH2 0x1C12 SWAP1 SWAP3 SWAP2 SWAP1 PUSH4 0xFFFFFFFF AND JUMP JUMPDEST PUSH2 0xA35 PUSH2 0x1C0A JUMP JUMPDEST PUSH20 0xFFFFFFFFFFFFFFFFFFFFFFFFFFFFFFFFFFFFFFFF AND PUSH32 0x27FEBD2CE374435F33B4D2A794A201DF2F20A352431A123B1BB385FE6A0E0730 DUP3 PUSH1 0x40 MLOAD PUSH2 0xA7A SWAP2 SWAP1 PUSH2 0x299F JUMP JUMPDEST PUSH1 0x40 MLOAD DUP1 SWAP2 SUB SWAP1 LOG2 POP POP POP POP POP JUMP JUMPDEST PUSH1 0x0 DUP1 PUSH1 0x2 PUSH1 0x0 DUP6 PUSH20 0xFFFFFFFFFFFFFFFFFFFFFFFFFFFFFFFFFFFFFFFF AND PUSH20 0xFFFFFFFFFFFFFFFFFFFFFFFFFFFFFFFFFFFFFFFF AND DUP2 MSTORE PUSH1 0x20 ADD SWAP1 DUP2 MSTORE PUSH1 0x20 ADD PUSH1 0x0 KECCAK256 SWAP1 POP PUSH2 0xC6E DUP2 PUSH1 0x40 MLOAD DUP1 PUSH2 0x100 ADD PUSH1 0x40 MSTORE SWAP1 DUP2 PUSH1 0x0 DUP3 ADD PUSH1 0x0 SWAP1 SLOAD SWAP1 PUSH2 0x100 EXP SWAP1 DIV PUSH5 0xFFFFFFFFFF AND PUSH5 0xFFFFFFFFFF AND PUSH5 0xFFFFFFFFFF AND DUP2 MSTORE PUSH1 0x20 ADD PUSH1 0x0 DUP3 ADD PUSH1 0x5 SWAP1 SLOAD SWAP1 PUSH2 0x100 EXP SWAP1 DIV PUSH5 0xFFFFFFFFFF AND PUSH5 0xFFFFFFFFFF AND PUSH5 0xFFFFFFFFFF AND DUP2 MSTORE PUSH1 0x20 ADD PUSH1 0x0 DUP3 ADD PUSH1 0xA SWAP1 SLOAD SWAP1 PUSH2 0x100 EXP SWAP1 DIV PUSH5 0xFFFFFFFFFF AND PUSH5 0xFFFFFFFFFF AND PUSH5 0xFFFFFFFFFF AND DUP2 MSTORE PUSH1 0x20 ADD PUSH1 0x0 DUP3 ADD PUSH1 0xF SWAP1 SLOAD SWAP1 PUSH2 0x100 EXP SWAP1 DIV PUSH5 0xFFFFFFFFFF AND PUSH5 0xFFFFFFFFFF AND PUSH5 0xFFFFFFFFFF AND DUP2 MSTORE PUSH1 0x20 ADD PUSH1 0x1 DUP3 ADD PUSH1 0x0 SWAP1 SLOAD SWAP1 PUSH2 0x100 EXP SWAP1 DIV PUSH14 0xFFFFFFFFFFFFFFFFFFFFFFFFFFFF AND PUSH14 0xFFFFFFFFFFFFFFFFFFFFFFFFFFFF AND PUSH14 0xFFFFFFFFFFFFFFFFFFFFFFFFFFFF AND DUP2 MSTORE PUSH1 0x20 ADD PUSH1 0x1 DUP3 ADD PUSH1 0xE SWAP1 SLOAD SWAP1 PUSH2 0x100 EXP SWAP1 DIV PUSH14 0xFFFFFFFFFFFFFFFFFFFFFFFFFFFF AND PUSH14 0xFFFFFFFFFFFFFFFFFFFFFFFFFFFF AND PUSH14 0xFFFFFFFFFFFFFFFFFFFFFFFFFFFF AND DUP2 MSTORE PUSH1 0x20 ADD PUSH1 0x2 DUP3 ADD PUSH1 0x0 SWAP1 SLOAD SWAP1 PUSH2 0x100 EXP SWAP1 DIV PUSH14 0xFFFFFFFFFFFFFFFFFFFFFFFFFFFF AND PUSH14 0xFFFFFFFFFFFFFFFFFFFFFFFFFFFF AND PUSH14 0xFFFFFFFFFFFFFFFFFFFFFFFFFFFF AND DUP2 MSTORE PUSH1 0x20 ADD PUSH1 0x2 DUP3 ADD PUSH1 0xE SWAP1 SLOAD SWAP1 PUSH2 0x100 EXP SWAP1 DIV PUSH1 0xFF AND ISZERO ISZERO ISZERO ISZERO DUP2 MSTORE POP POP DUP5 PUSH2 0x1C98 JUMP JUMPDEST SWAP2 POP POP SWAP3 SWAP2 POP POP JUMP JUMPDEST PUSH1 0x0 DUP1 PUSH2 0xC82 PUSH2 0x1C0A JUMP JUMPDEST PUSH20 0xFFFFFFFFFFFFFFFFFFFFFFFFFFFFFFFFFFFFFFFF AND PUSH20 0xFFFFFFFFFFFFFFFFFFFFFFFFFFFFFFFFFFFFFFFF AND DUP2 MSTORE PUSH1 0x20 ADD SWAP1 DUP2 MSTORE PUSH1 0x20 ADD PUSH1 0x0 KECCAK256 PUSH1 0x0 SWAP1 SLOAD SWAP1 PUSH2 0x100 EXP SWAP1 DIV PUSH1 0xFF AND PUSH2 0xD09 JUMPI PUSH1 0x40 MLOAD PUSH32 0x8C379A000000000000000000000000000000000000000000000000000000000 DUP2 MSTORE PUSH1 0x4 ADD PUSH2 0xD00 SWAP1 PUSH2 0x335A JUMP JUMPDEST PUSH1 0x40 MLOAD DUP1 SWAP2 SUB SWAP1 REVERT JUMPDEST PUSH1 0x0 PUSH20 0xFFFFFFFFFFFFFFFFFFFFFFFFFFFFFFFFFFFFFFFF AND DUP3 PUSH20 0xFFFFFFFFFFFFFFFFFFFFFFFFFFFFFFFFFFFFFFFF AND SUB PUSH2 0xD78 JUMPI PUSH1 0x40 MLOAD PUSH32 0x8C379A000000000000000000000000000000000000000000000000000000000 DUP2 MSTORE PUSH1 0x4 ADD PUSH2 0xD6F SWAP1 PUSH2 0x3822 JUMP JUMPDEST PUSH1 0x40 MLOAD DUP1 SWAP2 SUB SWAP1 REVERT JUMPDEST DUP1 PUSH1 0x0 DUP1 DUP5 PUSH20 0xFFFFFFFFFFFFFFFFFFFFFFFFFFFFFFFFFFFFFFFF AND PUSH20 0xFFFFFFFFFFFFFFFFFFFFFFFFFFFFFFFFFFFFFFFF AND DUP2 MSTORE PUSH1 0x20 ADD SWAP1 DUP2 MSTORE PUSH1 0x20 ADD PUSH1 0x0 KECCAK256 PUSH1 0x0 PUSH2 0x100 EXP DUP2 SLOAD DUP2 PUSH1 0xFF MUL NOT AND SWAP1 DUP4 ISZERO ISZERO MUL OR SWAP1 SSTORE POP DUP2 PUSH20 0xFFFFFFFFFFFFFFFFFFFFFFFFFFFFFFFFFFFFFFFF AND PUSH32 0xE529461C8529ABC0E0FE7C5EE361F74FE22E0B7574DF1FC0B7558A282091FB78 DUP3 PUSH1 0x40 MLOAD PUSH2 0xE14 SWAP2 SWAP1 PUSH2 0x2A09 JUMP JUMPDEST PUSH1 0x40 MLOAD DUP1 SWAP2 SUB SWAP1 LOG2 POP POP JUMP JUMPDEST PUSH2 0xE28 PUSH2 0x2844 JUMP JUMPDEST PUSH1 0x2 PUSH1 0x0 DUP4 PUSH20 0xFFFFFFFFFFFFFFFFFFFFFFFFFFFFFFFFFFFFFFFF AND PUSH20 0xFFFFFFFFFFFFFFFFFFFFFFFFFFFFFFFFFFFFFFFF AND DUP2 MSTORE PUSH1 0x20 ADD SWAP1 DUP2 MSTORE PUSH1 0x20 ADD PUSH1 0x0 KECCAK256 PUSH1 0x40 MLOAD DUP1 PUSH2 0x100 ADD PUSH1 0x40 MSTORE SWAP1 DUP2 PUSH1 0x0 DUP3 ADD PUSH1 0x0 SWAP1 SLOAD SWAP1 PUSH2 0x100 EXP SWAP1 DIV PUSH5 0xFFFFFFFFFF AND PUSH5 0xFFFFFFFFFF AND PUSH5 0xFFFFFFFFFF AND DUP2 MSTORE PUSH1 0x20 ADD PUSH1 0x0 DUP3 ADD PUSH1 0x5 SWAP1 SLOAD SWAP1 PUSH2 0x100 EXP SWAP1 DIV PUSH5 0xFFFFFFFFFF AND PUSH5 0xFFFFFFFFFF AND PUSH5 0xFFFFFFFFFF AND DUP2 MSTORE PUSH1 0x20 ADD PUSH1 0x0 DUP3 ADD PUSH1 0xA SWAP1 SLOAD SWAP1 PUSH2 0x100 EXP SWAP1 DIV PUSH5 0xFFFFFFFFFF AND PUSH5 0xFFFFFFFFFF AND PUSH5 0xFFFFFFFFFF AND DUP2 MSTORE PUSH1 0x20 ADD PUSH1 0x0 DUP3 ADD PUSH1 0xF SWAP1 SLOAD SWAP1 PUSH2 0x100 EXP SWAP1 DIV PUSH5 0xFFFFFFFFFF AND PUSH5 0xFFFFFFFFFF AND PUSH5 0xFFFFFFFFFF AND DUP2 MSTORE PUSH1 0x20 ADD PUSH1 0x1 DUP3 ADD PUSH1 0x0 SWAP1 SLOAD SWAP1 PUSH2 0x100 EXP SWAP1 DIV PUSH14 0xFFFFFFFFFFFFFFFFFFFFFFFFFFFF AND PUSH14 0xFFFFFFFFFFFFFFFFFFFFFFFFFFFF AND PUSH14 0xFFFFFFFFFFFFFFFFFFFFFFFFFFFF AND DUP2 MSTORE PUSH1 0x20 ADD PUSH1 0x1 DUP3 ADD PUSH1 0xE SWAP1 SLOAD SWAP1 PUSH2 0x100 EXP SWAP1 DIV PUSH14 0xFFFFFFFFFFFFFFFFFFFFFFFFFFFF AND PUSH14 0xFFFFFFFFFFFFFFFFFFFFFFFFFFFF AND PUSH14 0xFFFFFFFFFFFFFFFFFFFFFFFFFFFF AND DUP2 MSTORE PUSH1 0x20 ADD PUSH1 0x2 DUP3 ADD PUSH1 0x0 SWAP1 SLOAD SWAP1 PUSH2 0x100 EXP SWAP1 DIV PUSH14 0xFFFFFFFFFFFFFFFFFFFFFFFFFFFF AND PUSH14 0xFFFFFFFFFFFFFFFFFFFFFFFFFFFF AND PUSH14 0xFFFFFFFFFFFFFFFFFFFFFFFFFFFF AND DUP2 MSTORE PUSH1 0x20 ADD PUSH1 0x2 DUP3 ADD PUSH1 0xE SWAP1 SLOAD SWAP1 PUSH2 0x100 EXP SWAP1 DIV PUSH1 0xFF AND ISZERO ISZERO ISZERO ISZERO DUP2 MSTORE POP POP SWAP1 POP SWAP2 SWAP1 POP JUMP JUMPDEST PUSH1 0x60 PUSH1 0x3 DUP1 SLOAD DUP1 PUSH1 0x20 MUL PUSH1 0x20 ADD PUSH1 0x40 MLOAD SWAP1 DUP2 ADD PUSH1 0x40 MSTORE DUP1 SWAP3 SWAP2 SWAP1 DUP2 DUP2 MSTORE PUSH1 0x20 ADD DUP3 DUP1 SLOAD DUP1 ISZERO PUSH2 0x1089 JUMPI PUSH1 0x20 MUL DUP3 ADD SWAP2 SWAP1 PUSH1 0x0 MSTORE PUSH1 0x20 PUSH1 0x0 KECCAK256 SWAP1 JUMPDEST DUP2 PUSH1 0x0 SWAP1 SLOAD SWAP1 PUSH2 0x100 EXP SWAP1 DIV PUSH20 0xFFFFFFFFFFFFFFFFFFFFFFFFFFFFFFFFFFFFFFFF AND PUSH20 0xFFFFFFFFFFFFFFFFFFFFFFFFFFFFFFFFFFFFFFFF AND DUP2 MSTORE PUSH1 0x20 ADD SWAP1 PUSH1 0x1 ADD SWAP1 DUP1 DUP4 GT PUSH2 0x103F JUMPI JUMPDEST POP POP POP POP POP SWAP1 POP SWAP1 JUMP JUMPDEST PUSH1 0x0 DUP1 PUSH2 0x109E PUSH2 0x1C0A JUMP JUMPDEST PUSH20 0xFFFFFFFFFFFFFFFFFFFFFFFFFFFFFFFFFFFFFFFF AND PUSH20 0xFFFFFFFFFFFFFFFFFFFFFFFFFFFFFFFFFFFFFFFF AND DUP2 MSTORE PUSH1 0x20 ADD SWAP1 DUP2 MSTORE PUSH1 0x20 ADD PUSH1 0x0 KECCAK256 PUSH1 0x0 SWAP1 SLOAD SWAP1 PUSH2 0x100 EXP SWAP1 DIV PUSH1 0xFF AND PUSH2 0x1125 JUMPI PUSH1 0x40 MLOAD PUSH32 0x8C379A000000000000000000000000000000000000000000000000000000000 DUP2 MSTORE PUSH1 0x4 ADD PUSH2 0x111C SWAP1 PUSH2 0x335A JUMP JUMPDEST PUSH1 0x40 MLOAD DUP1 SWAP2 SUB SWAP1 REVERT JUMPDEST PUSH2 0x1134 DUP8 DUP8 DUP8 DUP8 DUP8 DUP8 DUP8 PUSH2 0x1DE1 JUMP JUMPDEST POP POP POP POP POP POP POP JUMP JUMPDEST PUSH1 0x0 DUP1 PUSH1 0x2 PUSH1 0x0 DUP5 PUSH20 0xFFFFFFFFFFFFFFFFFFFFFFFFFFFFFFFFFFFFFFFF AND PUSH20 0xFFFFFFFFFFFFFFFFFFFFFFFFFFFFFFFFFFFFFFFF AND DUP2 MSTORE PUSH1 0x20 ADD SWAP1 DUP2 MSTORE PUSH1 0x20 ADD PUSH1 0x0 KECCAK256 SWAP1 POP DUP1 PUSH1 0x2 ADD PUSH1 0x0 SWAP1 SLOAD SWAP1 PUSH2 0x100 EXP SWAP1 DIV PUSH14 0xFFFFFFFFFFFFFFFFFFFFFFFFFFFF AND PUSH2 0x1341 DUP3 PUSH1 0x40 MLOAD DUP1 PUSH2 0x100 ADD PUSH1 0x40 MSTORE SWAP1 DUP2 PUSH1 0x0 DUP3 ADD PUSH1 0x0 SWAP1 SLOAD SWAP1 PUSH2 0x100 EXP SWAP1 DIV PUSH5 0xFFFFFFFFFF AND PUSH5 0xFFFFFFFFFF AND PUSH5 0xFFFFFFFFFF AND DUP2 MSTORE PUSH1 0x20 ADD PUSH1 0x0 DUP3 ADD PUSH1 0x5 SWAP1 SLOAD SWAP1 PUSH2 0x100 EXP SWAP1 DIV PUSH5 0xFFFFFFFFFF AND PUSH5 0xFFFFFFFFFF AND PUSH5 0xFFFFFFFFFF AND DUP2 MSTORE PUSH1 0x20 ADD PUSH1 0x0 DUP3 ADD PUSH1 0xA SWAP1 SLOAD SWAP1 PUSH2 0x100 EXP SWAP1 DIV PUSH5 0xFFFFFFFFFF AND PUSH5 0xFFFFFFFFFF AND PUSH5 0xFFFFFFFFFF AND DUP2 MSTORE PUSH1 0x20 ADD PUSH1 0x0 DUP3 ADD PUSH1 0xF SWAP1 SLOAD SWAP1 PUSH2 0x100 EXP SWAP1 DIV PUSH5 0xFFFFFFFFFF AND PUSH5 0xFFFFFFFFFF AND PUSH5 0xFFFFFFFFFF AND DUP2 MSTORE PUSH1 0x20 ADD PUSH1 0x1 DUP3 ADD PUSH1 0x0 SWAP1 SLOAD SWAP1 PUSH2 0x100 EXP SWAP1 DIV PUSH14 0xFFFFFFFFFFFFFFFFFFFFFFFFFFFF AND PUSH14 0xFFFFFFFFFFFFFFFFFFFFFFFFFFFF AND PUSH14 0xFFFFFFFFFFFFFFFFFFFFFFFFFFFF AND DUP2 MSTORE PUSH1 0x20 ADD PUSH1 0x1 DUP3 ADD PUSH1 0xE SWAP1 SLOAD SWAP1 PUSH2 0x100 EXP SWAP1 DIV PUSH14 0xFFFFFFFFFFFFFFFFFFFFFFFFFFFF AND PUSH14 0xFFFFFFFFFFFFFFFFFFFFFFFFFFFF AND PUSH14 0xFFFFFFFFFFFFFFFFFFFFFFFFFFFF AND DUP2 MSTORE PUSH1 0x20 ADD PUSH1 0x2 DUP3 ADD PUSH1 0x0 SWAP1 SLOAD SWAP1 PUSH2 0x100 EXP SWAP1 DIV PUSH14 0xFFFFFFFFFFFFFFFFFFFFFFFFFFFF AND PUSH14 0xFFFFFFFFFFFFFFFFFFFFFFFFFFFF AND PUSH14 0xFFFFFFFFFFFFFFFFFFFFFFFFFFFF AND DUP2 MSTORE PUSH1 0x20 ADD PUSH1 0x2 DUP3 ADD PUSH1 0xE SWAP1 SLOAD SWAP1 PUSH2 0x100 EXP SWAP1 DIV PUSH1 0xFF AND ISZERO ISZERO ISZERO ISZERO DUP2 MSTORE POP POP TIMESTAMP PUSH2 0x1C98 JUMP JUMPDEST PUSH2 0x134B SWAP2 SWAP1 PUSH2 0x3481 JUMP JUMPDEST SWAP2 POP POP SWAP2 SWAP1 POP JUMP JUMPDEST PUSH32 0x0 DUP2 JUMP JUMPDEST PUSH1 0x0 DUP1 PUSH2 0x1382 PUSH2 0x1C0A JUMP JUMPDEST PUSH20 0xFFFFFFFFFFFFFFFFFFFFFFFFFFFFFFFFFFFFFFFF AND PUSH20 0xFFFFFFFFFFFFFFFFFFFFFFFFFFFFFFFFFFFFFFFF AND DUP2 MSTORE PUSH1 0x20 ADD SWAP1 DUP2 MSTORE PUSH1 0x20 ADD PUSH1 0x0 KECCAK256 PUSH1 0x0 SWAP1 SLOAD SWAP1 PUSH2 0x100 EXP SWAP1 DIV PUSH1 0xFF AND PUSH2 0x1409 JUMPI PUSH1 0x40 MLOAD PUSH32 0x8C379A000000000000000000000000000000000000000000000000000000000 DUP2 MSTORE PUSH1 0x4 ADD PUSH2 0x1400 SWAP1 PUSH2 0x335A JUMP JUMPDEST PUSH1 0x40 MLOAD DUP1 SWAP2 SUB SWAP1 REVERT JUMPDEST PUSH1 0x0 DUP8 MLOAD SWAP1 POP DUP1 DUP8 MLOAD EQ DUP1 ISZERO PUSH2 0x141F JUMPI POP DUP1 DUP7 MLOAD EQ JUMPDEST DUP1 ISZERO PUSH2 0x142B JUMPI POP DUP1 DUP6 MLOAD EQ JUMPDEST DUP1 ISZERO PUSH2 0x1437 JUMPI POP DUP1 DUP5 MLOAD EQ JUMPDEST DUP1 ISZERO PUSH2 0x1443 JUMPI POP DUP1 DUP4 MLOAD EQ JUMPDEST DUP1 ISZERO PUSH2 0x144F JUMPI POP DUP1 DUP3 MLOAD EQ JUMPDEST PUSH2 0x148E JUMPI PUSH1 0x40 MLOAD PUSH32 0x8C379A000000000000000000000000000000000000000000000000000000000 DUP2 MSTORE PUSH1 0x4 ADD PUSH2 0x1485 SWAP1 PUSH2 0x388E JUMP JUMPDEST PUSH1 0x40 MLOAD DUP1 SWAP2 SUB SWAP1 REVERT JUMPDEST PUSH1 0x0 JUMPDEST DUP2 DUP2 LT ISZERO PUSH2 0x1571 JUMPI PUSH2 0x155E DUP10 DUP3 DUP2 MLOAD DUP2 LT PUSH2 0x14AF JUMPI PUSH2 0x14AE PUSH2 0x38AE JUMP JUMPDEST JUMPDEST PUSH1 0x20 MUL PUSH1 0x20 ADD ADD MLOAD DUP10 DUP4 DUP2 MLOAD DUP2 LT PUSH2 0x14CA JUMPI PUSH2 0x14C9 PUSH2 0x38AE JUMP JUMPDEST JUMPDEST PUSH1 0x20 MUL PUSH1 0x20 ADD ADD MLOAD DUP10 DUP5 DUP2 MLOAD DUP2 LT PUSH2 0x14E5 JUMPI PUSH2 0x14E4 PUSH2 0x38AE JUMP JUMPDEST JUMPDEST PUSH1 0x20 MUL PUSH1 0x20 ADD ADD MLOAD DUP10 DUP6 DUP2 MLOAD DUP2 LT PUSH2 0x1500 JUMPI PUSH2 0x14FF PUSH2 0x38AE JUMP JUMPDEST JUMPDEST PUSH1 0x20 MUL PUSH1 0x20 ADD ADD MLOAD DUP10 DUP7 DUP2 MLOAD DUP2 LT PUSH2 0x151B JUMPI PUSH2 0x151A PUSH2 0x38AE JUMP JUMPDEST JUMPDEST PUSH1 0x20 MUL PUSH1 0x20 ADD ADD MLOAD DUP10 DUP8 DUP2 MLOAD DUP2 LT PUSH2 0x1536 JUMPI PUSH2 0x1535 PUSH2 0x38AE JUMP JUMPDEST JUMPDEST PUSH1 0x20 MUL PUSH1 0x20 ADD ADD MLOAD DUP10 DUP9 DUP2 MLOAD DUP2 LT PUSH2 0x1551 JUMPI PUSH2 0x1550 PUSH2 0x38AE JUMP JUMPDEST JUMPDEST PUSH1 0x20 MUL PUSH1 0x20 ADD ADD MLOAD PUSH2 0x1DE1 JUMP JUMPDEST DUP1 DUP1 PUSH2 0x1569 SWAP1 PUSH2 0x38DD JUMP JUMPDEST SWAP2 POP POP PUSH2 0x1491 JUMP JUMPDEST POP POP POP POP POP POP POP POP POP JUMP JUMPDEST PUSH1 0x0 DUP1 PUSH2 0x1587 PUSH2 0x1C0A JUMP JUMPDEST PUSH20 0xFFFFFFFFFFFFFFFFFFFFFFFFFFFFFFFFFFFFFFFF AND PUSH20 0xFFFFFFFFFFFFFFFFFFFFFFFFFFFFFFFFFFFFFFFF AND DUP2 MSTORE PUSH1 0x20 ADD SWAP1 DUP2 MSTORE PUSH1 0x20 ADD PUSH1 0x0 KECCAK256 PUSH1 0x0 SWAP1 SLOAD SWAP1 PUSH2 0x100 EXP SWAP1 DIV PUSH1 0xFF AND PUSH2 0x160E JUMPI PUSH1 0x40 MLOAD PUSH32 0x8C379A000000000000000000000000000000000000000000000000000000000 DUP2 MSTORE PUSH1 0x4 ADD PUSH2 0x1605 SWAP1 PUSH2 0x335A JUMP JUMPDEST PUSH1 0x40 MLOAD DUP1 SWAP2 SUB SWAP1 REVERT JUMPDEST PUSH1 0x0 PUSH1 0x1 PUSH1 0x0 SWAP1 SLOAD SWAP1 PUSH2 0x100 EXP SWAP1 DIV PUSH14 0xFFFFFFFFFFFFFFFFFFFFFFFFFFFF AND PUSH14 0xFFFFFFFFFFFFFFFFFFFFFFFFFFFF AND PUSH32 0x0 PUSH20 0xFFFFFFFFFFFFFFFFFFFFFFFFFFFFFFFFFFFFFFFF AND PUSH4 0x70A08231 ADDRESS PUSH1 0x40 MLOAD DUP3 PUSH4 0xFFFFFFFF AND PUSH1 0xE0 SHL DUP2 MSTORE PUSH1 0x4 ADD PUSH2 0x1696 SWAP2 SWAP1 PUSH2 0x3934 JUMP JUMPDEST PUSH1 0x20 PUSH1 0x40 MLOAD DUP1 DUP4 SUB DUP2 DUP7 GAS STATICCALL ISZERO DUP1 ISZERO PUSH2 0x16B3 JUMPI RETURNDATASIZE PUSH1 0x0 DUP1 RETURNDATACOPY RETURNDATASIZE PUSH1 0x0 REVERT JUMPDEST POP POP POP POP PUSH1 0x40 MLOAD RETURNDATASIZE PUSH1 0x1F NOT PUSH1 0x1F DUP3 ADD AND DUP3 ADD DUP1 PUSH1 0x40 MSTORE POP DUP2 ADD SWAP1 PUSH2 0x16D7 SWAP2 SWAP1 PUSH2 0x397B JUMP JUMPDEST PUSH2 0x16E1 SWAP2 SWAP1 PUSH2 0x39A8 JUMP JUMPDEST SWAP1 POP DUP2 PUSH14 0xFFFFFFFFFFFFFFFFFFFFFFFFFFFF AND DUP2 LT ISZERO PUSH2 0x1736 JUMPI PUSH1 0x40 MLOAD PUSH32 0x8C379A000000000000000000000000000000000000000000000000000000000 DUP2 MSTORE PUSH1 0x4 ADD PUSH2 0x172D SWAP1 PUSH2 0x3A28 JUMP JUMPDEST PUSH1 0x40 MLOAD DUP1 SWAP2 SUB SWAP1 REVERT JUMPDEST PUSH2 0x1798 PUSH2 0x1741 PUSH2 0x1C0A JUMP JUMPDEST DUP4 PUSH14 0xFFFFFFFFFFFFFFFFFFFFFFFFFFFF AND PUSH32 0x0 PUSH20 0xFFFFFFFFFFFFFFFFFFFFFFFFFFFFFFFFFFFFFFFF AND PUSH2 0x1C12 SWAP1 SWAP3 SWAP2 SWAP1 PUSH4 0xFFFFFFFF AND JUMP JUMPDEST PUSH2 0x17A0 PUSH2 0x1C0A JUMP JUMPDEST PUSH20 0xFFFFFFFFFFFFFFFFFFFFFFFFFFFFFFFFFFFFFFFF AND PUSH32 0xF0B3E02CC573C93409E1425C1F06BD1B3F25701C587835B3AF2D2BB6F7589429 DUP4 PUSH1 0x40 MLOAD PUSH2 0x17E5 SWAP2 SWAP1 PUSH2 0x299F JUMP JUMPDEST PUSH1 0x40 MLOAD DUP1 SWAP2 SUB SWAP1 LOG2 POP POP JUMP JUMPDEST PUSH1 0x0 DUP1 PUSH2 0x17FC PUSH2 0x1C0A JUMP JUMPDEST PUSH20 0xFFFFFFFFFFFFFFFFFFFFFFFFFFFFFFFFFFFFFFFF AND PUSH20 0xFFFFFFFFFFFFFFFFFFFFFFFFFFFFFFFFFFFFFFFF AND DUP2 MSTORE PUSH1 0x20 ADD SWAP1 DUP2 MSTORE PUSH1 0x20 ADD PUSH1 0x0 KECCAK256 PUSH1 0x0 SWAP1 SLOAD SWAP1 PUSH2 0x100 EXP SWAP1 DIV PUSH1 0xFF AND PUSH2 0x1883 JUMPI PUSH1 0x40 MLOAD PUSH32 0x8C379A000000000000000000000000000000000000000000000000000000000 DUP2 MSTORE PUSH1 0x4 ADD PUSH2 0x187A SWAP1 PUSH2 0x335A JUMP JUMPDEST PUSH1 0x40 MLOAD DUP1 SWAP2 SUB SWAP1 REVERT JUMPDEST PUSH32 0x0 PUSH20 0xFFFFFFFFFFFFFFFFFFFFFFFFFFFFFFFFFFFFFFFF AND DUP2 PUSH20 0xFFFFFFFFFFFFFFFFFFFFFFFFFFFFFFFFFFFFFFFF AND SUB PUSH2 0x1911 JUMPI PUSH1 0x40 MLOAD PUSH32 0x8C379A000000000000000000000000000000000000000000000000000000000 DUP2 MSTORE PUSH1 0x4 ADD PUSH2 0x1908 SWAP1 PUSH2 0x3A94 JUMP JUMPDEST PUSH1 0x40 MLOAD DUP1 SWAP2 SUB SWAP1 REVERT JUMPDEST PUSH1 0x0 DUP2 PUSH20 0xFFFFFFFFFFFFFFFFFFFFFFFFFFFFFFFFFFFFFFFF AND PUSH4 0x70A08231 ADDRESS PUSH1 0x40 MLOAD DUP3 PUSH4 0xFFFFFFFF AND PUSH1 0xE0 SHL DUP2 MSTORE PUSH1 0x4 ADD PUSH2 0x194C SWAP2 SWAP1 PUSH2 0x3934 JUMP JUMPDEST PUSH1 0x20 PUSH1 0x40 MLOAD DUP1 DUP4 SUB DUP2 DUP7 GAS STATICCALL ISZERO DUP1 ISZERO PUSH2 0x1969 JUMPI RETURNDATASIZE PUSH1 0x0 DUP1 RETURNDATACOPY RETURNDATASIZE PUSH1 0x0 REVERT JUMPDEST POP POP POP POP PUSH1 0x40 MLOAD RETURNDATASIZE PUSH1 0x1F NOT PUSH1 0x1F DUP3 ADD AND DUP3 ADD DUP1 PUSH1 0x40 MSTORE POP DUP2 ADD SWAP1 PUSH2 0x198D SWAP2 SWAP1 PUSH2 0x397B JUMP JUMPDEST SWAP1 POP PUSH1 0x0 DUP2 GT PUSH2 0x19D2 JUMPI PUSH1 0x40 MLOAD PUSH32 0x8C379A000000000000000000000000000000000000000000000000000000000 DUP2 MSTORE PUSH1 0x4 ADD PUSH2 0x19C9 SWAP1 PUSH2 0x3A28 JUMP JUMPDEST PUSH1 0x40 MLOAD DUP1 SWAP2 SUB SWAP1 REVERT JUMPDEST PUSH2 0x1A04 PUSH2 0x19DD PUSH2 0x1C0A JUMP JUMPDEST DUP3 DUP5 PUSH20 0xFFFFFFFFFFFFFFFFFFFFFFFFFFFFFFFFFFFFFFFF AND PUSH2 0x1C12 SWAP1 SWAP3 SWAP2 SWAP1 PUSH4 0xFFFFFFFF AND JUMP JUMPDEST POP POP JUMP JUMPDEST PUSH1 0x0 DUP1 PUSH1 0x2 PUSH1 0x0 DUP5 PUSH20 0xFFFFFFFFFFFFFFFFFFFFFFFFFFFFFFFFFFFFFFFF AND PUSH20 0xFFFFFFFFFFFFFFFFFFFFFFFFFFFFFFFFFFFFFFFF AND DUP2 MSTORE PUSH1 0x20 ADD SWAP1 DUP2 MSTORE PUSH1 0x20 ADD PUSH1 0x0 KECCAK256 SWAP1 POP PUSH2 0x1C02 DUP2 PUSH1 0x40 MLOAD DUP1 PUSH2 0x100 ADD PUSH1 0x40 MSTORE SWAP1 DUP2 PUSH1 0x0 DUP3 ADD PUSH1 0x0 SWAP1 SLOAD SWAP1 PUSH2 0x100 EXP SWAP1 DIV PUSH5 0xFFFFFFFFFF AND PUSH5 0xFFFFFFFFFF AND PUSH5 0xFFFFFFFFFF AND DUP2 MSTORE PUSH1 0x20 ADD PUSH1 0x0 DUP3 ADD PUSH1 0x5 SWAP1 SLOAD SWAP1 PUSH2 0x100 EXP SWAP1 DIV PUSH5 0xFFFFFFFFFF AND PUSH5 0xFFFFFFFFFF AND PUSH5 0xFFFFFFFFFF AND DUP2 MSTORE PUSH1 0x20 ADD PUSH1 0x0 DUP3 ADD PUSH1 0xA SWAP1 SLOAD SWAP1 PUSH2 0x100 EXP SWAP1 DIV PUSH5 0xFFFFFFFFFF AND PUSH5 0xFFFFFFFFFF AND PUSH5 0xFFFFFFFFFF AND DUP2 MSTORE PUSH1 0x20 ADD PUSH1 0x0 DUP3 ADD PUSH1 0xF SWAP1 SLOAD SWAP1 PUSH2 0x100 EXP SWAP1 DIV PUSH5 0xFFFFFFFFFF AND PUSH5 0xFFFFFFFFFF AND PUSH5 0xFFFFFFFFFF AND DUP2 MSTORE PUSH1 0x20 ADD PUSH1 0x1 DUP3 ADD PUSH1 0x0 SWAP1 SLOAD SWAP1 PUSH2 0x100 EXP SWAP1 DIV PUSH14 0xFFFFFFFFFFFFFFFFFFFFFFFFFFFF AND PUSH14 0xFFFFFFFFFFFFFFFFFFFFFFFFFFFF AND PUSH14 0xFFFFFFFFFFFFFFFFFFFFFFFFFFFF AND DUP2 MSTORE PUSH1 0x20 ADD PUSH1 0x1 DUP3 ADD PUSH1 0xE SWAP1 SLOAD SWAP1 PUSH2 0x100 EXP SWAP1 DIV PUSH14 0xFFFFFFFFFFFFFFFFFFFFFFFFFFFF AND PUSH14 0xFFFFFFFFFFFFFFFFFFFFFFFFFFFF AND PUSH14 0xFFFFFFFFFFFFFFFFFFFFFFFFFFFF AND DUP2 MSTORE PUSH1 0x20 ADD PUSH1 0x2 DUP3 ADD PUSH1 0x0 SWAP1 SLOAD SWAP1 PUSH2 0x100 EXP SWAP1 DIV PUSH14 0xFFFFFFFFFFFFFFFFFFFFFFFFFFFF AND PUSH14 0xFFFFFFFFFFFFFFFFFFFFFFFFFFFF AND PUSH14 0xFFFFFFFFFFFFFFFFFFFFFFFFFFFF AND DUP2 MSTORE PUSH1 0x20 ADD PUSH1 0x2 DUP3 ADD PUSH1 0xE SWAP1 SLOAD SWAP1 PUSH2 0x100 EXP SWAP1 DIV PUSH1 0xFF AND ISZERO ISZERO ISZERO ISZERO DUP2 MSTORE POP POP DUP3 PUSH1 0x0 ADD PUSH1 0x5 SWAP1 SLOAD SWAP1 PUSH2 0x100 EXP SWAP1 DIV PUSH5 0xFFFFFFFFFF AND PUSH2 0x1C98 JUMP JUMPDEST SWAP2 POP POP SWAP2 SWAP1 POP JUMP JUMPDEST PUSH1 0x0 CALLER SWAP1 POP SWAP1 JUMP JUMPDEST PUSH2 0x1C93 DUP4 PUSH4 0xA9059CBB PUSH1 0xE0 SHL DUP5 DUP5 PUSH1 0x40 MLOAD PUSH1 0x24 ADD PUSH2 0x1C31 SWAP3 SWAP2 SWAP1 PUSH2 0x3AB4 JUMP JUMPDEST PUSH1 0x40 MLOAD PUSH1 0x20 DUP2 DUP4 SUB SUB DUP2 MSTORE SWAP1 PUSH1 0x40 MSTORE SWAP1 PUSH28 0xFFFFFFFFFFFFFFFFFFFFFFFFFFFFFFFFFFFFFFFFFFFFFFFFFFFFFFFF NOT AND PUSH1 0x20 DUP3 ADD DUP1 MLOAD PUSH28 0xFFFFFFFFFFFFFFFFFFFFFFFFFFFFFFFFFFFFFFFFFFFFFFFFFFFFFFFF DUP4 DUP2 DUP4 AND OR DUP4 MSTORE POP POP POP POP PUSH2 0x25C7 JUMP JUMPDEST POP POP POP JUMP JUMPDEST PUSH1 0x0 DUP1 PUSH1 0x0 SWAP1 POP DUP4 PUSH1 0xE0 ADD MLOAD ISZERO PUSH2 0x1DA1 JUMPI DUP4 PUSH1 0x20 ADD MLOAD PUSH5 0xFFFFFFFFFF AND DUP4 PUSH5 0xFFFFFFFFFF AND GT ISZERO PUSH2 0x1CCB JUMPI DUP4 PUSH1 0x20 ADD MLOAD SWAP3 POP JUMPDEST DUP4 PUSH1 0x40 ADD MLOAD PUSH5 0xFFFFFFFFFF AND DUP4 PUSH5 0xFFFFFFFFFF AND LT PUSH2 0x1CF7 JUMPI DUP4 PUSH1 0xA0 ADD MLOAD DUP2 PUSH2 0x1CF4 SWAP2 SWAP1 PUSH2 0x3792 JUMP JUMPDEST SWAP1 POP JUMPDEST DUP4 PUSH1 0x0 ADD MLOAD PUSH5 0xFFFFFFFFFF AND DUP4 PUSH5 0xFFFFFFFFFF AND GT ISZERO PUSH2 0x1DA0 JUMPI PUSH1 0x0 DUP5 PUSH1 0x0 ADD MLOAD DUP5 PUSH2 0x1D23 SWAP2 SWAP1 PUSH2 0x3ADD JUMP JUMPDEST SWAP1 POP PUSH1 0x0 DUP6 PUSH1 0x60 ADD MLOAD DUP7 PUSH1 0x60 ADD MLOAD DUP4 PUSH2 0x1D3C SWAP2 SWAP1 PUSH2 0x3B40 JUMP JUMPDEST PUSH2 0x1D46 SWAP2 SWAP1 PUSH2 0x3B71 JUMP JUMPDEST SWAP1 POP PUSH1 0x0 DUP7 PUSH1 0x0 ADD MLOAD DUP8 PUSH1 0x20 ADD MLOAD PUSH2 0x1D5E SWAP2 SWAP1 PUSH2 0x3ADD JUMP JUMPDEST SWAP1 POP PUSH1 0x0 DUP2 PUSH5 0xFFFFFFFFFF AND DUP4 PUSH5 0xFFFFFFFFFF AND DUP10 PUSH1 0x80 ADD MLOAD PUSH2 0x1D81 SWAP2 SWAP1 PUSH2 0x3BB0 JUMP JUMPDEST PUSH2 0x1D8B SWAP2 SWAP1 PUSH2 0x3BF8 JUMP JUMPDEST SWAP1 POP DUP1 DUP6 PUSH2 0x1D99 SWAP2 SWAP1 PUSH2 0x3792 JUMP JUMPDEST SWAP5 POP POP POP POP POP JUMPDEST JUMPDEST DUP4 PUSH1 0xC0 ADD MLOAD PUSH14 0xFFFFFFFFFFFFFFFFFFFFFFFFFFFF AND DUP2 PUSH14 0xFFFFFFFFFFFFFFFFFFFFFFFFFFFF AND GT PUSH2 0x1DD6 JUMPI DUP4 PUSH1 0xC0 ADD MLOAD PUSH2 0x1DD8 JUMP JUMPDEST DUP1 JUMPDEST SWAP2 POP POP SWAP3 SWAP2 POP POP JUMP JUMPDEST DUP7 PUSH1 0x0 PUSH1 0x2 PUSH1 0x0 DUP4 PUSH20 0xFFFFFFFFFFFFFFFFFFFFFFFFFFFFFFFFFFFFFFFF AND PUSH20 0xFFFFFFFFFFFFFFFFFFFFFFFFFFFFFFFFFFFFFFFF AND DUP2 MSTORE PUSH1 0x20 ADD SWAP1 DUP2 MSTORE PUSH1 0x20 ADD PUSH1 0x0 KECCAK256 SWAP1 POP PUSH1 0x0 DUP2 PUSH1 0x0 ADD PUSH1 0x0 SWAP1 SLOAD SWAP1 PUSH2 0x100 EXP SWAP1 DIV PUSH5 0xFFFFFFFFFF AND PUSH5 0xFFFFFFFFFF AND EQ PUSH2 0x1E84 JUMPI PUSH1 0x40 MLOAD PUSH32 0x8C379A000000000000000000000000000000000000000000000000000000000 DUP2 MSTORE PUSH1 0x4 ADD PUSH2 0x1E7B SWAP1 PUSH2 0x3C75 JUMP JUMPDEST PUSH1 0x40 MLOAD DUP1 SWAP2 SUB SWAP1 REVERT JUMPDEST PUSH1 0x0 PUSH20 0xFFFFFFFFFFFFFFFFFFFFFFFFFFFFFFFFFFFFFFFF AND DUP10 PUSH20 0xFFFFFFFFFFFFFFFFFFFFFFFFFFFFFFFFFFFFFFFF AND SUB PUSH2 0x1EF3 JUMPI PUSH1 0x40 MLOAD PUSH32 0x8C379A000000000000000000000000000000000000000000000000000000000 DUP2 MSTORE PUSH1 0x4 ADD PUSH2 0x1EEA SWAP1 PUSH2 0x3822 JUMP JUMPDEST PUSH1 0x40 MLOAD DUP1 SWAP2 SUB SWAP1 REVERT JUMPDEST PUSH1 0x0 DUP4 DUP6 PUSH2 0x1F01 SWAP2 SWAP1 PUSH2 0x3792 JUMP JUMPDEST PUSH14 0xFFFFFFFFFFFFFFFFFFFFFFFFFFFF AND GT PUSH2 0x1F51 JUMPI PUSH1 0x40 MLOAD PUSH32 0x8C379A000000000000000000000000000000000000000000000000000000000 DUP2 MSTORE PUSH1 0x4 ADD PUSH2 0x1F48 SWAP1 PUSH2 0x3CE1 JUMP JUMPDEST PUSH1 0x40 MLOAD DUP1 SWAP2 SUB SWAP1 REVERT JUMPDEST PUSH1 0x0 DUP9 PUSH5 0xFFFFFFFFFF AND GT PUSH2 0x1F9B JUMPI PUSH1 0x40 MLOAD PUSH32 0x8C379A000000000000000000000000000000000000000000000000000000000 DUP2 MSTORE PUSH1 0x4 ADD PUSH2 0x1F92 SWAP1 PUSH2 0x3D4D JUMP JUMPDEST PUSH1 0x40 MLOAD DUP1 SWAP2 SUB SWAP1 REVERT JUMPDEST DUP7 PUSH5 0xFFFFFFFFFF AND DUP9 PUSH5 0xFFFFFFFFFF AND LT PUSH2 0x1FEB JUMPI PUSH1 0x40 MLOAD PUSH32 0x8C379A000000000000000000000000000000000000000000000000000000000 DUP2 MSTORE PUSH1 0x4 ADD PUSH2 0x1FE2 SWAP1 PUSH2 0x3DB9 JUMP JUMPDEST PUSH1 0x40 MLOAD DUP1 SWAP2 SUB SWAP1 REVERT JUMPDEST PUSH1 0x0 DUP6 PUSH5 0xFFFFFFFFFF AND GT PUSH2 0x2035 JUMPI PUSH1 0x40 MLOAD PUSH32 0x8C379A000000000000000000000000000000000000000000000000000000000 DUP2 MSTORE PUSH1 0x4 ADD PUSH2 0x202C SWAP1 PUSH2 0x3E25 JUMP JUMPDEST PUSH1 0x40 MLOAD DUP1 SWAP2 SUB SWAP1 REVERT JUMPDEST PUSH1 0x0 DUP6 DUP10 DUP10 PUSH2 0x2044 SWAP2 SWAP1 PUSH2 0x3ADD JUMP JUMPDEST PUSH2 0x204E SWAP2 SWAP1 PUSH2 0x3E45 JUMP JUMPDEST PUSH5 0xFFFFFFFFFF AND EQ PUSH2 0x2095 JUMPI PUSH1 0x40 MLOAD PUSH32 0x8C379A000000000000000000000000000000000000000000000000000000000 DUP2 MSTORE PUSH1 0x4 ADD PUSH2 0x208C SWAP1 PUSH2 0x3EC2 JUMP JUMPDEST PUSH1 0x40 MLOAD DUP1 SWAP2 SUB SWAP1 REVERT JUMPDEST PUSH1 0x0 DUP7 PUSH5 0xFFFFFFFFFF AND GT DUP1 ISZERO PUSH2 0x20BC JUMPI POP PUSH1 0x0 DUP4 PUSH14 0xFFFFFFFFFFFFFFFFFFFFFFFFFFFF AND GT JUMPDEST DUP1 ISZERO PUSH2 0x20D6 JUMPI POP DUP8 PUSH5 0xFFFFFFFFFF AND DUP7 PUSH5 0xFFFFFFFFFF AND GT ISZERO JUMPDEST DUP1 PUSH2 0x2104 JUMPI POP PUSH1 0x0 DUP7 PUSH5 0xFFFFFFFFFF AND EQ DUP1 ISZERO PUSH2 0x2103 JUMPI POP PUSH1 0x0 DUP4 PUSH14 0xFFFFFFFFFFFFFFFFFFFFFFFFFFFF AND EQ JUMPDEST JUMPDEST PUSH2 0x2143 JUMPI PUSH1 0x40 MLOAD PUSH32 0x8C379A000000000000000000000000000000000000000000000000000000000 DUP2 MSTORE PUSH1 0x4 ADD PUSH2 0x213A SWAP1 PUSH2 0x3F2E JUMP JUMPDEST PUSH1 0x40 MLOAD DUP1 SWAP2 SUB SWAP1 REVERT JUMPDEST PUSH1 0x0 PUSH1 0x40 MLOAD DUP1 PUSH2 0x100 ADD PUSH1 0x40 MSTORE DUP1 DUP11 PUSH5 0xFFFFFFFFFF AND DUP2 MSTORE PUSH1 0x20 ADD DUP10 PUSH5 0xFFFFFFFFFF AND DUP2 MSTORE PUSH1 0x20 ADD DUP9 PUSH5 0xFFFFFFFFFF AND DUP2 MSTORE PUSH1 0x20 ADD DUP8 PUSH5 0xFFFFFFFFFF AND DUP2 MSTORE PUSH1 0x20 ADD DUP7 PUSH14 0xFFFFFFFFFFFFFFFFFFFFFFFFFFFF AND DUP2 MSTORE PUSH1 0x20 ADD DUP6 PUSH14 0xFFFFFFFFFFFFFFFFFFFFFFFFFFFF AND DUP2 MSTORE PUSH1 0x20 ADD PUSH1 0x0 PUSH14 0xFFFFFFFFFFFFFFFFFFFFFFFFFFFF AND DUP2 MSTORE PUSH1 0x20 ADD PUSH1 0x1 ISZERO ISZERO DUP2 MSTORE POP SWAP1 POP PUSH1 0x0 DUP6 DUP6 PUSH2 0x21DF SWAP2 SWAP1 PUSH2 0x3792 JUMP JUMPDEST SWAP1 POP DUP1 PUSH1 0x1 PUSH1 0x0 SWAP1 SLOAD SWAP1 PUSH2 0x100 EXP SWAP1 DIV PUSH14 0xFFFFFFFFFFFFFFFFFFFFFFFFFFFF AND PUSH2 0x2209 SWAP2 SWAP1 PUSH2 0x3792 JUMP JUMPDEST PUSH14 0xFFFFFFFFFFFFFFFFFFFFFFFFFFFF AND PUSH32 0x0 PUSH20 0xFFFFFFFFFFFFFFFFFFFFFFFFFFFFFFFFFFFFFFFF AND PUSH4 0x70A08231 ADDRESS PUSH1 0x40 MLOAD DUP3 PUSH4 0xFFFFFFFF AND PUSH1 0xE0 SHL DUP2 MSTORE PUSH1 0x4 ADD PUSH2 0x2272 SWAP2 SWAP1 PUSH2 0x3934 JUMP JUMPDEST PUSH1 0x20 PUSH1 0x40 MLOAD DUP1 DUP4 SUB DUP2 DUP7 GAS STATICCALL ISZERO DUP1 ISZERO PUSH2 0x228F JUMPI RETURNDATASIZE PUSH1 0x0 DUP1 RETURNDATACOPY RETURNDATASIZE PUSH1 0x0 REVERT JUMPDEST POP POP POP POP PUSH1 0x40 MLOAD RETURNDATASIZE PUSH1 0x1F NOT PUSH1 0x1F DUP3 ADD AND DUP3 ADD DUP1 PUSH1 0x40 MSTORE POP DUP2 ADD SWAP1 PUSH2 0x22B3 SWAP2 SWAP1 PUSH2 0x397B JUMP JUMPDEST LT ISZERO PUSH2 0x22F4 JUMPI PUSH1 0x40 MLOAD PUSH32 0x8C379A000000000000000000000000000000000000000000000000000000000 DUP2 MSTORE PUSH1 0x4 ADD PUSH2 0x22EB SWAP1 PUSH2 0x3A28 JUMP JUMPDEST PUSH1 0x40 MLOAD DUP1 SWAP2 SUB SWAP1 REVERT JUMPDEST DUP2 PUSH1 0x2 PUSH1 0x0 DUP14 PUSH20 0xFFFFFFFFFFFFFFFFFFFFFFFFFFFFFFFFFFFFFFFF AND PUSH20 0xFFFFFFFFFFFFFFFFFFFFFFFFFFFFFFFFFFFFFFFF AND DUP2 MSTORE PUSH1 0x20 ADD SWAP1 DUP2 MSTORE PUSH1 0x20 ADD PUSH1 0x0 KECCAK256 PUSH1 0x0 DUP3 ADD MLOAD DUP2 PUSH1 0x0 ADD PUSH1 0x0 PUSH2 0x100 EXP DUP2 SLOAD DUP2 PUSH5 0xFFFFFFFFFF MUL NOT AND SWAP1 DUP4 PUSH5 0xFFFFFFFFFF AND MUL OR SWAP1 SSTORE POP PUSH1 0x20 DUP3 ADD MLOAD DUP2 PUSH1 0x0 ADD PUSH1 0x5 PUSH2 0x100 EXP DUP2 SLOAD DUP2 PUSH5 0xFFFFFFFFFF MUL NOT AND SWAP1 DUP4 PUSH5 0xFFFFFFFFFF AND MUL OR SWAP1 SSTORE POP PUSH1 0x40 DUP3 ADD MLOAD DUP2 PUSH1 0x0 ADD PUSH1 0xA PUSH2 0x100 EXP DUP2 SLOAD DUP2 PUSH5 0xFFFFFFFFFF MUL NOT AND SWAP1 DUP4 PUSH5 0xFFFFFFFFFF AND MUL OR SWAP1 SSTORE POP PUSH1 0x60 DUP3 ADD MLOAD DUP2 PUSH1 0x0 ADD PUSH1 0xF PUSH2 0x100 EXP DUP2 SLOAD DUP2 PUSH5 0xFFFFFFFFFF MUL NOT AND SWAP1 DUP4 PUSH5 0xFFFFFFFFFF AND MUL OR SWAP1 SSTORE POP PUSH1 0x80 DUP3 ADD MLOAD DUP2 PUSH1 0x1 ADD PUSH1 0x0 PUSH2 0x100 EXP DUP2 SLOAD DUP2 PUSH14 0xFFFFFFFFFFFFFFFFFFFFFFFFFFFF MUL NOT AND SWAP1 DUP4 PUSH14 0xFFFFFFFFFFFFFFFFFFFFFFFFFFFF AND MUL OR SWAP1 SSTORE POP PUSH1 0xA0 DUP3 ADD MLOAD DUP2 PUSH1 0x1 ADD PUSH1 0xE PUSH2 0x100 EXP DUP2 SLOAD DUP2 PUSH14 0xFFFFFFFFFFFFFFFFFFFFFFFFFFFF MUL NOT AND SWAP1 DUP4 PUSH14 0xFFFFFFFFFFFFFFFFFFFFFFFFFFFF AND MUL OR SWAP1 SSTORE POP PUSH1 0xC0 DUP3 ADD MLOAD DUP2 PUSH1 0x2 ADD PUSH1 0x0 PUSH2 0x100 EXP DUP2 SLOAD DUP2 PUSH14 0xFFFFFFFFFFFFFFFFFFFFFFFFFFFF MUL NOT AND SWAP1 DUP4 PUSH14 0xFFFFFFFFFFFFFFFFFFFFFFFFFFFF AND MUL OR SWAP1 SSTORE POP PUSH1 0xE0 DUP3 ADD MLOAD DUP2 PUSH1 0x2 ADD PUSH1 0xE PUSH2 0x100 EXP DUP2 SLOAD DUP2 PUSH1 0xFF MUL NOT AND SWAP1 DUP4 ISZERO ISZERO MUL OR SWAP1 SSTORE POP SWAP1 POP POP DUP1 PUSH1 0x1 PUSH1 0x0 DUP3 DUP3 DUP3 SWAP1 SLOAD SWAP1 PUSH2 0x100 EXP SWAP1 DIV PUSH14 0xFFFFFFFFFFFFFFFFFFFFFFFFFFFF AND PUSH2 0x24D7 SWAP2 SWAP1 PUSH2 0x3792 JUMP JUMPDEST SWAP3 POP PUSH2 0x100 EXP DUP2 SLOAD DUP2 PUSH14 0xFFFFFFFFFFFFFFFFFFFFFFFFFFFF MUL NOT AND SWAP1 DUP4 PUSH14 0xFFFFFFFFFFFFFFFFFFFFFFFFFFFF AND MUL OR SWAP1 SSTORE POP PUSH1 0x3 DUP12 SWAP1 DUP1 PUSH1 0x1 DUP2 SLOAD ADD DUP1 DUP3 SSTORE DUP1 SWAP2 POP POP PUSH1 0x1 SWAP1 SUB SWAP1 PUSH1 0x0 MSTORE PUSH1 0x20 PUSH1 0x0 KECCAK256 ADD PUSH1 0x0 SWAP1 SWAP2 SWAP1 SWAP2 SWAP1 SWAP2 PUSH2 0x100 EXP DUP2 SLOAD DUP2 PUSH20 0xFFFFFFFFFFFFFFFFFFFFFFFFFFFFFFFFFFFFFFFF MUL NOT AND SWAP1 DUP4 PUSH20 0xFFFFFFFFFFFFFFFFFFFFFFFFFFFFFFFFFFFFFFFF AND MUL OR SWAP1 SSTORE POP DUP11 PUSH20 0xFFFFFFFFFFFFFFFFFFFFFFFFFFFFFFFFFFFFFFFF AND PUSH32 0x4E79C332B2EE19F0319021953D9DFF3B084E37B4CCFF045CEF74FC22572F4730 DUP4 PUSH1 0x40 MLOAD PUSH2 0x25B2 SWAP2 SWAP1 PUSH2 0x2BDC JUMP JUMPDEST PUSH1 0x40 MLOAD DUP1 SWAP2 SUB SWAP1 LOG2 POP POP POP POP POP POP POP POP POP POP POP JUMP JUMPDEST PUSH1 0x0 PUSH2 0x2629 DUP3 PUSH1 0x40 MLOAD DUP1 PUSH1 0x40 ADD PUSH1 0x40 MSTORE DUP1 PUSH1 0x20 DUP2 MSTORE PUSH1 0x20 ADD PUSH32 0x5361666545524332303A206C6F772D6C6576656C2063616C6C206661696C6564 DUP2 MSTORE POP DUP6 PUSH20 0xFFFFFFFFFFFFFFFFFFFFFFFFFFFFFFFFFFFFFFFF AND PUSH2 0x268E SWAP1 SWAP3 SWAP2 SWAP1 PUSH4 0xFFFFFFFF AND JUMP JUMPDEST SWAP1 POP PUSH1 0x0 DUP2 MLOAD GT ISZERO PUSH2 0x2689 JUMPI DUP1 DUP1 PUSH1 0x20 ADD SWAP1 MLOAD DUP2 ADD SWAP1 PUSH2 0x2649 SWAP2 SWAP1 PUSH2 0x3F63 JUMP JUMPDEST PUSH2 0x2688 JUMPI PUSH1 0x40 MLOAD PUSH32 0x8C379A000000000000000000000000000000000000000000000000000000000 DUP2 MSTORE PUSH1 0x4 ADD PUSH2 0x267F SWAP1 PUSH2 0x4002 JUMP JUMPDEST PUSH1 0x40 MLOAD DUP1 SWAP2 SUB SWAP1 REVERT JUMPDEST JUMPDEST POP POP POP JUMP JUMPDEST PUSH1 0x60 PUSH2 0x269D DUP5 DUP5 PUSH1 0x0 DUP6 PUSH2 0x26A6 JUMP JUMPDEST SWAP1 POP SWAP4 SWAP3 POP POP POP JUMP JUMPDEST PUSH1 0x60 DUP3 SELFBALANCE LT ISZERO PUSH2 0x26EB JUMPI PUSH1 0x40 MLOAD PUSH32 0x8C379A000000000000000000000000000000000000000000000000000000000 DUP2 MSTORE PUSH1 0x4 ADD PUSH2 0x26E2 SWAP1 PUSH2 0x4094 JUMP JUMPDEST PUSH1 0x40 MLOAD DUP1 SWAP2 SUB SWAP1 REVERT JUMPDEST PUSH2 0x26F4 DUP6 PUSH2 0x27BA JUMP JUMPDEST PUSH2 0x2733 JUMPI PUSH1 0x40 MLOAD PUSH32 0x8C379A000000000000000000000000000000000000000000000000000000000 DUP2 MSTORE PUSH1 0x4 ADD PUSH2 0x272A SWAP1 PUSH2 0x4100 JUMP JUMPDEST PUSH1 0x40 MLOAD DUP1 SWAP2 SUB SWAP1 REVERT JUMPDEST PUSH1 0x0 DUP1 DUP7 PUSH20 0xFFFFFFFFFFFFFFFFFFFFFFFFFFFFFFFFFFFFFFFF AND DUP6 DUP8 PUSH1 0x40 MLOAD PUSH2 0x275C SWAP2 SWAP1 PUSH2 0x419A JUMP JUMPDEST PUSH1 0x0 PUSH1 0x40 MLOAD DUP1 DUP4 SUB DUP2 DUP6 DUP8 GAS CALL SWAP3 POP POP POP RETURNDATASIZE DUP1 PUSH1 0x0 DUP2 EQ PUSH2 0x2799 JUMPI PUSH1 0x40 MLOAD SWAP2 POP PUSH1 0x1F NOT PUSH1 0x3F RETURNDATASIZE ADD AND DUP3 ADD PUSH1 0x40 MSTORE RETURNDATASIZE DUP3 MSTORE RETURNDATASIZE PUSH1 0x0 PUSH1 0x20 DUP5 ADD RETURNDATACOPY PUSH2 0x279E JUMP JUMPDEST PUSH1 0x60 SWAP2 POP JUMPDEST POP SWAP2 POP SWAP2 POP PUSH2 0x27AE DUP3 DUP3 DUP7 PUSH2 0x27DD JUMP JUMPDEST SWAP3 POP POP POP SWAP5 SWAP4 POP POP POP POP JUMP JUMPDEST PUSH1 0x0 DUP1 DUP3 PUSH20 0xFFFFFFFFFFFFFFFFFFFFFFFFFFFFFFFFFFFFFFFF AND EXTCODESIZE GT SWAP1 POP SWAP2 SWAP1 POP JUMP JUMPDEST PUSH1 0x60 DUP4 ISZERO PUSH2 0x27ED JUMPI DUP3 SWAP1 POP PUSH2 0x283D JUMP JUMPDEST PUSH1 0x0 DUP4 MLOAD GT ISZERO PUSH2 0x2800 JUMPI DUP3 MLOAD DUP1 DUP5 PUSH1 0x20 ADD REVERT JUMPDEST DUP2 PUSH1 0x40 MLOAD PUSH32 0x8C379A000000000000000000000000000000000000000000000000000000000 DUP2 MSTORE PUSH1 0x4 ADD PUSH2 0x2834 SWAP2 SWAP1 PUSH2 0x41F5 JUMP JUMPDEST PUSH1 0x40 MLOAD DUP1 SWAP2 SUB SWAP1 REVERT JUMPDEST SWAP4 SWAP3 POP POP POP JUMP JUMPDEST PUSH1 0x40 MLOAD DUP1 PUSH2 0x100 ADD PUSH1 0x40 MSTORE DUP1 PUSH1 0x0 PUSH5 0xFFFFFFFFFF AND DUP2 MSTORE PUSH1 0x20 ADD PUSH1 0x0 PUSH5 0xFFFFFFFFFF AND DUP2 MSTORE PUSH1 0x20 ADD PUSH1 0x0 PUSH5 0xFFFFFFFFFF AND DUP2 MSTORE PUSH1 0x20 ADD PUSH1 0x0 PUSH5 0xFFFFFFFFFF AND DUP2 MSTORE PUSH1 0x20 ADD PUSH1 0x0 PUSH14 0xFFFFFFFFFFFFFFFFFFFFFFFFFFFF AND DUP2 MSTORE PUSH1 0x20 ADD PUSH1 0x0 PUSH14 0xFFFFFFFFFFFFFFFFFFFFFFFFFFFF AND DUP2 MSTORE PUSH1 0x20 ADD PUSH1 0x0 PUSH14 0xFFFFFFFFFFFFFFFFFFFFFFFFFFFF AND DUP2 MSTORE PUSH1 0x20 ADD PUSH1 0x0 ISZERO ISZERO DUP2 MSTORE POP SWAP1 JUMP JUMPDEST PUSH1 0x0 PUSH1 0x40 MLOAD SWAP1 POP SWAP1 JUMP JUMPDEST PUSH1 0x0 DUP1 REVERT JUMPDEST PUSH1 0x0 DUP1 REVERT JUMPDEST PUSH1 0x0 PUSH20 0xFFFFFFFFFFFFFFFFFFFFFFFFFFFFFFFFFFFFFFFF DUP3 AND SWAP1 POP SWAP2 SWAP1 POP JUMP JUMPDEST PUSH1 0x0 PUSH2 0x2916 DUP3 PUSH2 0x28EB JUMP JUMPDEST SWAP1 POP SWAP2 SWAP1 POP JUMP JUMPDEST PUSH2 0x2926 DUP2 PUSH2 0x290B JUMP JUMPDEST DUP2 EQ PUSH2 0x2931 JUMPI PUSH1 0x0 DUP1 REVERT JUMPDEST POP JUMP JUMPDEST PUSH1 0x0 DUP2 CALLDATALOAD SWAP1 POP PUSH2 0x2943 DUP2 PUSH2 0x291D JUMP JUMPDEST SWAP3 SWAP2 POP POP JUMP JUMPDEST PUSH1 0x0 PUSH1 0x20 DUP3 DUP5 SUB SLT ISZERO PUSH2 0x295F JUMPI PUSH2 0x295E PUSH2 0x28E1 JUMP JUMPDEST JUMPDEST PUSH1 0x0 PUSH2 0x296D DUP5 DUP3 DUP6 ADD PUSH2 0x2934 JUMP JUMPDEST SWAP2 POP POP SWAP3 SWAP2 POP POP JUMP JUMPDEST PUSH1 0x0 PUSH14 0xFFFFFFFFFFFFFFFFFFFFFFFFFFFF DUP3 AND SWAP1 POP SWAP2 SWAP1 POP JUMP JUMPDEST PUSH2 0x2999 DUP2 PUSH2 0x2976 JUMP JUMPDEST DUP3 MSTORE POP POP JUMP JUMPDEST PUSH1 0x0 PUSH1 0x20 DUP3 ADD SWAP1 POP PUSH2 0x29B4 PUSH1 0x0 DUP4 ADD DUP5 PUSH2 0x2990 JUMP JUMPDEST SWAP3 SWAP2 POP POP JUMP JUMPDEST PUSH1 0x0 DUP2 SWAP1 POP SWAP2 SWAP1 POP JUMP JUMPDEST PUSH2 0x29CD DUP2 PUSH2 0x29BA JUMP JUMPDEST DUP3 MSTORE POP POP JUMP JUMPDEST PUSH1 0x0 PUSH1 0x20 DUP3 ADD SWAP1 POP PUSH2 0x29E8 PUSH1 0x0 DUP4 ADD DUP5 PUSH2 0x29C4 JUMP JUMPDEST SWAP3 SWAP2 POP POP JUMP JUMPDEST PUSH1 0x0 DUP2 ISZERO ISZERO SWAP1 POP SWAP2 SWAP1 POP JUMP JUMPDEST PUSH2 0x2A03 DUP2 PUSH2 0x29EE JUMP JUMPDEST DUP3 MSTORE POP POP JUMP JUMPDEST PUSH1 0x0 PUSH1 0x20 DUP3 ADD SWAP1 POP PUSH2 0x2A1E PUSH1 0x0 DUP4 ADD DUP5 PUSH2 0x29FA JUMP JUMPDEST SWAP3 SWAP2 POP POP JUMP JUMPDEST PUSH1 0x0 PUSH5 0xFFFFFFFFFF DUP3 AND SWAP1 POP SWAP2 SWAP1 POP JUMP JUMPDEST PUSH2 0x2A3E DUP2 PUSH2 0x2A24 JUMP JUMPDEST DUP2 EQ PUSH2 0x2A49 JUMPI PUSH1 0x0 DUP1 REVERT JUMPDEST POP JUMP JUMPDEST PUSH1 0x0 DUP2 CALLDATALOAD SWAP1 POP PUSH2 0x2A5B DUP2 PUSH2 0x2A35 JUMP JUMPDEST SWAP3 SWAP2 POP POP JUMP JUMPDEST PUSH1 0x0 DUP1 PUSH1 0x40 DUP4 DUP6 SUB SLT ISZERO PUSH2 0x2A78 JUMPI PUSH2 0x2A77 PUSH2 0x28E1 JUMP JUMPDEST JUMPDEST PUSH1 0x0 PUSH2 0x2A86 DUP6 DUP3 DUP7 ADD PUSH2 0x2934 JUMP JUMPDEST SWAP3 POP POP PUSH1 0x20 PUSH2 0x2A97 DUP6 DUP3 DUP7 ADD PUSH2 0x2A4C JUMP JUMPDEST SWAP2 POP POP SWAP3 POP SWAP3 SWAP1 POP JUMP JUMPDEST PUSH2 0x2AAA DUP2 PUSH2 0x29EE JUMP JUMPDEST DUP2 EQ PUSH2 0x2AB5 JUMPI PUSH1 0x0 DUP1 REVERT JUMPDEST POP JUMP JUMPDEST PUSH1 0x0 DUP2 CALLDATALOAD SWAP1 POP PUSH2 0x2AC7 DUP2 PUSH2 0x2AA1 JUMP JUMPDEST SWAP3 SWAP2 POP POP JUMP JUMPDEST PUSH1 0x0 DUP1 PUSH1 0x40 DUP4 DUP6 SUB SLT ISZERO PUSH2 0x2AE4 JUMPI PUSH2 0x2AE3 PUSH2 0x28E1 JUMP JUMPDEST JUMPDEST PUSH1 0x0 PUSH2 0x2AF2 DUP6 DUP3 DUP7 ADD PUSH2 0x2934 JUMP JUMPDEST SWAP3 POP POP PUSH1 0x20 PUSH2 0x2B03 DUP6 DUP3 DUP7 ADD PUSH2 0x2AB8 JUMP JUMPDEST SWAP2 POP POP SWAP3 POP SWAP3 SWAP1 POP JUMP JUMPDEST PUSH2 0x2B16 DUP2 PUSH2 0x2A24 JUMP JUMPDEST DUP3 MSTORE POP POP JUMP JUMPDEST PUSH2 0x2B25 DUP2 PUSH2 0x2976 JUMP JUMPDEST DUP3 MSTORE POP POP JUMP JUMPDEST PUSH2 0x2B34 DUP2 PUSH2 0x29EE JUMP JUMPDEST DUP3 MSTORE POP POP JUMP JUMPDEST PUSH2 0x100 DUP3 ADD PUSH1 0x0 DUP3 ADD MLOAD PUSH2 0x2B51 PUSH1 0x0 DUP6 ADD DUP3 PUSH2 0x2B0D JUMP JUMPDEST POP PUSH1 0x20 DUP3 ADD MLOAD PUSH2 0x2B64 PUSH1 0x20 DUP6 ADD DUP3 PUSH2 0x2B0D JUMP JUMPDEST POP PUSH1 0x40 DUP3 ADD MLOAD PUSH2 0x2B77 PUSH1 0x40 DUP6 ADD DUP3 PUSH2 0x2B0D JUMP JUMPDEST POP PUSH1 0x60 DUP3 ADD MLOAD PUSH2 0x2B8A PUSH1 0x60 DUP6 ADD DUP3 PUSH2 0x2B0D JUMP JUMPDEST POP PUSH1 0x80 DUP3 ADD MLOAD PUSH2 0x2B9D PUSH1 0x80 DUP6 ADD DUP3 PUSH2 0x2B1C JUMP JUMPDEST POP PUSH1 0xA0 DUP3 ADD MLOAD PUSH2 0x2BB0 PUSH1 0xA0 DUP6 ADD DUP3 PUSH2 0x2B1C JUMP JUMPDEST POP PUSH1 0xC0 DUP3 ADD MLOAD PUSH2 0x2BC3 PUSH1 0xC0 DUP6 ADD DUP3 PUSH2 0x2B1C JUMP JUMPDEST POP PUSH1 0xE0 DUP3 ADD MLOAD PUSH2 0x2BD6 PUSH1 0xE0 DUP6 ADD DUP3 PUSH2 0x2B2B JUMP JUMPDEST POP POP POP POP JUMP JUMPDEST PUSH1 0x0 PUSH2 0x100 DUP3 ADD SWAP1 POP PUSH2 0x2BF2 PUSH1 0x0 DUP4 ADD DUP5 PUSH2 0x2B3A JUMP JUMPDEST SWAP3 SWAP2 POP POP JUMP JUMPDEST PUSH1 0x0 DUP2 MLOAD SWAP1 POP SWAP2 SWAP1 POP JUMP JUMPDEST PUSH1 0x0 DUP3 DUP3 MSTORE PUSH1 0x20 DUP3 ADD SWAP1 POP SWAP3 SWAP2 POP POP JUMP JUMPDEST PUSH1 0x0 DUP2 SWAP1 POP PUSH1 0x20 DUP3 ADD SWAP1 POP SWAP2 SWAP1 POP JUMP JUMPDEST PUSH2 0x2C2D DUP2 PUSH2 0x290B JUMP JUMPDEST DUP3 MSTORE POP POP JUMP JUMPDEST PUSH1 0x0 PUSH2 0x2C3F DUP4 DUP4 PUSH2 0x2C24 JUMP JUMPDEST PUSH1 0x20 DUP4 ADD SWAP1 POP SWAP3 SWAP2 POP POP JUMP JUMPDEST PUSH1 0x0 PUSH1 0x20 DUP3 ADD SWAP1 POP SWAP2 SWAP1 POP JUMP JUMPDEST PUSH1 0x0 PUSH2 0x2C63 DUP3 PUSH2 0x2BF8 JUMP JUMPDEST PUSH2 0x2C6D DUP2 DUP6 PUSH2 0x2C03 JUMP JUMPDEST SWAP4 POP PUSH2 0x2C78 DUP4 PUSH2 0x2C14 JUMP JUMPDEST DUP1 PUSH1 0x0 JUMPDEST DUP4 DUP2 LT ISZERO PUSH2 0x2CA9 JUMPI DUP2 MLOAD PUSH2 0x2C90 DUP9 DUP3 PUSH2 0x2C33 JUMP JUMPDEST SWAP8 POP PUSH2 0x2C9B DUP4 PUSH2 0x2C4B JUMP JUMPDEST SWAP3 POP POP PUSH1 0x1 DUP2 ADD SWAP1 POP PUSH2 0x2C7C JUMP JUMPDEST POP DUP6 SWAP4 POP POP POP POP SWAP3 SWAP2 POP POP JUMP JUMPDEST PUSH1 0x0 PUSH1 0x20 DUP3 ADD SWAP1 POP DUP2 DUP2 SUB PUSH1 0x0 DUP4 ADD MSTORE PUSH2 0x2CD0 DUP2 DUP5 PUSH2 0x2C58 JUMP JUMPDEST SWAP1 POP SWAP3 SWAP2 POP POP JUMP JUMPDEST PUSH2 0x2CE1 DUP2 PUSH2 0x2976 JUMP JUMPDEST DUP2 EQ PUSH2 0x2CEC JUMPI PUSH1 0x0 DUP1 REVERT JUMPDEST POP JUMP JUMPDEST PUSH1 0x0 DUP2 CALLDATALOAD SWAP1 POP PUSH2 0x2CFE DUP2 PUSH2 0x2CD8 JUMP JUMPDEST SWAP3 SWAP2 POP POP JUMP JUMPDEST PUSH1 0x0 DUP1 PUSH1 0x0 DUP1 PUSH1 0x0 DUP1 PUSH1 0x0 PUSH1 0xE0 DUP9 DUP11 SUB SLT ISZERO PUSH2 0x2D23 JUMPI PUSH2 0x2D22 PUSH2 0x28E1 JUMP JUMPDEST JUMPDEST PUSH1 0x0 PUSH2 0x2D31 DUP11 DUP3 DUP12 ADD PUSH2 0x2934 JUMP JUMPDEST SWAP8 POP POP PUSH1 0x20 PUSH2 0x2D42 DUP11 DUP3 DUP12 ADD PUSH2 0x2A4C JUMP JUMPDEST SWAP7 POP POP PUSH1 0x40 PUSH2 0x2D53 DUP11 DUP3 DUP12 ADD PUSH2 0x2A4C JUMP JUMPDEST SWAP6 POP POP PUSH1 0x60 PUSH2 0x2D64 DUP11 DUP3 DUP12 ADD PUSH2 0x2A4C JUMP JUMPDEST SWAP5 POP POP PUSH1 0x80 PUSH2 0x2D75 DUP11 DUP3 DUP12 ADD PUSH2 0x2A4C JUMP JUMPDEST SWAP4 POP POP PUSH1 0xA0 PUSH2 0x2D86 DUP11 DUP3 DUP12 ADD PUSH2 0x2CEF JUMP JUMPDEST SWAP3 POP POP PUSH1 0xC0 PUSH2 0x2D97 DUP11 DUP3 DUP12 ADD PUSH2 0x2CEF JUMP JUMPDEST SWAP2 POP POP SWAP3 SWAP6 SWAP9 SWAP2 SWAP5 SWAP8 POP SWAP3 SWAP6 POP JUMP JUMPDEST PUSH1 0x0 DUP2 SWAP1 POP SWAP2 SWAP1 POP JUMP JUMPDEST PUSH1 0x0 PUSH2 0x2DCB PUSH2 0x2DC6 PUSH2 0x2DC1 DUP5 PUSH2 0x28EB JUMP JUMPDEST PUSH2 0x2DA6 JUMP JUMPDEST PUSH2 0x28EB JUMP JUMPDEST SWAP1 POP SWAP2 SWAP1 POP JUMP JUMPDEST PUSH1 0x0 PUSH2 0x2DDD DUP3 PUSH2 0x2DB0 JUMP JUMPDEST SWAP1 POP SWAP2 SWAP1 POP JUMP JUMPDEST PUSH1 0x0 PUSH2 0x2DEF DUP3 PUSH2 0x2DD2 JUMP JUMPDEST SWAP1 POP SWAP2 SWAP1 POP JUMP JUMPDEST PUSH2 0x2DFF DUP2 PUSH2 0x2DE4 JUMP JUMPDEST DUP3 MSTORE POP POP JUMP JUMPDEST PUSH1 0x0 PUSH1 0x20 DUP3 ADD SWAP1 POP PUSH2 0x2E1A PUSH1 0x0 DUP4 ADD DUP5 PUSH2 0x2DF6 JUMP JUMPDEST SWAP3 SWAP2 POP POP JUMP JUMPDEST PUSH1 0x0 DUP1 REVERT JUMPDEST PUSH1 0x0 PUSH1 0x1F NOT PUSH1 0x1F DUP4 ADD AND SWAP1 POP SWAP2 SWAP1 POP JUMP JUMPDEST PUSH32 0x4E487B7100000000000000000000000000000000000000000000000000000000 PUSH1 0x0 MSTORE PUSH1 0x41 PUSH1 0x4 MSTORE PUSH1 0x24 PUSH1 0x0 REVERT JUMPDEST PUSH2 0x2E6E DUP3 PUSH2 0x2E25 JUMP JUMPDEST DUP2 ADD DUP2 DUP2 LT PUSH8 0xFFFFFFFFFFFFFFFF DUP3 GT OR ISZERO PUSH2 0x2E8D JUMPI PUSH2 0x2E8C PUSH2 0x2E36 JUMP JUMPDEST JUMPDEST DUP1 PUSH1 0x40 MSTORE POP POP POP JUMP JUMPDEST PUSH1 0x0 PUSH2 0x2EA0 PUSH2 0x28D7 JUMP JUMPDEST SWAP1 POP PUSH2 0x2EAC DUP3 DUP3 PUSH2 0x2E65 JUMP JUMPDEST SWAP2 SWAP1 POP JUMP JUMPDEST PUSH1 0x0 PUSH8 0xFFFFFFFFFFFFFFFF DUP3 GT ISZERO PUSH2 0x2ECC JUMPI PUSH2 0x2ECB PUSH2 0x2E36 JUMP JUMPDEST JUMPDEST PUSH1 0x20 DUP3 MUL SWAP1 POP PUSH1 0x20 DUP2 ADD SWAP1 POP SWAP2 SWAP1 POP JUMP JUMPDEST PUSH1 0x0 DUP1 REVERT JUMPDEST PUSH1 0x0 PUSH2 0x2EF5 PUSH2 0x2EF0 DUP5 PUSH2 0x2EB1 JUMP JUMPDEST PUSH2 0x2E96 JUMP JUMPDEST SWAP1 POP DUP1 DUP4 DUP3 MSTORE PUSH1 0x20 DUP3 ADD SWAP1 POP PUSH1 0x20 DUP5 MUL DUP4 ADD DUP6 DUP2 GT ISZERO PUSH2 0x2F18 JUMPI PUSH2 0x2F17 PUSH2 0x2EDD JUMP JUMPDEST JUMPDEST DUP4 JUMPDEST DUP2 DUP2 LT ISZERO PUSH2 0x2F41 JUMPI DUP1 PUSH2 0x2F2D DUP9 DUP3 PUSH2 0x2934 JUMP JUMPDEST DUP5 MSTORE PUSH1 0x20 DUP5 ADD SWAP4 POP POP PUSH1 0x20 DUP2 ADD SWAP1 POP PUSH2 0x2F1A JUMP JUMPDEST POP POP POP SWAP4 SWAP3 POP POP POP JUMP JUMPDEST PUSH1 0x0 DUP3 PUSH1 0x1F DUP4 ADD SLT PUSH2 0x2F60 JUMPI PUSH2 0x2F5F PUSH2 0x2E20 JUMP JUMPDEST JUMPDEST DUP2 CALLDATALOAD PUSH2 0x2F70 DUP5 DUP3 PUSH1 0x20 DUP7 ADD PUSH2 0x2EE2 JUMP JUMPDEST SWAP2 POP POP SWAP3 SWAP2 POP POP JUMP JUMPDEST PUSH1 0x0 PUSH8 0xFFFFFFFFFFFFFFFF DUP3 GT ISZERO PUSH2 0x2F94 JUMPI PUSH2 0x2F93 PUSH2 0x2E36 JUMP JUMPDEST JUMPDEST PUSH1 0x20 DUP3 MUL SWAP1 POP PUSH1 0x20 DUP2 ADD SWAP1 POP SWAP2 SWAP1 POP JUMP JUMPDEST PUSH1 0x0 PUSH2 0x2FB8 PUSH2 0x2FB3 DUP5 PUSH2 0x2F79 JUMP JUMPDEST PUSH2 0x2E96 JUMP JUMPDEST SWAP1 POP DUP1 DUP4 DUP3 MSTORE PUSH1 0x20 DUP3 ADD SWAP1 POP PUSH1 0x20 DUP5 MUL DUP4 ADD DUP6 DUP2 GT ISZERO PUSH2 0x2FDB JUMPI PUSH2 0x2FDA PUSH2 0x2EDD JUMP JUMPDEST JUMPDEST DUP4 JUMPDEST DUP2 DUP2 LT ISZERO PUSH2 0x3004 JUMPI DUP1 PUSH2 0x2FF0 DUP9 DUP3 PUSH2 0x2A4C JUMP JUMPDEST DUP5 MSTORE PUSH1 0x20 DUP5 ADD SWAP4 POP POP PUSH1 0x20 DUP2 ADD SWAP1 POP PUSH2 0x2FDD JUMP JUMPDEST POP POP POP SWAP4 SWAP3 POP POP POP JUMP JUMPDEST PUSH1 0x0 DUP3 PUSH1 0x1F DUP4 ADD SLT PUSH2 0x3023 JUMPI PUSH2 0x3022 PUSH2 0x2E20 JUMP JUMPDEST JUMPDEST DUP2 CALLDATALOAD PUSH2 0x3033 DUP5 DUP3 PUSH1 0x20 DUP7 ADD PUSH2 0x2FA5 JUMP JUMPDEST SWAP2 POP POP SWAP3 SWAP2 POP POP JUMP JUMPDEST PUSH1 0x0 PUSH8 0xFFFFFFFFFFFFFFFF DUP3 GT ISZERO PUSH2 0x3057 JUMPI PUSH2 0x3056 PUSH2 0x2E36 JUMP JUMPDEST JUMPDEST PUSH1 0x20 DUP3 MUL SWAP1 POP PUSH1 0x20 DUP2 ADD SWAP1 POP SWAP2 SWAP1 POP JUMP JUMPDEST PUSH1 0x0 PUSH2 0x307B PUSH2 0x3076 DUP5 PUSH2 0x303C JUMP JUMPDEST PUSH2 0x2E96 JUMP JUMPDEST SWAP1 POP DUP1 DUP4 DUP3 MSTORE PUSH1 0x20 DUP3 ADD SWAP1 POP PUSH1 0x20 DUP5 MUL DUP4 ADD DUP6 DUP2 GT ISZERO PUSH2 0x309E JUMPI PUSH2 0x309D PUSH2 0x2EDD JUMP JUMPDEST JUMPDEST DUP4 JUMPDEST DUP2 DUP2 LT ISZERO PUSH2 0x30C7 JUMPI DUP1 PUSH2 0x30B3 DUP9 DUP3 PUSH2 0x2CEF JUMP JUMPDEST DUP5 MSTORE PUSH1 0x20 DUP5 ADD SWAP4 POP POP PUSH1 0x20 DUP2 ADD SWAP1 POP PUSH2 0x30A0 JUMP JUMPDEST POP POP POP SWAP4 SWAP3 POP POP POP JUMP JUMPDEST PUSH1 0x0 DUP3 PUSH1 0x1F DUP4 ADD SLT PUSH2 0x30E6 JUMPI PUSH2 0x30E5 PUSH2 0x2E20 JUMP JUMPDEST JUMPDEST DUP2 CALLDATALOAD PUSH2 0x30F6 DUP5 DUP3 PUSH1 0x20 DUP7 ADD PUSH2 0x3068 JUMP JUMPDEST SWAP2 POP POP SWAP3 SWAP2 POP POP JUMP JUMPDEST PUSH1 0x0 DUP1 PUSH1 0x0 DUP1 PUSH1 0x0 DUP1 PUSH1 0x0 PUSH1 0xE0 DUP9 DUP11 SUB SLT ISZERO PUSH2 0x311E JUMPI PUSH2 0x311D PUSH2 0x28E1 JUMP JUMPDEST JUMPDEST PUSH1 0x0 DUP9 ADD CALLDATALOAD PUSH8 0xFFFFFFFFFFFFFFFF DUP2 GT ISZERO PUSH2 0x313C JUMPI PUSH2 0x313B PUSH2 0x28E6 JUMP JUMPDEST JUMPDEST PUSH2 0x3148 DUP11 DUP3 DUP12 ADD PUSH2 0x2F4B JUMP JUMPDEST SWAP8 POP POP PUSH1 0x20 DUP9 ADD CALLDATALOAD PUSH8 0xFFFFFFFFFFFFFFFF DUP2 GT ISZERO PUSH2 0x3169 JUMPI PUSH2 0x3168 PUSH2 0x28E6 JUMP JUMPDEST JUMPDEST PUSH2 0x3175 DUP11 DUP3 DUP12 ADD PUSH2 0x300E JUMP JUMPDEST SWAP7 POP POP PUSH1 0x40 DUP9 ADD CALLDATALOAD PUSH8 0xFFFFFFFFFFFFFFFF DUP2 GT ISZERO PUSH2 0x3196 JUMPI PUSH2 0x3195 PUSH2 0x28E6 JUMP JUMPDEST JUMPDEST PUSH2 0x31A2 DUP11 DUP3 DUP12 ADD PUSH2 0x300E JUMP JUMPDEST SWAP6 POP POP PUSH1 0x60 DUP9 ADD CALLDATALOAD PUSH8 0xFFFFFFFFFFFFFFFF DUP2 GT ISZERO PUSH2 0x31C3 JUMPI PUSH2 0x31C2 PUSH2 0x28E6 JUMP JUMPDEST JUMPDEST PUSH2 0x31CF DUP11 DUP3 DUP12 ADD PUSH2 0x300E JUMP JUMPDEST SWAP5 POP POP PUSH1 0x80 DUP9 ADD CALLDATALOAD PUSH8 0xFFFFFFFFFFFFFFFF DUP2 GT ISZERO PUSH2 0x31F0 JUMPI PUSH2 0x31EF PUSH2 0x28E6 JUMP JUMPDEST JUMPDEST PUSH2 0x31FC DUP11 DUP3 DUP12 ADD PUSH2 0x300E JUMP JUMPDEST SWAP4 POP POP PUSH1 0xA0 DUP9 ADD CALLDATALOAD PUSH8 0xFFFFFFFFFFFFFFFF DUP2 GT ISZERO PUSH2 0x321D JUMPI PUSH2 0x321C PUSH2 0x28E6 JUMP JUMPDEST JUMPDEST PUSH2 0x3229 DUP11 DUP3 DUP12 ADD PUSH2 0x30D1 JUMP JUMPDEST SWAP3 POP POP PUSH1 0xC0 DUP9 ADD CALLDATALOAD PUSH8 0xFFFFFFFFFFFFFFFF DUP2 GT ISZERO PUSH2 0x324A JUMPI PUSH2 0x3249 PUSH2 0x28E6 JUMP JUMPDEST JUMPDEST PUSH2 0x3256 DUP11 DUP3 DUP12 ADD PUSH2 0x30D1 JUMP JUMPDEST SWAP2 POP POP SWAP3 SWAP6 SWAP9 SWAP2 SWAP5 SWAP8 POP SWAP3 SWAP6 POP JUMP JUMPDEST PUSH1 0x0 PUSH1 0x20 DUP3 DUP5 SUB SLT ISZERO PUSH2 0x327B JUMPI PUSH2 0x327A PUSH2 0x28E1 JUMP JUMPDEST JUMPDEST PUSH1 0x0 PUSH2 0x3289 DUP5 DUP3 DUP6 ADD PUSH2 0x2CEF JUMP JUMPDEST SWAP2 POP POP SWAP3 SWAP2 POP POP JUMP JUMPDEST PUSH1 0x0 PUSH2 0x329D DUP3 PUSH2 0x290B JUMP JUMPDEST SWAP1 POP SWAP2 SWAP1 POP JUMP JUMPDEST PUSH2 0x32AD DUP2 PUSH2 0x3292 JUMP JUMPDEST DUP2 EQ PUSH2 0x32B8 JUMPI PUSH1 0x0 DUP1 REVERT JUMPDEST POP JUMP JUMPDEST PUSH1 0x0 DUP2 CALLDATALOAD SWAP1 POP PUSH2 0x32CA DUP2 PUSH2 0x32A4 JUMP JUMPDEST SWAP3 SWAP2 POP POP JUMP JUMPDEST PUSH1 0x0 PUSH1 0x20 DUP3 DUP5 SUB SLT ISZERO PUSH2 0x32E6 JUMPI PUSH2 0x32E5 PUSH2 0x28E1 JUMP JUMPDEST JUMPDEST PUSH1 0x0 PUSH2 0x32F4 DUP5 DUP3 DUP6 ADD PUSH2 0x32BB JUMP JUMPDEST SWAP2 POP POP SWAP3 SWAP2 POP POP JUMP JUMPDEST PUSH1 0x0 DUP3 DUP3 MSTORE PUSH1 0x20 DUP3 ADD SWAP1 POP SWAP3 SWAP2 POP POP JUMP JUMPDEST PUSH32 0x41444D494E5F4143434553535F52455155495245440000000000000000000000 PUSH1 0x0 DUP3 ADD MSTORE POP JUMP JUMPDEST PUSH1 0x0 PUSH2 0x3344 PUSH1 0x15 DUP4 PUSH2 0x32FD JUMP JUMPDEST SWAP2 POP PUSH2 0x334F DUP3 PUSH2 0x330E JUMP JUMPDEST PUSH1 0x20 DUP3 ADD SWAP1 POP SWAP2 SWAP1 POP JUMP JUMPDEST PUSH1 0x0 PUSH1 0x20 DUP3 ADD SWAP1 POP DUP2 DUP2 SUB PUSH1 0x0 DUP4 ADD MSTORE PUSH2 0x3373 DUP2 PUSH2 0x3337 JUMP JUMPDEST SWAP1 POP SWAP2 SWAP1 POP JUMP JUMPDEST PUSH32 0x4E4F5F4143544956455F434C41494D0000000000000000000000000000000000 PUSH1 0x0 DUP3 ADD MSTORE POP JUMP JUMPDEST PUSH1 0x0 PUSH2 0x33B0 PUSH1 0xF DUP4 PUSH2 0x32FD JUMP JUMPDEST SWAP2 POP PUSH2 0x33BB DUP3 PUSH2 0x337A JUMP JUMPDEST PUSH1 0x20 DUP3 ADD SWAP1 POP SWAP2 SWAP1 POP JUMP JUMPDEST PUSH1 0x0 PUSH1 0x20 DUP3 ADD SWAP1 POP DUP2 DUP2 SUB PUSH1 0x0 DUP4 ADD MSTORE PUSH2 0x33DF DUP2 PUSH2 0x33A3 JUMP JUMPDEST SWAP1 POP SWAP2 SWAP1 POP JUMP JUMPDEST PUSH32 0x4E4F5F554E5645535445445F414D4F554E540000000000000000000000000000 PUSH1 0x0 DUP3 ADD MSTORE POP JUMP JUMPDEST PUSH1 0x0 PUSH2 0x341C PUSH1 0x12 DUP4 PUSH2 0x32FD JUMP JUMPDEST SWAP2 POP PUSH2 0x3427 DUP3 PUSH2 0x33E6 JUMP JUMPDEST PUSH1 0x20 DUP3 ADD SWAP1 POP SWAP2 SWAP1 POP JUMP JUMPDEST PUSH1 0x0 PUSH1 0x20 DUP3 ADD SWAP1 POP DUP2 DUP2 SUB PUSH1 0x0 DUP4 ADD MSTORE PUSH2 0x344B DUP2 PUSH2 0x340F JUMP JUMPDEST SWAP1 POP SWAP2 SWAP1 POP JUMP JUMPDEST PUSH32 0x4E487B7100000000000000000000000000000000000000000000000000000000 PUSH1 0x0 MSTORE PUSH1 0x11 PUSH1 0x4 MSTORE PUSH1 0x24 PUSH1 0x0 REVERT JUMPDEST PUSH1 0x0 PUSH2 0x348C DUP3 PUSH2 0x2976 JUMP JUMPDEST SWAP2 POP PUSH2 0x3497 DUP4 PUSH2 0x2976 JUMP JUMPDEST SWAP3 POP DUP3 DUP3 LT ISZERO PUSH2 0x34AA JUMPI PUSH2 0x34A9 PUSH2 0x3452 JUMP JUMPDEST JUMPDEST DUP3 DUP3 SUB SWAP1 POP SWAP3 SWAP2 POP POP JUMP JUMPDEST PUSH1 0x0 PUSH2 0x34D0 PUSH2 0x34CB PUSH2 0x34C6 DUP5 PUSH2 0x2A24 JUMP JUMPDEST PUSH2 0x2DA6 JUMP JUMPDEST PUSH2 0x29BA JUMP JUMPDEST SWAP1 POP SWAP2 SWAP1 POP JUMP JUMPDEST PUSH2 0x34E0 DUP2 PUSH2 0x34B5 JUMP JUMPDEST DUP3 MSTORE POP POP JUMP JUMPDEST PUSH1 0x0 DUP2 PUSH1 0x0 SHR SWAP1 POP SWAP2 SWAP1 POP JUMP JUMPDEST PUSH1 0x0 PUSH5 0xFFFFFFFFFF DUP3 AND SWAP1 POP SWAP2 SWAP1 POP JUMP JUMPDEST PUSH1 0x0 PUSH2 0x3517 PUSH2 0x3512 DUP4 PUSH2 0x34E6 JUMP JUMPDEST PUSH2 0x34F3 JUMP JUMPDEST SWAP1 POP SWAP2 SWAP1 POP JUMP JUMPDEST PUSH1 0x0 DUP2 PUSH1 0x28 SHR SWAP1 POP SWAP2 SWAP1 POP JUMP JUMPDEST PUSH1 0x0 PUSH2 0x353E PUSH2 0x3539 DUP4 PUSH2 0x351E JUMP JUMPDEST PUSH2 0x34F3 JUMP JUMPDEST SWAP1 POP SWAP2 SWAP1 POP JUMP JUMPDEST PUSH1 0x0 DUP2 PUSH1 0x50 SHR SWAP1 POP SWAP2 SWAP1 POP JUMP JUMPDEST PUSH1 0x0 PUSH2 0x3565 PUSH2 0x3560 DUP4 PUSH2 0x3545 JUMP JUMPDEST PUSH2 0x34F3 JUMP JUMPDEST SWAP1 POP SWAP2 SWAP1 POP JUMP JUMPDEST PUSH1 0x0 DUP2 PUSH1 0x78 SHR SWAP1 POP SWAP2 SWAP1 POP JUMP JUMPDEST PUSH1 0x0 PUSH2 0x358C PUSH2 0x3587 DUP4 PUSH2 0x356C JUMP JUMPDEST PUSH2 0x34F3 JUMP JUMPDEST SWAP1 POP SWAP2 SWAP1 POP JUMP JUMPDEST PUSH1 0x0 PUSH14 0xFFFFFFFFFFFFFFFFFFFFFFFFFFFF DUP3 AND SWAP1 POP SWAP2 SWAP1 POP JUMP JUMPDEST PUSH1 0x0 PUSH2 0x35C0 PUSH2 0x35BB DUP4 PUSH2 0x34E6 JUMP JUMPDEST PUSH2 0x3593 JUMP JUMPDEST SWAP1 POP SWAP2 SWAP1 POP JUMP JUMPDEST PUSH1 0x0 DUP2 PUSH1 0x70 SHR SWAP1 POP SWAP2 SWAP1 POP JUMP JUMPDEST PUSH1 0x0 PUSH2 0x35E7 PUSH2 0x35E2 DUP4 PUSH2 0x35C7 JUMP JUMPDEST PUSH2 0x3593 JUMP JUMPDEST SWAP1 POP SWAP2 SWAP1 POP JUMP JUMPDEST PUSH1 0x0 PUSH1 0xFF DUP3 AND SWAP1 POP SWAP2 SWAP1 POP JUMP JUMPDEST PUSH1 0x0 PUSH2 0x360E PUSH2 0x3609 DUP4 PUSH2 0x35C7 JUMP JUMPDEST PUSH2 0x35EE JUMP JUMPDEST SWAP1 POP SWAP2 SWAP1 POP JUMP JUMPDEST PUSH2 0x100 DUP3 ADD PUSH1 0x0 DUP1 DUP4 ADD SLOAD SWAP1 POP PUSH2 0x362B DUP2 PUSH2 0x3504 JUMP JUMPDEST PUSH2 0x3638 PUSH1 0x0 DUP7 ADD DUP3 PUSH2 0x2B0D JUMP JUMPDEST POP PUSH2 0x3642 DUP2 PUSH2 0x352B JUMP JUMPDEST PUSH2 0x364F PUSH1 0x20 DUP7 ADD DUP3 PUSH2 0x2B0D JUMP JUMPDEST POP PUSH2 0x3659 DUP2 PUSH2 0x3552 JUMP JUMPDEST PUSH2 0x3666 PUSH1 0x40 DUP7 ADD DUP3 PUSH2 0x2B0D JUMP JUMPDEST POP PUSH2 0x3670 DUP2 PUSH2 0x3579 JUMP JUMPDEST PUSH2 0x367D PUSH1 0x60 DUP7 ADD DUP3 PUSH2 0x2B0D JUMP JUMPDEST POP PUSH1 0x1 DUP4 ADD SLOAD SWAP1 POP PUSH2 0x368E DUP2 PUSH2 0x35AD JUMP JUMPDEST PUSH2 0x369B PUSH1 0x80 DUP7 ADD DUP3 PUSH2 0x2B1C JUMP JUMPDEST POP PUSH2 0x36A5 DUP2 PUSH2 0x35D4 JUMP JUMPDEST PUSH2 0x36B2 PUSH1 0xA0 DUP7 ADD DUP3 PUSH2 0x2B1C JUMP JUMPDEST POP PUSH1 0x2 DUP4 ADD SLOAD SWAP1 POP PUSH2 0x36C3 DUP2 PUSH2 0x35AD JUMP JUMPDEST PUSH2 0x36D0 PUSH1 0xC0 DUP7 ADD DUP3 PUSH2 0x2B1C JUMP JUMPDEST POP PUSH2 0x36DA DUP2 PUSH2 0x35FB JUMP JUMPDEST PUSH2 0x36E7 PUSH1 0xE0 DUP7 ADD DUP3 PUSH2 0x2B2B JUMP JUMPDEST POP POP POP POP POP JUMP JUMPDEST PUSH1 0x0 PUSH2 0x140 DUP3 ADD SWAP1 POP PUSH2 0x3704 PUSH1 0x0 DUP4 ADD DUP7 PUSH2 0x2990 JUMP JUMPDEST PUSH2 0x3711 PUSH1 0x20 DUP4 ADD DUP6 PUSH2 0x34D7 JUMP JUMPDEST PUSH2 0x371E PUSH1 0x40 DUP4 ADD DUP5 PUSH2 0x3615 JUMP JUMPDEST SWAP5 SWAP4 POP POP POP POP JUMP JUMPDEST PUSH32 0x4E4F5448494E475F544F5F574954484452415700000000000000000000000000 PUSH1 0x0 DUP3 ADD MSTORE POP JUMP JUMPDEST PUSH1 0x0 PUSH2 0x375C PUSH1 0x13 DUP4 PUSH2 0x32FD JUMP JUMPDEST SWAP2 POP PUSH2 0x3767 DUP3 PUSH2 0x3726 JUMP JUMPDEST PUSH1 0x20 DUP3 ADD SWAP1 POP SWAP2 SWAP1 POP JUMP JUMPDEST PUSH1 0x0 PUSH1 0x20 DUP3 ADD SWAP1 POP DUP2 DUP2 SUB PUSH1 0x0 DUP4 ADD MSTORE PUSH2 0x378B DUP2 PUSH2 0x374F JUMP JUMPDEST SWAP1 POP SWAP2 SWAP1 POP JUMP JUMPDEST PUSH1 0x0 PUSH2 0x379D DUP3 PUSH2 0x2976 JUMP JUMPDEST SWAP2 POP PUSH2 0x37A8 DUP4 PUSH2 0x2976 JUMP JUMPDEST SWAP3 POP DUP3 PUSH14 0xFFFFFFFFFFFFFFFFFFFFFFFFFFFF SUB DUP3 GT ISZERO PUSH2 0x37CB JUMPI PUSH2 0x37CA PUSH2 0x3452 JUMP JUMPDEST JUMPDEST DUP3 DUP3 ADD SWAP1 POP SWAP3 SWAP2 POP POP JUMP JUMPDEST PUSH32 0x494E56414C49445F414444524553530000000000000000000000000000000000 PUSH1 0x0 DUP3 ADD MSTORE POP JUMP JUMPDEST PUSH1 0x0 PUSH2 0x380C PUSH1 0xF DUP4 PUSH2 0x32FD JUMP JUMPDEST SWAP2 POP PUSH2 0x3817 DUP3 PUSH2 0x37D6 JUMP JUMPDEST PUSH1 0x20 DUP3 ADD SWAP1 POP SWAP2 SWAP1 POP JUMP JUMPDEST PUSH1 0x0 PUSH1 0x20 DUP3 ADD SWAP1 POP DUP2 DUP2 SUB PUSH1 0x0 DUP4 ADD MSTORE PUSH2 0x383B DUP2 PUSH2 0x37FF JUMP JUMPDEST SWAP1 POP SWAP2 SWAP1 POP JUMP JUMPDEST PUSH32 0x41525241595F4C454E4754485F4D49534D415443480000000000000000000000 PUSH1 0x0 DUP3 ADD MSTORE POP JUMP JUMPDEST PUSH1 0x0 PUSH2 0x3878 PUSH1 0x15 DUP4 PUSH2 0x32FD JUMP JUMPDEST SWAP2 POP PUSH2 0x3883 DUP3 PUSH2 0x3842 JUMP JUMPDEST PUSH1 0x20 DUP3 ADD SWAP1 POP SWAP2 SWAP1 POP JUMP JUMPDEST PUSH1 0x0 PUSH1 0x20 DUP3 ADD SWAP1 POP DUP2 DUP2 SUB PUSH1 0x0 DUP4 ADD MSTORE PUSH2 0x38A7 DUP2 PUSH2 0x386B JUMP JUMPDEST SWAP1 POP SWAP2 SWAP1 POP JUMP JUMPDEST PUSH32 0x4E487B7100000000000000000000000000000000000000000000000000000000 PUSH1 0x0 MSTORE PUSH1 0x32 PUSH1 0x4 MSTORE PUSH1 0x24 PUSH1 0x0 REVERT JUMPDEST PUSH1 0x0 PUSH2 0x38E8 DUP3 PUSH2 0x29BA JUMP JUMPDEST SWAP2 POP PUSH32 0xFFFFFFFFFFFFFFFFFFFFFFFFFFFFFFFFFFFFFFFFFFFFFFFFFFFFFFFFFFFFFFFF DUP3 SUB PUSH2 0x391A JUMPI PUSH2 0x3919 PUSH2 0x3452 JUMP JUMPDEST JUMPDEST PUSH1 0x1 DUP3 ADD SWAP1 POP SWAP2 SWAP1 POP JUMP JUMPDEST PUSH2 0x392E DUP2 PUSH2 0x290B JUMP JUMPDEST DUP3 MSTORE POP POP JUMP JUMPDEST PUSH1 0x0 PUSH1 0x20 DUP3 ADD SWAP1 POP PUSH2 0x3949 PUSH1 0x0 DUP4 ADD DUP5 PUSH2 0x3925 JUMP JUMPDEST SWAP3 SWAP2 POP POP JUMP JUMPDEST PUSH2 0x3958 DUP2 PUSH2 0x29BA JUMP JUMPDEST DUP2 EQ PUSH2 0x3963 JUMPI PUSH1 0x0 DUP1 REVERT JUMPDEST POP JUMP JUMPDEST PUSH1 0x0 DUP2 MLOAD SWAP1 POP PUSH2 0x3975 DUP2 PUSH2 0x394F JUMP JUMPDEST SWAP3 SWAP2 POP POP JUMP JUMPDEST PUSH1 0x0 PUSH1 0x20 DUP3 DUP5 SUB SLT ISZERO PUSH2 0x3991 JUMPI PUSH2 0x3990 PUSH2 0x28E1 JUMP JUMPDEST JUMPDEST PUSH1 0x0 PUSH2 0x399F DUP5 DUP3 DUP6 ADD PUSH2 0x3966 JUMP JUMPDEST SWAP2 POP POP SWAP3 SWAP2 POP POP JUMP JUMPDEST PUSH1 0x0 PUSH2 0x39B3 DUP3 PUSH2 0x29BA JUMP JUMPDEST SWAP2 POP PUSH2 0x39BE DUP4 PUSH2 0x29BA JUMP JUMPDEST SWAP3 POP DUP3 DUP3 LT ISZERO PUSH2 0x39D1 JUMPI PUSH2 0x39D0 PUSH2 0x3452 JUMP JUMPDEST JUMPDEST DUP3 DUP3 SUB SWAP1 POP SWAP3 SWAP2 POP POP JUMP JUMPDEST PUSH32 0x494E53554646494349454E545F42414C414E4345000000000000000000000000 PUSH1 0x0 DUP3 ADD MSTORE POP JUMP JUMPDEST PUSH1 0x0 PUSH2 0x3A12 PUSH1 0x14 DUP4 PUSH2 0x32FD JUMP JUMPDEST SWAP2 POP PUSH2 0x3A1D DUP3 PUSH2 0x39DC JUMP JUMPDEST PUSH1 0x20 DUP3 ADD SWAP1 POP SWAP2 SWAP1 POP JUMP JUMPDEST PUSH1 0x0 PUSH1 0x20 DUP3 ADD SWAP1 POP DUP2 DUP2 SUB PUSH1 0x0 DUP4 ADD MSTORE PUSH2 0x3A41 DUP2 PUSH2 0x3A05 JUMP JUMPDEST SWAP1 POP SWAP2 SWAP1 POP JUMP JUMPDEST PUSH32 0x494E56414C49445F544F4B454E00000000000000000000000000000000000000 PUSH1 0x0 DUP3 ADD MSTORE POP JUMP JUMPDEST PUSH1 0x0 PUSH2 0x3A7E PUSH1 0xD DUP4 PUSH2 0x32FD JUMP JUMPDEST SWAP2 POP PUSH2 0x3A89 DUP3 PUSH2 0x3A48 JUMP JUMPDEST PUSH1 0x20 DUP3 ADD SWAP1 POP SWAP2 SWAP1 POP JUMP JUMPDEST PUSH1 0x0 PUSH1 0x20 DUP3 ADD SWAP1 POP DUP2 DUP2 SUB PUSH1 0x0 DUP4 ADD MSTORE PUSH2 0x3AAD DUP2 PUSH2 0x3A71 JUMP JUMPDEST SWAP1 POP SWAP2 SWAP1 POP JUMP JUMPDEST PUSH1 0x0 PUSH1 0x40 DUP3 ADD SWAP1 POP PUSH2 0x3AC9 PUSH1 0x0 DUP4 ADD DUP6 PUSH2 0x3925 JUMP JUMPDEST PUSH2 0x3AD6 PUSH1 0x20 DUP4 ADD DUP5 PUSH2 0x29C4 JUMP JUMPDEST SWAP4 SWAP3 POP POP POP JUMP JUMPDEST PUSH1 0x0 PUSH2 0x3AE8 DUP3 PUSH2 0x2A24 JUMP JUMPDEST SWAP2 POP PUSH2 0x3AF3 DUP4 PUSH2 0x2A24 JUMP JUMPDEST SWAP3 POP DUP3 DUP3 LT ISZERO PUSH2 0x3B06 JUMPI PUSH2 0x3B05 PUSH2 0x3452 JUMP JUMPDEST JUMPDEST DUP3 DUP3 SUB SWAP1 POP SWAP3 SWAP2 POP POP JUMP JUMPDEST PUSH32 0x4E487B7100000000000000000000000000000000000000000000000000000000 PUSH1 0x0 MSTORE PUSH1 0x12 PUSH1 0x4 MSTORE PUSH1 0x24 PUSH1 0x0 REVERT JUMPDEST PUSH1 0x0 PUSH2 0x3B4B DUP3 PUSH2 0x2A24 JUMP JUMPDEST SWAP2 POP PUSH2 0x3B56 DUP4 PUSH2 0x2A24 JUMP JUMPDEST SWAP3 POP DUP3 PUSH2 0x3B66 JUMPI PUSH2 0x3B65 PUSH2 0x3B11 JUMP JUMPDEST JUMPDEST DUP3 DUP3 DIV SWAP1 POP SWAP3 SWAP2 POP POP JUMP JUMPDEST PUSH1 0x0 PUSH2 0x3B7C DUP3 PUSH2 0x2A24 JUMP JUMPDEST SWAP2 POP PUSH2 0x3B87 DUP4 PUSH2 0x2A24 JUMP JUMPDEST SWAP3 POP DUP2 PUSH5 0xFFFFFFFFFF DIV DUP4 GT DUP3 ISZERO ISZERO AND ISZERO PUSH2 0x3BA5 JUMPI PUSH2 0x3BA4 PUSH2 0x3452 JUMP JUMPDEST JUMPDEST DUP3 DUP3 MUL SWAP1 POP SWAP3 SWAP2 POP POP JUMP JUMPDEST PUSH1 0x0 PUSH2 0x3BBB DUP3 PUSH2 0x2976 JUMP JUMPDEST SWAP2 POP PUSH2 0x3BC6 DUP4 PUSH2 0x2976 JUMP JUMPDEST SWAP3 POP DUP2 PUSH14 0xFFFFFFFFFFFFFFFFFFFFFFFFFFFF DIV DUP4 GT DUP3 ISZERO ISZERO AND ISZERO PUSH2 0x3BED JUMPI PUSH2 0x3BEC PUSH2 0x3452 JUMP JUMPDEST JUMPDEST DUP3 DUP3 MUL SWAP1 POP SWAP3 SWAP2 POP POP JUMP JUMPDEST PUSH1 0x0 PUSH2 0x3C03 DUP3 PUSH2 0x2976 JUMP JUMPDEST SWAP2 POP PUSH2 0x3C0E DUP4 PUSH2 0x2976 JUMP JUMPDEST SWAP3 POP DUP3 PUSH2 0x3C1E JUMPI PUSH2 0x3C1D PUSH2 0x3B11 JUMP JUMPDEST JUMPDEST DUP3 DUP3 DIV SWAP1 POP SWAP3 SWAP2 POP POP JUMP JUMPDEST PUSH32 0x434C41494D5F414C52454144595F455849535453000000000000000000000000 PUSH1 0x0 DUP3 ADD MSTORE POP JUMP JUMPDEST PUSH1 0x0 PUSH2 0x3C5F PUSH1 0x14 DUP4 PUSH2 0x32FD JUMP JUMPDEST SWAP2 POP PUSH2 0x3C6A DUP3 PUSH2 0x3C29 JUMP JUMPDEST PUSH1 0x20 DUP3 ADD SWAP1 POP SWAP2 SWAP1 POP JUMP JUMPDEST PUSH1 0x0 PUSH1 0x20 DUP3 ADD SWAP1 POP DUP2 DUP2 SUB PUSH1 0x0 DUP4 ADD MSTORE PUSH2 0x3C8E DUP2 PUSH2 0x3C52 JUMP JUMPDEST SWAP1 POP SWAP2 SWAP1 POP JUMP JUMPDEST PUSH32 0x494E56414C49445F5645535445445F414D4F554E540000000000000000000000 PUSH1 0x0 DUP3 ADD MSTORE POP JUMP JUMPDEST PUSH1 0x0 PUSH2 0x3CCB PUSH1 0x15 DUP4 PUSH2 0x32FD JUMP JUMPDEST SWAP2 POP PUSH2 0x3CD6 DUP3 PUSH2 0x3C95 JUMP JUMPDEST PUSH1 0x20 DUP3 ADD SWAP1 POP SWAP2 SWAP1 POP JUMP JUMPDEST PUSH1 0x0 PUSH1 0x20 DUP3 ADD SWAP1 POP DUP2 DUP2 SUB PUSH1 0x0 DUP4 ADD MSTORE PUSH2 0x3CFA DUP2 PUSH2 0x3CBE JUMP JUMPDEST SWAP1 POP SWAP2 SWAP1 POP JUMP JUMPDEST PUSH32 0x494E56414C49445F53544152545F54494D455354414D50000000000000000000 PUSH1 0x0 DUP3 ADD MSTORE POP JUMP JUMPDEST PUSH1 0x0 PUSH2 0x3D37 PUSH1 0x17 DUP4 PUSH2 0x32FD JUMP JUMPDEST SWAP2 POP PUSH2 0x3D42 DUP3 PUSH2 0x3D01 JUMP JUMPDEST PUSH1 0x20 DUP3 ADD SWAP1 POP SWAP2 SWAP1 POP JUMP JUMPDEST PUSH1 0x0 PUSH1 0x20 DUP3 ADD SWAP1 POP DUP2 DUP2 SUB PUSH1 0x0 DUP4 ADD MSTORE PUSH2 0x3D66 DUP2 PUSH2 0x3D2A JUMP JUMPDEST SWAP1 POP SWAP2 SWAP1 POP JUMP JUMPDEST PUSH32 0x494E56414C49445F454E445F54494D455354414D500000000000000000000000 PUSH1 0x0 DUP3 ADD MSTORE POP JUMP JUMPDEST PUSH1 0x0 PUSH2 0x3DA3 PUSH1 0x15 DUP4 PUSH2 0x32FD JUMP JUMPDEST SWAP2 POP PUSH2 0x3DAE DUP3 PUSH2 0x3D6D JUMP JUMPDEST PUSH1 0x20 DUP3 ADD SWAP1 POP SWAP2 SWAP1 POP JUMP JUMPDEST PUSH1 0x0 PUSH1 0x20 DUP3 ADD SWAP1 POP DUP2 DUP2 SUB PUSH1 0x0 DUP4 ADD MSTORE PUSH2 0x3DD2 DUP2 PUSH2 0x3D96 JUMP JUMPDEST SWAP1 POP SWAP2 SWAP1 POP JUMP JUMPDEST PUSH32 0x494E56414C49445F52454C454153455F494E54455256414C0000000000000000 PUSH1 0x0 DUP3 ADD MSTORE POP JUMP JUMPDEST PUSH1 0x0 PUSH2 0x3E0F PUSH1 0x18 DUP4 PUSH2 0x32FD JUMP JUMPDEST SWAP2 POP PUSH2 0x3E1A DUP3 PUSH2 0x3DD9 JUMP JUMPDEST PUSH1 0x20 DUP3 ADD SWAP1 POP SWAP2 SWAP1 POP JUMP JUMPDEST PUSH1 0x0 PUSH1 0x20 DUP3 ADD SWAP1 POP DUP2 DUP2 SUB PUSH1 0x0 DUP4 ADD MSTORE PUSH2 0x3E3E DUP2 PUSH2 0x3E02 JUMP JUMPDEST SWAP1 POP SWAP2 SWAP1 POP JUMP JUMPDEST PUSH1 0x0 PUSH2 0x3E50 DUP3 PUSH2 0x2A24 JUMP JUMPDEST SWAP2 POP PUSH2 0x3E5B DUP4 PUSH2 0x2A24 JUMP JUMPDEST SWAP3 POP DUP3 PUSH2 0x3E6B JUMPI PUSH2 0x3E6A PUSH2 0x3B11 JUMP JUMPDEST JUMPDEST DUP3 DUP3 MOD SWAP1 POP SWAP3 SWAP2 POP POP JUMP JUMPDEST PUSH32 0x494E56414C49445F494E54455256414C5F4C454E475448000000000000000000 PUSH1 0x0 DUP3 ADD MSTORE POP JUMP JUMPDEST PUSH1 0x0 PUSH2 0x3EAC PUSH1 0x17 DUP4 PUSH2 0x32FD JUMP JUMPDEST SWAP2 POP PUSH2 0x3EB7 DUP3 PUSH2 0x3E76 JUMP JUMPDEST PUSH1 0x20 DUP3 ADD SWAP1 POP SWAP2 SWAP1 POP JUMP JUMPDEST PUSH1 0x0 PUSH1 0x20 DUP3 ADD SWAP1 POP DUP2 DUP2 SUB PUSH1 0x0 DUP4 ADD MSTORE PUSH2 0x3EDB DUP2 PUSH2 0x3E9F JUMP JUMPDEST SWAP1 POP SWAP2 SWAP1 POP JUMP JUMPDEST PUSH32 0x494E56414C49445F434C49464600000000000000000000000000000000000000 PUSH1 0x0 DUP3 ADD MSTORE POP JUMP JUMPDEST PUSH1 0x0 PUSH2 0x3F18 PUSH1 0xD DUP4 PUSH2 0x32FD JUMP JUMPDEST SWAP2 POP PUSH2 0x3F23 DUP3 PUSH2 0x3EE2 JUMP JUMPDEST PUSH1 0x20 DUP3 ADD SWAP1 POP SWAP2 SWAP1 POP JUMP JUMPDEST PUSH1 0x0 PUSH1 0x20 DUP3 ADD SWAP1 POP DUP2 DUP2 SUB PUSH1 0x0 DUP4 ADD MSTORE PUSH2 0x3F47 DUP2 PUSH2 0x3F0B JUMP JUMPDEST SWAP1 POP SWAP2 SWAP1 POP JUMP JUMPDEST PUSH1 0x0 DUP2 MLOAD SWAP1 POP PUSH2 0x3F5D DUP2 PUSH2 0x2AA1 JUMP JUMPDEST SWAP3 SWAP2 POP POP JUMP JUMPDEST PUSH1 0x0 PUSH1 0x20 DUP3 DUP5 SUB SLT ISZERO PUSH2 0x3F79 JUMPI PUSH2 0x3F78 PUSH2 0x28E1 JUMP JUMPDEST JUMPDEST PUSH1 0x0 PUSH2 0x3F87 DUP5 DUP3 DUP6 ADD PUSH2 0x3F4E JUMP JUMPDEST SWAP2 POP POP SWAP3 SWAP2 POP POP JUMP JUMPDEST PUSH32 0x5361666545524332303A204552433230206F7065726174696F6E20646964206E PUSH1 0x0 DUP3 ADD MSTORE PUSH32 0x6F74207375636365656400000000000000000000000000000000000000000000 PUSH1 0x20 DUP3 ADD MSTORE POP JUMP JUMPDEST PUSH1 0x0 PUSH2 0x3FEC PUSH1 0x2A DUP4 PUSH2 0x32FD JUMP JUMPDEST SWAP2 POP PUSH2 0x3FF7 DUP3 PUSH2 0x3F90 JUMP JUMPDEST PUSH1 0x40 DUP3 ADD SWAP1 POP SWAP2 SWAP1 POP JUMP JUMPDEST PUSH1 0x0 PUSH1 0x20 DUP3 ADD SWAP1 POP DUP2 DUP2 SUB PUSH1 0x0 DUP4 ADD MSTORE PUSH2 0x401B DUP2 PUSH2 0x3FDF JUMP JUMPDEST SWAP1 POP SWAP2 SWAP1 POP JUMP JUMPDEST PUSH32 0x416464726573733A20696E73756666696369656E742062616C616E636520666F PUSH1 0x0 DUP3 ADD MSTORE PUSH32 0x722063616C6C0000000000000000000000000000000000000000000000000000 PUSH1 0x20 DUP3 ADD MSTORE POP JUMP JUMPDEST PUSH1 0x0 PUSH2 0x407E PUSH1 0x26 DUP4 PUSH2 0x32FD JUMP JUMPDEST SWAP2 POP PUSH2 0x4089 DUP3 PUSH2 0x4022 JUMP JUMPDEST PUSH1 0x40 DUP3 ADD SWAP1 POP SWAP2 SWAP1 POP JUMP JUMPDEST PUSH1 0x0 PUSH1 0x20 DUP3 ADD SWAP1 POP DUP2 DUP2 SUB PUSH1 0x0 DUP4 ADD MSTORE PUSH2 0x40AD DUP2 PUSH2 0x4071 JUMP JUMPDEST SWAP1 POP SWAP2 SWAP1 POP JUMP JUMPDEST PUSH32 0x416464726573733A2063616C6C20746F206E6F6E2D636F6E7472616374000000 PUSH1 0x0 DUP3 ADD MSTORE POP JUMP JUMPDEST PUSH1 0x0 PUSH2 0x40EA PUSH1 0x1D DUP4 PUSH2 0x32FD JUMP JUMPDEST SWAP2 POP PUSH2 0x40F5 DUP3 PUSH2 0x40B4 JUMP JUMPDEST PUSH1 0x20 DUP3 ADD SWAP1 POP SWAP2 SWAP1 POP JUMP JUMPDEST PUSH1 0x0 PUSH1 0x20 DUP3 ADD SWAP1 POP DUP2 DUP2 SUB PUSH1 0x0 DUP4 ADD MSTORE PUSH2 0x4119 DUP2 PUSH2 0x40DD JUMP JUMPDEST SWAP1 POP SWAP2 SWAP1 POP JUMP JUMPDEST PUSH1 0x0 DUP2 MLOAD SWAP1 POP SWAP2 SWAP1 POP JUMP JUMPDEST PUSH1 0x0 DUP2 SWAP1 POP SWAP3 SWAP2 POP POP JUMP JUMPDEST PUSH1 0x0 JUMPDEST DUP4 DUP2 LT ISZERO PUSH2 0x4154 JUMPI DUP1 DUP3 ADD MLOAD DUP2 DUP5 ADD MSTORE PUSH1 0x20 DUP2 ADD SWAP1 POP PUSH2 0x4139 JUMP JUMPDEST DUP4 DUP2 GT ISZERO PUSH2 0x4163 JUMPI PUSH1 0x0 DUP5 DUP5 ADD MSTORE JUMPDEST POP POP POP POP JUMP JUMPDEST PUSH1 0x0 PUSH2 0x4174 DUP3 PUSH2 0x4120 JUMP JUMPDEST PUSH2 0x417E DUP2 DUP6 PUSH2 0x412B JUMP JUMPDEST SWAP4 POP PUSH2 0x418E DUP2 DUP6 PUSH1 0x20 DUP7 ADD PUSH2 0x4136 JUMP JUMPDEST DUP1 DUP5 ADD SWAP2 POP POP SWAP3 SWAP2 POP POP JUMP JUMPDEST PUSH1 0x0 PUSH2 0x41A6 DUP3 DUP5 PUSH2 0x4169 JUMP JUMPDEST SWAP2 POP DUP2 SWAP1 POP SWAP3 SWAP2 POP POP JUMP JUMPDEST PUSH1 0x0 DUP2 MLOAD SWAP1 POP SWAP2 SWAP1 POP JUMP JUMPDEST PUSH1 0x0 PUSH2 0x41C7 DUP3 PUSH2 0x41B1 JUMP JUMPDEST PUSH2 0x41D1 DUP2 DUP6 PUSH2 0x32FD JUMP JUMPDEST SWAP4 POP PUSH2 0x41E1 DUP2 DUP6 PUSH1 0x20 DUP7 ADD PUSH2 0x4136 JUMP JUMPDEST PUSH2 0x41EA DUP2 PUSH2 0x2E25 JUMP JUMPDEST DUP5 ADD SWAP2 POP POP SWAP3 SWAP2 POP POP JUMP JUMPDEST PUSH1 0x0 PUSH1 0x20 DUP3 ADD SWAP1 POP DUP2 DUP2 SUB PUSH1 0x0 DUP4 ADD MSTORE PUSH2 0x420F DUP2 DUP5 PUSH2 0x41BC JUMP JUMPDEST SWAP1 POP SWAP3 SWAP2 POP POP JUMP INVALID LOG2 PUSH5 0x6970667358 0x22 SLT KECCAK256 NOT 0x5D 0x28 DUP16 0xC0 PUSH31 0x46083193F3B15D871968CC3C65B44678A4B7AC53783C33AA671F64736F6C63 NUMBER STOP ADDMOD 0xE STOP CALLER "
        },
        "methodIdentifiers": {
          "allVestingRecipients()": "7197dec3",
          "claimableAmount(address)": "89885049",
          "createClaim(address,uint40,uint40,uint40,uint40,uint112,uint112)": "852e72e9",
          "createClaimsBatch(address[],uint40[],uint40[],uint40[],uint40[],uint112[],uint112[])": "ae9741aa",
          "finalVestedAmount(address)": "ed83a4b2",
          "getClaim(address)": "4cd3723a",
          "isAdmin(address)": "24d7806c",
          "numTokensReservedForVesting()": "137c68fa",
          "numVestingRecipients()": "241c5b1f",
          "revokeClaim(address)": "0216ee41",
          "setAdmin(address,bool)": "4b0bddd2",
          "tokenAddress()": "9d76ea58",
          "vestedAmount(address,uint40)": "4a0e701e",
          "withdraw()": "3ccfd60b",
          "withdrawAdmin(uint112)": "b3a026b1",
          "withdrawOtherToken(address)": "e50373f9"
        }
      },
      "userdoc": {
        "events": {
          "AdminWithdrawn(address,uint112)": {
            "notice": "Emitted when admin withdraws."
          },
          "ClaimCreated(address,(uint40,uint40,uint40,uint40,uint112,uint112,uint112,bool))": {
            "notice": "Emitted when a founder adds a vesting schedule."
          },
          "ClaimRevoked(address,uint112,uint256,(uint40,uint40,uint40,uint40,uint112,uint112,uint112,bool))": {
            "notice": "Emitted when a claim is revoked"
          },
          "Claimed(address,uint112)": {
            "notice": "Emitted when someone withdraws a vested amount"
          }
        },
        "kind": "user",
        "methods": {
          "allVestingRecipients()": {
            "notice": "Return all the addresses that have vesting schedules attached."
          },
          "claimableAmount(address)": {
            "notice": "Calculates how much can we claim, by subtracting the already withdrawn amount from the vestedAmount at this moment."
          },
          "constructor": {
            "notice": "Construct the contract, taking the ERC20 token to be vested as the parameter."
          },
          "createClaim(address,uint40,uint40,uint40,uint40,uint112,uint112)": {
            "notice": "Create a claim based on the input parameters."
          },
          "createClaimsBatch(address[],uint40[],uint40[],uint40[],uint40[],uint112[],uint112[])": {
            "notice": "The batch version of the createClaim function. Each argument is an array, and this function simply repeatedly calls the createClaim."
          },
          "finalVestedAmount(address)": {
            "notice": "Calculate the total vested at the end of the schedule, by simply feeding in the end timestamp to the function above."
          },
          "getClaim(address)": {
            "notice": "Basic getter for a claim. "
          },
          "numTokensReservedForVesting()": {
            "notice": "How many tokens are already allocated to vesting schedules."
          },
          "numVestingRecipients()": {
            "notice": "Get the total number of vesting recipients."
          },
          "revokeClaim(address)": {
            "notice": "Allow an Owner to revoke a claim that is already active."
          },
          "setAdmin(address,bool)": {
            "notice": "Set/unset Admin Access for a given address."
          },
          "tokenAddress()": {
            "notice": "Address of the token that we're vesting"
          },
          "vestedAmount(address,uint40)": {
            "notice": "Calculate the amount vested for a given _recipient at a reference timestamp."
          },
          "withdraw()": {
            "notice": "Withdraw the full claimable balance."
          },
          "withdrawAdmin(uint112)": {
            "notice": "Admin withdrawal of the unallocated tokens."
          },
          "withdrawOtherToken(address)": {
            "notice": "Withdraw a token which isn't controlled by the vesting contract."
          }
        },
        "version": 1
      }
    }
  }
}